:020000040800F2
:1000000000500020890300086D0300086F030008FA
:100010007103000873030008750300080000000066
:10002000000000000000000000000000770300084E
:1000300079030008000000007B0300087D0300082E
:10004000D1030008D1030008D1030008D103000840
:10005000D1030008D1030008D1030008D103000830
:10006000D1030008D1030008D1030008D103000820
:10007000D1030008D1030008D1030008D103000810
:10008000D1030008D1030008D1030008D103000800
:10009000D1030008D1030008D1030008D1030008F0
:1000A000D1030008D1030008D1030008D1030008E0
:1000B000D1030008D1030008D1030008D1030008D0
:1000C000D1030008D1030008D1030008D1030008C0
:1000D000D1030008D1030008D1030008D1030008B0
:1000E000D1030008D1030008D1030008000000007C
:1000F0000000000000000000000000000000000000
:0C01000000000000000000005FF808F1A3
:10010C0010B5054C237833B9044B13B10448AFF345
:10011C0000800123237010BD3C040020000000006F
:10012C00F811000808B5034B1BB103490348AFF3A2
:10013C00008008BD0000000040040020F8110008F9
:10014C0010B586B00023029303930493059303F137
:10015C00804303F504339A6942F008029A619A6964
:10016C0002F008020092009A9A6942F004029A6125
:10017C009B6903F004030193019B094C01220321A9
:10018C00204600F0EFFA032302930122039204921B
:10019C00059302A9204600F0D3F906B010BD00BFAC
:1001AC00000C014072B6FEE708B50C480C4B03601E
:1001BC004FF4E13343604FF4805383600023C360FA
:1001CC004FF4806202610C2242618361C36100F0D2
:1001DC008BFE00B908BDFFF7E5FF00BF58040020F7
:1001EC000038014000B591B02822002106A800F08B
:1001FC003BFF002301930293039304930593022383
:10020C00069301230A9310230B9306A800F0D0FA4F
:10021C0068B90F2301930021029103910491059178
:10022C0001A800F005FD20B911B05DF804FBFFF743
:10023C00B9FFFFF7B7FF000000B587B0EC46164CCE
:10024C000FCCACE80F0094E803004CF8040BACF8AE
:10025C00001000F0DFF8FFF7C5FFFFF771FFFFF7A5
:10026C00A3FF0E4C01221146204600F07BFA00221F
:10027C000221204600F076FA01230A22694608483A
:10028C0000F061FE0221054800F072FA4FF4FA709A
:10029C0000F0E4F8F6E700BF10120008000C014073
:1002AC005804002082B00E4B9A6942F001029A6108
:1002BC009A6902F001020092009ADA6942F08052C7
:1002CC00DA61DB6903F080530193019B054A5368A3
:1002DC0023F0E06343F00073536002B0704700BF3B
:1002EC00001002400000014010B586B000230293BC
:1002FC000393049305930268174B9A4201D006B0FE
:10030C0010BD03F558439A6942F480429A619A6988
:10031C0002F480420092009A9A6942F004029A61B7
:10032C009B6903F004030193019B4FF40073029348
:10033C000223039303230593084C02A9204600F0E3
:10034C00FFF84FF48063029300230393049302A9F4
:10035C00204600F0F5F8D2E70038014000080140D3
:10036C00FEE7FEE7FEE7FEE7FEE7704770477047E3
:10037C0008B500F061F808BD704700000C480D4945
:10038C000D4A002302E0D458C4500433C4188C42E4
:10039C00F9D30A4A0A4C002301E013600432A2424A
:1003AC00FBD3FFF7E9FF00F03BFEFFF745FF70477B
:1003BC00000000203C040020641200083C040020D3
:1003CC00A4040020FEE7000010B504460E4B18787C
:1003DC004FF47A73B3FBF0F30C4A1068B0FBF3F0F4
:1003EC0000F09AF868B90F2C01D901200AE000221C
:1003FC0021464FF0FF3000F057F8054B1C600020F1
:10040C0000E0012010BD00BF04000020000000200F
:10041C000800002008B5074A136843F01003136066
:10042C00032000F02FF80F20FFF7CEFFFFF73AFF65
:10043C00002008BD00200240034A1168034B1B78C2
:10044C000B441360704700BF9C0400200400002084
:10045C00014B1868704700BF9C04002038B5044657
:10046C00FFF7F6FF0546B4F1FF3F02D0044B1B78B3
:10047C001C44FFF7EDFF401BA042FAD338BD00BF70
:10048C0004000020074AD36823F4E0631B041B0C10
:10049C00000200F4E060034343F0BF6343F4003315
:1004AC00D360704700ED00E000B5194BDB68C3F377
:1004BC000223C3F1070CBCF1040F28BF4FF0040C4E
:1004CC0003F1040EBEF1060F18D9033B4FF0FF3EAB
:1004DC000EFA0CFC21EA0C0199400EFA03F322EA05
:1004EC000303194300280BDB0901C9B200F160407A
:1004FC0000F5614080F800135DF804FB0023E5E78C
:10050C0000F00F000901C9B2024B1954F4E700BF07
:10051C0000ED00E014ED00E00138B0F1807F0BD26B
:10052C004FF0E0235861054AF02182F82310002097
:10053C00986107221A6170470120704700ED00E0B6
:10054C0070B582B00024A446A6E0804DAA4210D01B
:10055C0007D97F4DAA420CD005F58035AA4208D0A8
:10056C0013E0A5F58015AA4203D005F57025AA4223
:10057C0007D18A68002A58D0012A51D04361082437
:10058C0003E0A5F58015AA42F3D0BEF1FF0F4ED8BB
:10059C000646BEF1FF0F4CD84FEA8C0233680F258C
:1005AC00954023EA050304FA02F2134333604B68C7
:1005BC0013F0805F6ED0674B9A6942F001029A612A
:1005CC009B6903F001030193019B4FEA9C02951C6C
:1005DC00614B53F825600CF003039D000F23AB40D7
:1005EC0026EA03065D4B984229D003F580639842B6
:1005FC0000F08E8003F58063984200F08B8003F549
:10060C008063984219D004231AE0CC68BDE7CC680B
:10061C000434BAE7CC680834B7E7CC680C34B4E7D8
:10062C0003610824B1E70024AFE70424ADE7061DFD
:10063C00AFE7ACF108029200B0E7032300E000231F
:10064C00AB4033430232444D45F822304B6813F42F
:10065C00803F61D0424A136843EA0E0313604B6833
:10066C0013F4003F5ED03E4A536843EA0E035360D6
:10067C004B6813F4801F5BD0394A936843EA0E032E
:10068C0093604B6813F4001F58D0354AD36843EA83
:10069C000E03D3600CF1010C0A6832FA0CF353D040
:1006AC00012303FA0CF302EA030E33EA0202F1D13E
:1006BC004A68122A3FF649AF122A3FF666AF01A5E7
:1006CC0055F822F07F0500081706000821060008DF
:1006DC0033060008970500089705000897050008E1
:1006EC00970500089705000897050008970500086E
:1006FC00970500089705000897050008970500085E
:10070C0097050008970500081B0600082706000837
:10071C00012395E7022393E7114A136823EA0E039A
:10072C0013609CE70E4A536823EA0E0353609FE75D
:10073C000B4A936823EA0E039360A2E7084AD36836
:10074C0023EA0E03D360A5E702B070BD00002210AF
:10075C000000311000100240000001400008014070
:10076C00000401400AB1016170470904016170473E
:10077C00C36801EA030221EA030141EA0241016173
:10078C007047000082B0084B1B68084AA2FB032389
:10079C005B0A00FB03F3019300BF019B5A1E0192FD
:1007AC00002BF9D102B0704700000020D34D62102D
:1007BC00002800F0F18170B582B00446036813F094
:1007CC00010F2CD0994B5B6803F00C03042B1DD04C
:1007DC00964B5B6803F00C03082B12D06368B3F5DF
:1007EC00803F41D0002B55D103F1804303F50433F6
:1007FC001A6822F480321A601A6822F480221A6075
:10080C0037E08A4B5B6813F4803FE7D0874B1B685B
:10081C0013F4003F03D06368002B00F0BF81236802
:10082C0013F0020F75D0814B5B6813F00C0F5FD087
:10083C007E4B5B6803F00C03082B54D02369002B10
:10084C0000F08A807A4B01221A60FFF701FE054600
:10085C00764B1B6813F0020F75D1FFF7F9FD401BA7
:10086C000228F5D903209EE1704A136843F48033C3
:10087C001360636843B3FFF7EBFD05466B4B1B68D6
:10088C0013F4003FCBD1FFF7E3FD401B6428F5D9EF
:10089C00032088E1B3F5A02F09D0644B1A6822F429
:1008AC0080321A601A6822F480221A60E1E703F1A0
:1008BC008043A3F53C331A6842F480221A601A680C
:1008CC0042F480321A60D4E7FFF7C2FD0546574B5D
:1008DC001B6813F4003FA2D0FFF7BAFD401B64283D
:1008EC00F5D903205FE1514B5B6813F4803FA5D130
:1008FC004E4B1B6813F0020F03D02369012B40F001
:10090C004F814A4A136823F0F803616943EAC10333
:10091C001360236813F0080F33D0A369002B5CD04D
:10092C00434B0122C3F88024FFF792FD05463F4B51
:10093C005B6A13F0020F21D1FFF78AFD401B0228DE
:10094C00F5D903202FE1394A136823F0F8036169C4
:10095C0043EAC1031360DCE7354B00221A60FFF752
:10096C0077FD0546314B1B6813F0020FD1D0FFF712
:10097C006FFD401B0228F5D9032014E10120FFF77D
:10098C0001FF236813F0040F00F09680274BDB69FE
:10099C0013F0805F34D1254BDA6942F08052DA6172
:1009AC00DB6903F080530193019B0125214B1B68EC
:1009BC0013F4807F26D0E368012B3DD0002B53D15C
:1009CC0003F1804303F504331A6A22F001021A6220
:1009DC001A6A22F004021A6233E0154B0022C3F8A3
:1009EC008024FFF735FD0546104B5B6A13F0020FB0
:1009FC00C7D0FFF72DFD401B0228F5D90320D2E00C
:100A0C000025D3E70B4A136843F480731360FFF798
:100A1C001FFD0646074B1B6813F4807FCBD1FFF7F5
:100A2C0017FD801B6428F5D90320BCE000100240A0
:100A3C0000004242007000405F4A136A43F0010319
:100A4C001362E36833B3FFF703FD06465A4B1B6A88
:100A5C0013F0020F2FD1FFF7FBFC801B41F2883300
:100A6C009842F3D903209EE0052B09D0524B1A6A09
:100A7C0022F001021A621A6A22F004021A62E0E7FA
:100A8C004D4B1A6A42F004021A621A6A42F00102D1
:100A9C001A62D6E7FFF7DCFC0646474B1B6A13F0DD
:100AAC00020F08D0FFF7D4FC801B41F28833984228
:100ABC00F3D9032077E0E5B9E369002B72D03E4A05
:100ACC00526802F00C02082A56D0022B17D03B4B6E
:100ADC0000221A66FFF7BCFC0446374B1B6813F068
:100AEC00007F47D0FFF7B4FC001B0228F5D9032088
:100AFC0059E0314AD36923F08053D361DCE72F4BA3
:100B0C0000221A66FFF7A4FC05462B4B1B6813F05A
:100B1C00007F06D0FFF79CFC401B0228F5D9032070
:100B2C0041E0236AB3F5803F1AD023494B6823F484
:100B3C007413226A606A024313434B601F4B0122F9
:100B4C001A66FFF785FC04461B4B1B6813F0007FED
:100B5C000ED1FFF77DFC001B0228F5D9032022E003
:100B6C00154A536823F40033A1680B435360DCE748
:100B7C00002018E0002016E0012B16D00E4B5B680D
:100B8C0003F48031226A914211D103F47013626A2A
:100B9C0093420ED1002006E001207047012002E0B4
:100BAC00012000E0002002B070BD0120FBE7012015
:100BBC00F9E70120F7E700BF0010024000004242B5
:100BCC0086B0174B0FCB0DF1180C0CE90F0040F24F
:100BDC000123ADF80430134B5B6803F00C02082AB8
:100BEC0002D0114806B07047C3F3834218326A44EE
:100BFC0012F8100C13F4803F0DD00A4B5B68C3F352
:100C0C00404318336B4413F8143C074A02FB00F0C2
:100C1C00B0FBF3F0E6E7054B03FB00F0E2E700BFA7
:100C2C00401200080010024000127A0000093D003A
:100C3C00002800F0A08070B50D460446524B1B688E
:100C4C0003F007038B420BD24F4A136823F00703C0
:100C5C000B431360136803F007038B4240F08D8045
:100C6C00236813F0020F17D013F0040F04D0474A77
:100C7C00536843F4E0635360236813F0080F04D007
:100C8C00424A536843F460535360404A536823F01C
:100C9C00F003A1680B435360236813F0010F31D0AC
:100CAC006368012B20D0022B25D0384A126812F031
:100CBC00020F64D035494A6822F0030213434B609B
:100CCC00FFF7C6FB0646314B5B6803F00C0362680A
:100CDC00B3EB820F16D0FFF7BBFB801B41F28833BE
:100CEC009842F0D9032045E0284A126812F4003FDC
:100CFC00E0D101203EE0254A126812F0007FD9D1E4
:100D0C00012037E0204B1B6803F00703AB420AD9E4
:100D1C001D4A136823F007032B431360136803F079
:100D2C000703AB422DD1236813F0040F06D0174AEA
:100D3C00536823F4E063E1680B435360236813F0BA
:100D4C00080F07D0114A536823F46053216943EA12
:100D5C00C1035360FFF734FF0C4B5B68C3F3031301
:100D6C000B4AD35CD8400B4B18600B4B1868FFF741
:100D7C002BFB002070BD012070470120FAE70120F9
:100D8C00F8E70120F6E700BF002002400010024007
:100D9C00281200080000002008000020014B1868F1
:100DAC00704700BF0000002008B5FFF7F7FF044BA9
:100DBC005B68C3F30223034AD35CD84008BD00BF71
:100DCC00001002403812000808B5FFF7E7FF044B8B
:100DDC005B68C3F3C223034AD35CD84008BD00BF91
:100DEC00001002403812000810B50446026813695E
:100DFC0023F44053C1680B431361836802691343A6
:100E0C0042691A430168CB6823F4B05323F00C03F6
:100E1C001343CB600268536923F4407381690B431D
:100E2C0053610268134B9A4220D0FFF7BDFF024674
:100E3C0002EB820202EB820263689B00B2FBF3F2CC
:100E4C000D48A0FB02314909642303FB11231B014C
:100E5C003233A0FB03235B0903F0F00202EB011217
:100E6C0003F00F03216813448B6010BDFFF7ACFF38
:100E7C000246DDE7003801401F85EB512DE9F843B0
:100E8C0005460F4616469946DDF820802C682468E6
:100E9C0037EA04030CBF4FF0010C4FF0000CB445C3
:100EAC001FD1B8F1FF3FF1D0B8F1000F05D0FFF71B
:100EBC00CFFAA0EB09004045E8D92A68D36823F49F
:100ECC00D073D3602A68536923F001035361202344
:100EDC0085F83D3085F83E30002385F83C30032002
:100EEC0000E00020BDE8F88358B310B5044690F834
:100EFC003D300BB3242384F83D302268D36823F4AF
:100F0C000053D3602046FFF76FFF2268136923F468
:100F1C00904313612268536923F02A0353612268BA
:100F2C00D36843F40053D36000202064202384F85A
:100F3C003D3084F83E3010BD80F83C30FFF7D4F9DA
:100F4C00D8E7012070472DE9F04182B01E4690F899
:100F5C003D30DBB2202B54D104460D46904600297F
:100F6C0053D0002A53D090F83C30012B51D00123A0
:100F7C0080F83C3000230364212380F83D30FFF7D8
:100F8C0067FA0746A4F82480A4F82680A368B3F572
:100F9C00805F05D04FF00008002384F83C3012E04D
:100FAC00236913B14FF00008F6E7A8460025F3E7D4
:100FBC0038F8023B2268C3F308035360E28C92B208
:100FCC00013A92B2E284E38C9BB273B100963B4639
:100FDC00002280212046FFF751FFE0B9002DE7D019
:100FEC0015F8012B23685A60E8E700963B4600226F
:100FFC0040212046FFF742FF78B9202384F83D308A
:10100C0000E0022002B0BDE8F0810120FAE70120E7
:10101C00F8E70220F6E70320F4E70320F2E70000EC
:10102C0070B50D4E0D4D761BB61006D0002455F83C
:10103C00043B01349847A642F9D1094E094D00F002
:10104C00D5F8761BB61006D0002455F8043B0134B5
:10105C009847A642F9D170BD5812000858120008E2
:10106C006012000858120008830730B548D0541E8F
:10107C00002A3FD00346CAB201E0013C3AD303F840
:10108C00012B9D07F9D1032C2DD9CDB245EA0525AD
:10109C000F2C45EA054536D9A4F1100222F00F0CAD
:1010AC0003F1200EE6444FEA121C03F1100242E950
:1010BC00045542E9025510327245F8D10CF1010287
:1010CC0014F00C0F03EB021204F00F0C13D0ACF164
:1010DC00040323F003030433134442F8045B9342E8
:1010EC00FBD10CF003042CB1CAB21C4403F8012B45
:1010FC009C42FBD130BD64461346002CF4D1F9E779
:10110C0003461446BFE71A46A446E0E7024B13B168
:10111C00024800F005B870470000000039110008C3
:10112C00002301461A46184600F01AB838B5084B89
:10113C00084D5B1B9C1007D0043B1D44013C55F82B
:10114C0004399847002CF9D1BDE8384000F054B868
:10115C006412000860120008704700BF704700BF9F
:10116C002DE9F047DFF87CA00646DAF80000984637
:10117C000F469146FFF7F0FF1B4B1B68D3F8484115
:10118C0024B365681F2D26DC5EB96B1C0235DAF8BA
:10119C000000636044F82570FFF7E0FF0020BDE815
:1011AC00F087012304EB8501C1F88890D4F88821DD
:1011BC00AB401A43022EC4F88821C1F80881E4D14F
:1011CC00D4F88C211343C4F88C31DEE703F5A674F4
:1011DC00C3F84841D5E7DAF80000FFF7BFFF4FF03E
:1011EC00FF30DCE73804002054120008F8B500BFCB
:1011FC00F8BC08BC9E467047F8B500BFF8BC08BCEC
:04120C009E46704743
:1012100072796D63752E636F6D206E6562756C619A
:101220002D50693332000000000000000000000073
:10123000010203040607080900000000010203047C
:1012400002030405060708090A0B0C0D0E0F101007
:08125000000000001000002066
:08125800191100083101000822
:041260000D01000874
:101264000024F40001000000100000000000000051
:1012740000000000FC02002064030020CC030020D6
:10128400000000000000000000000000000000005A
:10129400000000000000000000000000000000004A
:1012A400000000000000000000000000000000003A
:1012B400000000000000000000000000000000002A
:1012C400000000000000000000000000000000001A
:1012D400000000000000000000000000000000000A
:1012E40000000000000000000000000000000000FA
:1012F40000000000000000000000000000000000EA
:1013040000000000000000000000000000000000D9
:1013140000000000000000000100000000000000C8
:101324000E33CDAB34126DE6ECDE05000B0000008D
:1013340000000000000000000000000000000000A9
:101344000000000000000000000000000000000099
:101354000000000000000000000000000000000089
:101364000000000000000000000000000000000079
:0C1694000000000000000000A004002086
:040000050800038963
:00000001FF
