:020000040800F2
:100000000050002091190008251800082718000842
:10001000291800082B1800082D18000800000000FF
:100020000000000000000000000000002F18000881
:1000300031180008000000003318000835180008C7
:10004000D9190008D9190008D9190008D9190008C8
:10005000D9190008D9190008D9190008D9190008B8
:10006000D9190008D9190008D9190008D9190008A8
:10007000D9190008D9190008D9190008D919000898
:10008000D9190008D9190008D9190008D919000888
:100090003D180008D9190008D9190008D919000815
:1000A000D9190008D9190008D9190008D919000868
:1000B000D9190008D9190008D9190008D919000858
:1000C000D9190008D9190008D9190008D919000848
:1000D000D91900084D180008D9190008D9190008C5
:1000E000C5180008D9190008D91900080000000037
:1000F0000000000000000000000000000000000000
:0C01000000000000000000005FF808F1A3
:1001100010B5054C237833B9044B13B10448AFF341
:1001200000800123237010BDE80A002000000000B9
:10013000CCF4000808B5034B1BB103490348AFF3E7
:10014000008008BD00000000EC0A0020CCF400088C
:10015000844641EA000313F0030349D1403A23D314
:100160000B6803604B6843608B688360CB68C36037
:100170000B6903614B6943618B698361CB69C3611F
:100180000B6A03624B6A43628B6A8362CB6AC36207
:100190000B6B03634B6B43638B6B8363CB6BC363EF
:1001A00040304031403ADBD230320BD30B68036031
:1001B0004B6843608B688360CB68C360103010313C
:1001C000103AF3D20C3205D351F8043B40F8043B0B
:1001D000043AF9D2043208D0D2071CBF11F8013B0F
:1001E00000F8013B01D30B8803806046704700BFD5
:1001F000082A13D38B07B1D010F00303AED0C3F19C
:100200000403D21ADB071CBF11F8013B00F8013BC5
:10021000A4D331F8023B20F8023B9FE7043AD9D33C
:10022000013A11F8013B00F8013BF9D20B78037059
:100230004B7843708B7883706046704781F0004143
:1002400002E000BF83F0004330B54FEA41044FEABB
:10025000430594EA050F08BF90EA020F1FBF54EA56
:10026000000C55EA020C7FEA645C7FEA655C00F0F2
:10027000E2804FEA5454D4EB5555B8BF6D420CDDC3
:100280002C4480EA020281EA030382EA000083EA46
:10029000010180EA020281EA0303362D88BF30BDE6
:1002A00011F0004F4FEA01314FF4801C4CEA11313C
:1002B00002D0404261EB410113F0004F4FEA03339B
:1002C0004CEA133302D0524263EB430394EA050F26
:1002D00000F0A780A4F10104D5F1200E0DDB02FA95
:1002E0000EFC22FA05F2801841F1000103FA0EF229
:1002F000801843FA05F359410EE0A5F120050EF1EF
:10030000200E012A03FA0EFC28BF4CF0020C43FA1F
:1003100005F3C01851EBE37101F0004507D54FF02C
:10032000000EDCF1000C7EEB00006EEB0101B1F57C
:10033000801F1BD3B1F5001F0CD349085FEA3000C2
:100340004FEA3C0C04F101044FEA445212F5800FCD
:1003500080F09A80BCF1004F08BF5FEA500C50F16A
:10036000000041EB045141EA050130BD5FEA4C0C4D
:10037000404141EB0101013C28BFB1F5801FE9D2AA
:1003800091F0000F04BF01460020B1FA81F308BFCD
:100390002033A3F10B03B3F120020CDA0C3208DD99
:1003A00002F1140CC2F10C0201FA0CF021FA02F174
:1003B0000CE002F11402D8BFC2F1200C01FA02F1E4
:1003C00020FA0CFCDCBF41EA0C019040E41AA2BF09
:1003D00001EB0451294330BD6FEA04041F3C1CDAD1
:1003E0000C340EDC04F11404C4F1200220FA04F0F1
:1003F00001FA02F340EA030021FA04F345EA03019B
:1004000030BDC4F10C04C4F1200220FA02F001FA5C
:1004100004F340EA0300294630BD21FA04F02946DE
:1004200030BD94F0000F83F4801306BF81F4801177
:100430000134013D4EE77FEA645C18BF7FEA655CEA
:1004400029D094EA050F08BF90EA020F05D054EABC
:10045000000C04BF1946104630BD91EA030F1EBFC1
:100460000021002030BD5FEA545C05D140004941C5
:1004700028BF41F0004130BD14F580043CBF01F5B8
:10048000801130BD01F0004545F0FE4141F470019E
:100490004FF0000030BD7FEA645C1ABF1946104679
:1004A0007FEA655C1CBF0B46024650EA013406BF7A
:1004B00052EA033591EA030F41F4002130BD00BF39
:1004C00090F0000F04BF0021704730B54FF48064F6
:1004D00004F132044FF000054FF0000150E700BF77
:1004E00090F0000F04BF0021704730B54FF48064D6
:1004F00004F1320410F0004548BF40424FF00001C3
:100500003EE700BF42004FEAE2014FEA31014FEA05
:1005100002701FBF12F07F4393F07F4F81F0605154
:10052000704732F07F4208BF704793F07F4F04BF9F
:1005300041F40021704730B54FF4607401F000457C
:1005400021F000411CE700BF50EA010208BF7047DC
:1005500030B54FF000050AE050EA010208BF7047CD
:1005600030B511F0004502D5404261EB41014FF436
:10057000806404F132045FEA915C3FF4D8AE4FF03E
:1005800003025FEADC0C18BF03325FEADC0C18BF21
:10059000033202EBDC02C2F1200300FA03FC20FA72
:1005A00002F001FA03FE40EA0E0021FA02F11444BF
:1005B000BDE600BF70B54FF0FF0C4CF4E06C1CEAD8
:1005C00011541DBF1CEA135594EA0C0F95EA0C0F49
:1005D00000F0DEF82C4481EA030621EA4C5123EABC
:1005E0004C5350EA013518BF52EA033541F48011EB
:1005F00043F4801338D0A0FB02CE4FF00005E1FB9E
:1006000002E506F00042E0FB03E54FF00006E1FBE7
:1006100003569CF0000F18BF4EF0010EA4F1FF042A
:10062000B6F5007F64F5407404D25FEA4E0E6D416A
:1006300046EB060642EAC62141EA55514FEAC5207B
:1006400040EA5E504FEACE2EB4F1FD0C88BFBCF5F7
:10065000E06F1ED8BEF1004F08BF5FEA500E50F1A8
:10066000000041EB045170BD06F0004646EA01016E
:1006700040EA020081EA0301B4EB5C04C2BFD4EBA0
:100680000C0541EA045170BD41F480114FF0000E99
:10069000013C00F3AB8014F1360FDEBF002001F007
:1006A000004170BDC4F10004203C35DA0C341BDC81
:1006B00004F11404C4F1200500FA05F320FA04F053
:1006C00001FA05F240EA020001F0004221F0004187
:1006D00010EBD37021FA04F642EB06015EEA430EFA
:1006E00008BF20EAD37070BDC4F10C04C4F120052A
:1006F00000FA04F320FA05F001FA04F240EA0200DD
:1007000001F0004110EBD37041F100015EEA430EAD
:1007100008BF20EAD37070BDC4F1200500FA05F2CD
:100720004EEA020E20FA04F301FA05F243EA02034C
:1007300021FA04F001F0004121FA04F220EA02005B
:1007400000EBD3705EEA430E08BF20EAD37070BDA1
:1007500094F0000F0FD101F00046400041EB010181
:1007600011F4801F08BF013CF7D041EA060195F063
:10077000000F18BF704703F00046520043EB03031D
:1007800013F4801F08BF013DF7D043EA060370470A
:1007900094EA0C0F0CEA135518BF95EA0C0F0CD015
:1007A00050EA410618BF52EA4306D1D181EA03015B
:1007B00001F000414FF0000070BD50EA410606BF55
:1007C0001046194652EA430619D094EA0C0F02D19A
:1007D00050EA013613D195EA0C0F05D152EA0336DF
:1007E0001CBF104619460AD181EA030101F00041FD
:1007F00041F0FE4141F470014FF0000070BD41F046
:10080000FE4141F4780170BD70B54FF0FF0C4CF41F
:10081000E06C1CEA11541DBF1CEA135594EA0C0F3E
:1008200095EA0C0F00F0A7F8A4EB050481EA030E8B
:1008300052EA03354FEA013100F088804FEA033372
:100840004FF0805545EA131343EA12634FEA022240
:1008500045EA111545EA10654FEA00260EF0004101
:100860009D4208BF964244F1FD0404F5407402D253
:100870005B084FEA3202B61A65EB03055B084FEAE4
:1008800032024FF480104FF4002CB6EB020E75EBE1
:10089000030E22BFB61A754640EA0C005B084FEA09
:1008A0003202B6EB020E75EB030E22BFB61A754686
:1008B00040EA5C005B084FEA3202B6EB020E75EBD1
:1008C000030E22BFB61A754640EA9C005B084FEA49
:1008D0003202B6EB020E75EB030E22BFB61A754656
:1008E00040EADC0055EA060E18D04FEA051545EA45
:1008F00016754FEA06164FEAC30343EA52734FEAEE
:10090000C2025FEA1C1CC0D111F4801F0BD141EA66
:1009100000014FF000004FF0004CB6E711F4801FCB
:1009200004BF01430020B4F1FD0C88BFBCF5E06FAB
:100930003FF6AFAEB5EB030C04BFB6EB020C5FEABB
:10094000500C50F1000041EB045170BD0EF0004E10
:100950004EEA113114EB5C04C2BFD4EB0C0541EA42
:10096000045170BD41F480114FF0000E013C90E63F
:1009700045EA060E8DE60CEA135594EA0C0F08BF03
:1009800095EA0C0F3FF43BAF94EA0C0F0AD150EA02
:1009900001347FF434AF95EA0C0F7FF425AF104695
:1009A00019462CE795EA0C0F06D152EA03353FF4BD
:1009B000FDAE1046194622E750EA410618BF52EA3A
:1009C00043067FF4C5AE50EA41047FF40DAF52EA0E
:1009D00043057FF4EBAE12E74FF0FF3C06E000BFAB
:1009E0004FF0010C02E000BF4FF0010C4DF804CDB8
:1009F0004FEA410C7FEA6C5C4FEA430C18BF7FEA78
:100A00006C5C1BD001B050EA410C0CBF52EA430CA5
:100A100091EA030F02BF90EA020F0020704710F125
:100A2000000F91EA030F58BF994208BF90422CBFB4
:100A3000D8176FEAE37040F0010070474FEA410CAD
:100A40007FEA6C5C02D150EA013C07D14FEA430CCB
:100A50007FEA6C5CD6D152EA033CD3D05DF8040B3C
:100A6000704700BF8446104662468C46194663466E
:100A700000E000BF01B5FFF7B7FF002848BF10F145
:100A8000000F01BD4DF808EDFFF7F4FF0CBF01208A
:100A900000205DF808FB00BF4DF808EDFFF7EAFF06
:100AA00034BF012000205DF808FB00BF4DF808EDC1
:100AB000FFF7E0FF94BF012000205DF808FB00BFB6
:100AC0004DF808EDFFF7CEFF94BF012000205DF840
:100AD00008FB00BF4DF808EDFFF7C4FF34BF01204D
:100AE00000205DF808FB00BF4FEA410C7FEA6C5C18
:100AF00002D150EA013C0AD14FEA430C7FEA6C5C18
:100B000002D152EA033C02D14FF0000070474FF08F
:100B1000010070474FEA410212F5001215D211D5BB
:100B20006FF47873B3EB625212D94FEAC12343F0EA
:100B3000004343EA505311F0004F23FA02F018BF6C
:100B4000404270474FF00000704750EA013005D135
:100B500011F0004008BF6FF0004070474FF00000F8
:100B6000704700BF53B94AB9002908BF00281CBF0D
:100B70004FF0FF314FF0FF3000F076B9ADF1080CC7
:100B80006DE904CE00F006F8DDF804E0DDE90223AB
:100B900004B070472DE9F047089E0D46044688468C
:100BA000002B4DD18A42944668D9B2FA82F252B1F2
:100BB00001FA02F3C2F1200120FA01F10CFA02FC61
:100BC00041EA030894404FEA1C41B8FBF1F71FFAD1
:100BD0008CFE01FB178807FB0EF0230C43EA084349
:100BE00098420AD91CEB030307F1FF3580F01E8100
:100BF000984240F21B81023F63441B1AB3FBF1F0A1
:100C000001FB103300FB0EFEA4B244EA0344A645E8
:100C10000AD91CEB040400F1FF3380F00981A645DA
:100C200040F20681644402380021A4EB0E0440EA3D
:100C300007401EB10023D440C6E90043BDE8F08759
:100C40008B4208D9002E00F0EE800021C6E9000595
:100C50000846BDE8F087B3FA83F100294AD1AB42D8
:100C600002D3824200F2FC80841A65EB0303012068
:100C70009846002EE2D0C6E90048DFE702B9FFDE61
:100C8000B2FA82F2002A40F09180A1EB0C0001211F
:100C90004FEA1C471FFA8CFEB0FBF7F307FB13006B
:100CA000250C45EA00450EFB03F0A84208D91CEBD1
:100CB000050503F1FF3802D2A84200F2CE80434678
:100CC0002D1AB5FBF7F007FB10550EFB00FEA4B282
:100CD00044EA0544A64508D91CEB040400F1FF359D
:100CE00002D2A64500F2B6802846A4EB0E0440EAE4
:100CF00003409EE7C1F120078B4022FA07FC4CEA33
:100D0000030C25FA07FA4FEA1C49BAFBF9F820FA56
:100D100007F309FB18AA8D401FFA8CFE1D4300FA49
:100D200001F308FB0EF02C0C44EA0A44A04202FA3C
:100D300001F20BD91CEB040408F1FF3A80F0888023
:100D4000A04240F28580A8F102086444241AB4FB52
:100D5000F9F009FB104400FB0EFEADB245EA044475
:100D6000A64508D91CEB040400F1FF356CD2A6455A
:100D70006AD90238644440EA0840A0FB0295A4EB1B
:100D80000E04AC42C846AE4656D353D0002E69D0AE
:100D9000B3EB080264EB0E0422FA01F304FA07F73E
:100DA0001F43CC40C6E90074002147E70CFA02FC5F
:100DB000C2F1200125FA01F34FEA1C4720FA01F1A4
:100DC00095400D43B3FBF7F107FB11331FFA8CFE7F
:100DD000280C40EA034001FB0EF3834204FA02F4BC
:100DE00008D91CEB000001F1FF382FD283422DD926
:100DF00002396044C01AB0FBF7F307FB1300ADB231
:100E000045EA004503FB0EF0A84208D91CEB050596
:100E100003F1FF3816D2A84214D9023B6544281AC0
:100E200043EA014138E73146304607E72F46E4E61A
:100E30001846F9E64B45A9D2B9EB020865EB0C0E52
:100E40000138A3E74346EAE7284694E74146D1E75D
:100E5000D0467BE76444023847E7023B65442FE70E
:100E6000084606E73146E9E6704700BF00B587B09F
:100E70008DF80F000023009301230DF117020DF1EF
:100E80000F01044803F0F9F99DF8170007B05DF869
:100E900004FB00BF040B002010B5074C0022022108
:100EA000204600F0E5FF0620FFF7E0FF01220221C7
:100EB000204600F0DDFF10BD0008014070B5064679
:100EC0000C46154600220221104800F0D1FF0320F5
:100ED000FFF7CCFFC4F30740FFF7C8FFC4F30720B8
:100EE000FFF7C4FFE0B2FFF7C1FF05E0FF20FFF707
:100EF000BDFF06F8010B25466B1E9CB2002DF5D1F7
:100F000001220221014800F0B3FF70BD000801403A
:100F100008B500220221094800F0AAFF0520FFF7CA
:100F2000A5FFFF20FFF7A2FF10F0010FF9D101226A
:100F30000221024800F09CFF08BD00BF00080140EC
:100F400038B50446FFF7A8FFFFF7E2FF0D4D00227A
:100F50000221284600F08CFF2020FFF787FFC4F312
:100F60000740FFF783FFC4F30720FFF77FFFE0B2DE
:100F7000FFF77CFF01220221284600F079FFFFF7EE
:100F8000C7FF38BD0008014070B506460C4615463F
:100F9000FFF782FF00220221134800F069FF0220C0
:100FA000FFF764FFC4F30740FFF760FFC4F30720B7
:100FB000FFF75CFFE0B2FFF759FFB5F5807F07D977
:100FC0004FF4807504E016F8010BFFF74FFF25463C
:100FD0006B1E9CB2002DF6D101220221024800F0C6
:100FE00047FFFFF795FF70BD000801402DE9F8436A
:100FF00005460C461746CBB2110AD3B971B9214642
:10100000FFF7C2FF13E04FF4807221462846FFF736
:10101000BBFF04F5807405F5807531464B1EDEB2CA
:101020000029F0D1FAB221462846FFF7ADFFBDE80E
:10103000F883C3F100085FFA88F8D6B299B9B045D1
:101040000DD23344DEB242462146FFF79DFF3246C1
:1010500008EB040105EB0800FFF796FFE7E72146E0
:10106000FFF792FFE3E7A2EB08071FFA87F9C7F340
:101070000726FFB242462146FFF786FF4444454417
:101080000AE04FF4807221462846FFF77DFF04F501
:10109000807405F580754646731E5FFA83F8002E4E
:1010A000EFD1002FC3D05FFA89F221462846FFF71F
:1010B0006BFFBCE72DE9F04788B000240494059449
:1010C000069407943C4B9A6942F010029A619A691F
:1010D00002F010020192019A9A6942F004029A61A8
:1010E0009A6902F004020292029A9A6942F0080296
:1010F0009A619B6903F008030393039B2F4F01221E
:101100000421384600F0B4FEDFF8B4A00122022129
:10111000504600F0ADFE22462021384600F0A8FEE1
:10112000DFF8A09001220321484600F0A1FE4FF411
:1011300000530493244B05930226069604A93846CF
:1011400000F084FD012504950594069604A938460F
:1011500000F07CFD24230493059506964FF00308C8
:10116000CDF81C8004A9384600F070FD0496059562
:101170000695CDF81C8004A9504600F067FD049543
:1011800005950695CDF81C8004A9484600F05EFD43
:10119000049605950696CDF81C8004A9484600F0F3
:1011A00055FD22462146282000F088FC282000F02A
:1011B000BDFC08B0BDE8F0870010024000100140FF
:1011C00000080140000C01400000111010B5ADF501
:1011D000895D86B00DF1880C5A4C0FCCACE80F003D
:1011E0000FCCACE80F000FCCACE80F0094E8030084
:1011F0004CF8040B8CF800104B2200210DF1BD00BF
:1012000008F0D2F802AB002119607C2203A808F094
:10121000CBF84D4808F084F901224C4942A807F068
:1012200035F80D284ED04A4808F07AF90A22494983
:10123000494807F05DF8002868D1484808F070F97F
:1012400001AB802222A9444807F0F7F901460028A3
:1012500060D122A9424808F0F9F83F4C204607F037
:1012600023FB404808F05CF901223A49204607F088
:101270003FF8002852D101AB802202A9364807F07E
:1012800020F9002851D102A9374808F0DFF8324C84
:10129000204607F009FB01223449204607F028F8D0
:1012A000002846D101AB802202A92B4807F009F99A
:1012B000002842D102A92C4808F0C8F8264807F0B7
:1012C000F3FA2EE02A4808F02BF9002211461F48B5
:1012D00007F0FCFAB0B9274808F022F91B4C0122AC
:1012E0002146002006F0D2FF0146234808F0AEF860
:1012F0000122214642A806F0C9FF01461F4808F016
:10130000A5F890E71E4808F00BF98CE71D4808F097
:1013100007F995E71C4808F099F89EE71B4808F084
:10132000FFF80DF5895D06B010BD194808F0F8F812
:10133000F7E7164808F0F4F8F3E7154808F0F0F876
:10134000EFE700BFE8F4000868F50008B4F500080E
:1013500080F60008CCF60008600D0020D4F60008E6
:1013600014F700085CF70008D8F70008F4F7000845
:10137000B8F50008F0F5000818F6000838F600087F
:1013800058F60008F4F6000834F70008A8F700083B
:10139000C0F7000810B584B0002303E0214AD354FD
:1013A00001339BB2FF2BF9D94FF47A7302930823D0
:1013B00001931C4B009310230022A0211A4801F036
:1013C0009FF8C8B9194808F0ABF84FF47A7000F0EC
:1013D0004FFB4FF47A73029308230193144B00934D
:1013E00010230022A121104801F03CF9B0B91148A6
:1013F00008F096F800240AE00F4808F091F8E4E7B6
:101400000B4B195D0D4808F021F80134A4B2072CEC
:10141000F6D90B4808F084F804B010BD064808F06F
:101420007FF8F9E7600C00208C0D00207CF80008A4
:101430005C0B0020A4F8000890F8000870F8000881
:1014400078F8000808B50121044800F017FD044BA6
:1014500001221A70034808F063F808BD000C01402F
:101460005C0C0020B8F8000800B583B001904FF67E
:10147000FF73012201A9034803F013F9019803B097
:101480005DF804FBE00D002072B6FEE708B50D48DC
:101490000D4B03604FF4E133436000238360C3606E
:1014A00003610C2242618361C36103F0CBF830B960
:1014B000044B1A68D36843F03003D36008BDFFF7CC
:1014C000E3FF00BFE00D00200038014008B50A48E6
:1014D0000A4B03600A4B436000238360C3604FF4F0
:1014E0008042026143618361C361036200F02AFFAD
:1014F00000B908BDFFF7C8FF8C0D00200054004064
:10150000A086010008B50D480D4B03604FF48273AF
:10151000436000238360C360036143614FF4007242
:1015200082611022C2610362436283620A23C36242
:1015300002F048FE00B908BDFFF7A6FF040B00202B
:101540000030014000B595B0282200210DEB0200CB
:1015500007F02AFF00230593069307930893099346
:10156000019302930393049301220A924FF4803370
:101570000B930E920222119212934FF4E0131393E5
:101580000AA802F0FBF9C0B90F23059302210691C6
:10159000002307934FF480620892099305A802F094
:1015A0002DFC60B9102301930023049301A802F0DD
:1015B00001FD30B915B05DF804FBFFF765FFFFF7DB
:1015C00063FFFFF761FF000038B500F02DFAFFF769
:1015D000B9FFFFF76FFDFFF759FFFFF777FFFFF741
:1015E00091FF04F0A5FA07F0A5FCFFF7D3FEFFF783
:1015F000EDFD1B4B1B78012B19D01A4B1B78012BCF
:10160000F7D10025174B1D70174C012220212046D1
:1016100000F02EFC4FF47A7000F02AFA2A462021BE
:10162000204600F025FC114807F07AFFE1E700248E
:101630000B4B1C700E4B19780E4807F007FF0C4B34
:101640001B78A34205DD0C4B185D07F013FF013436
:10165000F5E70A4807F064FF054B00221A70CCE753
:10166000890E00205C0C002000100140E8F8000802
:10167000880E0020CCF80008240E002078F800081E
:1016800082B00E4B9A6942F001029A619A6902F0A7
:1016900001020092009ADA6942F08052DA61DB6955
:1016A00003F080530193019B054A536823F0E063E4
:1016B00043F00073536002B0704700BF0010024057
:1016C0000000014010B586B00023029303930493F9
:1016D00005930268114B9A4201D006B010BD104C20
:1016E000A36943F00803A361A36903F0080300930F
:1016F000009BC0230293122303930323059302A9A3
:10170000084800F0A3FAE36943F40013E361E369D6
:1017100003F400130193019BDFE700BF0054004076
:1017200000100240000C014010B586B00023029367
:101730000393049305930268164B9A4201D006B0B6
:1017400010BD03F560439A6942F480529A619A6928
:1017500002F480520092009A9A6942F004029A615F
:101760009B6903F004030193019BA02302930223CE
:10177000039303230593084C02A9204600F066FA60
:101780004023029300230393049302A9204600F010
:101790005DFAD4E7003001400008014030B587B061
:1017A0000023029303930493059302681B4B9A4210
:1017B00001D007B030BD03F558439A6942F4804226
:1017C0009A619A6902F480420092009A9A6942F002
:1017D00004029A619B6903F004030193019B4FF497
:1017E0000073029302230393032305930C4D02A974
:1017F000284600F02BFA4FF48063029300240394F0
:10180000049402A9284600F021FA22462146252008
:1018100000F054F9252000F089F9CAE700380140AA
:1018200000080140FEE7FEE7FEE7FEE7FEE770473F
:101830007047704708B500F009F908BD08B50248BF
:1018400001F027FE08BD00BF9413002010B582B040
:10185000184B1B681B6813F0200F14D1154B1B6825
:101860001A6812F0100F09D0002201921A68019232
:101870005B680193019B104B01221A700D4803F025
:1018800071F802B010BD0D4C21784B1C2370002361
:1018900001220B480144074802F06FFF2378632BB5
:1018A00001D900222270034B1B686FF020021A60DE
:1018B000D4E700BFE00D0020890E0020880E002034
:1018C000240E002008B54FF4005000F0E1FA08BDE6
:1018D0000120704708B507F03DFD162303604FF067
:1018E000FF3008BD08B54FF0FF31FFF7F3FFFEE70B
:1018F00070B50C461646002506E0AFF30080214681
:1019000001F8010B01350C46B542F6DB304670BDDF
:1019100070B50C461646002504E014F8010BFFF7DD
:10192000A3FD0135B542F8DB304670BD4FF0FF3006
:1019300070474FF400534B60002070470120704700
:101940000020704710B503460C4A0D490D48006849
:1019500040B10C4800680344521A934206D8094A21
:10196000136010BD0748084C0460F2E707F0F2FC72
:101970000C2303604FF0FF30F3E700BF005000205E
:10198000001000008C0E0020382700207047000057
:101990000C480D490D4A002302E0D458C4500433CA
:1019A000C4188C42F9D30A4A0A4C002301E01360A0
:1019B0000432A242FBD3FFF7E9FF07F0D1FCFFF7A7
:1019C00003FE704700000020E80A0020DCFD00084C
:1019D000E80A002038270020FEE7000010B5044682
:1019E0000E4B18784FF47A73B3FBF0F30C4A10687F
:1019F000B0FBF3F000F0A8F868B90F2C01D9012072
:101A00000AE0002221464FF0FF3000F057F8054B66
:101A10001C60002000E0012010BD00BF0400002079
:101A2000000000200800002008B5074A136843F0B2
:101A300010031360032000F02FF80F20FFF7CEFFF4
:101A4000FFF71EFE002008BD00200240034A116877
:101A5000034B1B780B441360704700BF900E0020AF
:101A600004000020014B1868704700BF900E002052
:101A700038B50446FFF7F6FF0546B4F1FF3F02D044
:101A8000044B1B781C44FFF7EDFF401BA042FAD328
:101A900038BD00BF04000020074AD36823F4E06388
:101AA0001B041B0C000200F4E060034343F0BF631F
:101AB00043F40033D360704700ED00E000B5194BEC
:101AC000DB68C3F30223C3F1070CBCF1040F28BF8A
:101AD0004FF0040C03F1040EBEF1060F18D9033BBE
:101AE0004FF0FF3E0EFA0CFC21EA0C0199400EFA71
:101AF00003F322EA0303194300280BDB0901C9B2EF
:101B000000F1604000F5614080F800135DF804FBCF
:101B10000023E5E700F00F000901C9B2024B195498
:101B2000F4E700BF00ED00E014ED00E0002807DB63
:101B300000F01F02400901239340024A42F820307E
:101B4000704700BF00E100E00138B0F1807F0BD2A8
:101B50004FF0E0235861054AF02182F8231000205D
:101B6000986107221A6170470120704700ED00E07C
:101B700090F82130022B06D004238363002380F8E1
:101B80002030012070470268136823F00E031360B1
:101B90000268136823F001031360036CC16B012218
:101BA00002FA03F34B6080F82120002380F82030F4
:101BB0001846704708B590F82130022B03D0042353
:101BC0008363012008BD0268136823F00E031360CD
:101BD0000268136823F0010313600368194A9342F3
:101BE00014D0143293421FD0143293421ED01432B8
:101BF00093421ED0143293421ED01432934202D02C
:101C00004FF0807203E04FF4801200E001220E4B8F
:101C10005A60012380F82130002380F82030436B84
:101C20006BB198470020CDE71022F0E74FF48072A7
:101C3000EDE74FF48052EAE74FF48032E7E7002007
:101C4000C0E700BF080002400000024070B582B04B
:101C50000024A446A6E0804DAA4210D007D97F4DAB
:101C6000AA420CD005F58035AA4208D013E0A5F5AC
:101C70008015AA4203D005F57025AA4207D18A68CB
:101C8000002A58D0012A51D04361082403E0A5F569
:101C90008015AA42F3D0BEF1FF0F4ED80646BEF122
:101CA000FF0F4CD84FEA8C0233680F25954023EA8A
:101CB000050304FA02F2134333604B6813F0805FAC
:101CC0006ED0674B9A6942F001029A619B6903F0FA
:101CD00001030193019B4FEA9C02951C614B53F851
:101CE00025600CF003039D000F23AB4026EA03069A
:101CF0005D4B984229D003F58063984200F08E80B6
:101D000003F58063984200F08B8003F5806398426E
:101D100019D004231AE0CC68BDE7CC680434BAE7D4
:101D2000CC680834B7E7CC680C34B4E70361082406
:101D3000B1E70024AFE70424ADE7061DAFE7ACF13F
:101D400008029200B0E7032300E00023AB403343D6
:101D50000232444D45F822304B6813F4803F61D085
:101D6000424A136843EA0E0313604B6813F4003FC2
:101D70005ED03E4A536843EA0E0353604B6813F447
:101D8000801F5BD0394A936843EA0E0393604B6827
:101D900013F4001F58D0354AD36843EA0E03D360CA
:101DA0000CF1010C0A6832FA0CF353D0012303FA48
:101DB0000CF302EA030E33EA0202F1D14A68122A56
:101DC0003FF649AF122A3FF666AF01A555F822F05B
:101DD0007F1C0008171D0008211D0008331D000886
:101DE000971C0008971C0008971C0008971C000807
:101DF000971C0008971C0008971C0008971C0008F7
:101E0000971C0008971C0008971C0008971C0008E6
:101E1000971C00081B1D0008271D0008012395E7DB
:101E2000022393E7114A136823EA0E0313609CE729
:101E30000E4A536823EA0E0353609FE70B4A9368E8
:101E400023EA0E039360A2E7084AD36823EA0E034D
:101E5000D360A5E702B070BD000022100000311071
:101E60000010024000000140000801400004014051
:101E70000AB101617047090401617047C36801EA52
:101E8000030221EA030141EA0241016170470000B7
:101E900008B5054B5B69034200D108BD024B586190
:101EA000FFF7D0FAF9E700BF0004014003685A6960
:101EB00012F4806F01D1002070476FF480625A6184
:101EC00000230363202280F83D2080F83E30026C1E
:101ED00042F00402026480F83C30012070472DE992
:101EE000F04107460D4690461E4624E0FFF7BAFD36
:101EF000069BC01AB04200D8EEB900233B632022F3
:101F000087F83D2087F83E303A6C42F020023A6470
:101F100087F83C3001201EE03B689C6925EA040CF0
:101F20001FFA8CFCBCFA8CFC4FEA5C1CE04511D11A
:101F3000B6F1FF3FDAD1C5F30743012BECD13B6883
:101F40005B6925EA030C1FFA8CFCBCFA8CFC4FEA97
:101F50005C1CEBE70020BDE8F0812DE9F04105466F
:101F60000E46174698463DE01A6842F400721A6021
:101F70002B686FF480625A6100232B63202285F85E
:101F80003D2085F83E302A6C42F004022A6485F830
:101F90003C30012034E0FFF765FDA0EB0800B842BB
:101FA00000D8FFB900232B63202285F83D2085F857
:101FB0003E302A6C42F020022A6485F83C30012031
:101FC0001EE02B689C6926EA0404A4B2003C18BFFA
:101FD0000124A4B12B685A6912F4806FC4D1B7F1FF
:101FE000FF3FD8D1C6F30743012BEAD12B685C69C8
:101FF00026EA0404A4B2003C18BF0124E9E700204B
:10200000BDE8F08170B504460D46164623685B694D
:1020100013F0800F1CD12046FFF748FFD0B9B5F16F
:10202000FF3FF3D0FFF71EFD801BA84201D8002D13
:10203000ECD100232363202284F83D2084F83E3035
:10204000226C42F02002226484F83C30012000E03F
:10205000002070BD0120FCE72DE9F04385B0044667
:102060000D4691461F46DDF830800D9E03681968C5
:1020700041F4807119600096434600224FF001112F
:10208000FFF72DFF60B9236805F0FE051D6133469B
:10209000424626492046FFF760FF68B1012008E06C
:1020A00023681B6813F4807F02D04FF4007323640D
:1020B000032005B0BDE8F0830023039323685A6929
:1020C00003929B690393039B324641462046FFF7E8
:1020D00099FF30B9012F0FD123685FFA89F61E618D
:1020E000E7E7236C042B01D00120E2E722681368A4
:1020F00043F400731360F7E723684FEA19221A616B
:10210000324641462046FFF77DFF20B923685FFA3B
:1021100089F61E61CDE7236C042B01D00120C8E7AE
:102120002268136843F400731360F7E702000100AC
:102130002DE9F04784B004460D46164699460C9F9B
:10214000DDF834800268136843F480631360036829
:10215000196841F480711960CDF800803B46002277
:102160004FF00111FFF7BBFE70B95FFA85FA2368E3
:1021700005F0FE051D6143463A4641492046FFF7FA
:10218000ECFE68B1012008E023681B6813F4807F2F
:1021900002D04FF400732364032004B0BDE8F0873D
:1021A0000023039323685A6903929B690393039B5B
:1021B000424639462046FFF725FF80B9B9F1010FA5
:1021C00018D12368F6B21E61424639462046FFF711
:1021D00019FF68B3236C042B24D00120DDE7236CA6
:1021E000042B01D00120D8E72268136843F4007360
:1021F0001360F7E72368320A1A61424639462046DF
:10220000FFF700FF18B92368F6B21E61DCE7236C04
:10221000042B01D00120C0E72268136843F4007347
:102220001360F7E72268136843F400731360D4E780
:102230002268136843F480731360CDF800803B4636
:1022400000224FF001112046FFF749FE68B92268CD
:102250004AF00103136143463A4609492046FFF715
:102260007CFE002899D0012097E723681B6813F4AF
:10227000807F02D04FF40073236403208DE700BFFA
:102280000200010070B504460D46164623685B69DE
:1022900013F0040F1CD12046FFF708FED0B9B5F1AA
:1022A000FF3FF3D0FFF7DEFB801BA84201D8002DD3
:1022B000ECD100232363202284F83D2084F83E30B3
:1022C000226C42F02002226484F83C30012000E0BD
:1022D000002070BD0120FCE770B505460C4616468F
:1022E0002B68596911F0400F29D1596911F0100F6D
:1022F00015D1FFF7B7FB801BA04201D8002CEFD10E
:1023000000232B63202285F83D2085F83E302A6C7F
:1023100042F020022A6485F83C30012070BD6FF045
:1023200010025A6100232B63202285F83D2085F896
:102330003E302A6C2A6485F83C300120EEE700200C
:10234000ECE70000002800F0CC8070B5044690F85F
:102350003D30002B77D0242384F83D302268136869
:1023600023F0010313602268136843F400431360F1
:102370002268136823F40043136001F0FBFD6268D8
:102380005A4B9A4264D85A4B98428CBF002301237F
:10239000002B40F0A8805749A1FB00318B0C256829
:1023A0006A6822F03F0242EA91426A6021680A6A42
:1023B00022F03F0266684D4DAE424FD801331343C1
:1023C0000B622168CA6922F44F4222F0FF0266685C
:1023D000464B9E424CD8431E7600B3FBF6F30133C6
:1023E00040F6FC70034278D0C3F30B031343CB6178
:1023F00021680B6823F0C003E269206A024313439B
:102400000B6021688B6823F4034323F0FF032269E8
:10241000E068024313438B602168CB6823F0FF031D
:102420006269A06902431343CB602268136843F0DA
:102430000103136000202064202384F83D302063D2
:1024400084F83E0070BD80F83C30FFF73BF982E72E
:10245000294B98428CBF0023012399E74FF49675CE
:1024600005FB03F3254DA5FB03539B090133A6E7A9
:10247000A368BBB9451E06EB460CB5FBFCF5013560
:10248000C5F30B05B5FA85F56D0945BBC3B9013830
:1024900006EB4603B0FBF3F30133C3F30B0343F442
:1024A0000043A3E7451E06EB860C0CEB8C0CB5FB3A
:1024B000FCF50135C5F30B05B5FA85F56D09E4E7C3
:1024C000013806EB860303EB8303B0FBF3F3013320
:1024D000C3F30B0343F4404388E7042386E7012357
:1024E00084E7012070470120ACE700BFA08601000F
:1024F0007F841E0083DE1B43FF083D00D34D621026
:102500002DE9F04383B004460F46904699460C9E51
:10251000FFF7A8FA054694F83D00C0B2202803D082
:10252000022003B0BDE8F0830095192301224B4936
:102530002046FFF7D4FC002840F0898094F83C3016
:10254000012B00F08680012384F83C3023681A6850
:1025500012F0010F03D11A6842F001021A602268DA
:10256000136823F400631360212384F83D30402373
:1025700084F83E30002323640A9B6362BDF82C304C
:102580006385638D2385364BE362019500964B4648
:10259000424639462046FFF75FFD00285BD1238D78
:1025A000002B35D02A4631462046FFF72BFD20BBB5
:1025B000626A236812781A61626A531C6362218D11
:1025C000013989B22185638D9BB2013B9BB2638542
:1025D0002368586910F0040FE1D00029DFD0527849
:1025E0001A61636A01336362238D013B2385638D26
:1025F0009BB2013B9BB26385D1E7236C042B01D0D6
:1026000001208EE72268136843F400731360F7E734
:102610002A4631462046FFF735FE50B1236C042B85
:1026200001D001207DE72268136843F40073136032
:10263000F7E72268136843F400731360202384F8DB
:102640003D30002384F83E3084F83C3069E70220B6
:1026500067E7022065E7012063E700BF0200100082
:102660000000FFFF2DE9F04389B004460F46904675
:102670009946129E00230793FFF7F4F9054694F854
:102680003D00C0B2202804D00227384609B0BDE87A
:10269000F08300951923012281492046FFF71FFC92
:1026A000002840F0728194F83C30012B00F06F81DB
:1026B000012384F83C3023681A6812F0010F03D11B
:1026C0001A6842F001021A602268136823F400635A
:1026D0001360222384F83D30402384F83E300023E9
:1026E0002364109B6362BDF844306385638D23854A
:1026F0006C4BE362019500964B46424639462046B4
:10270000FFF716FD0746002840F04381238D5BB993
:10271000039323685A6903929A690392039A1A6889
:1027200042F400721A60EDE0012B0FD0022B21D091
:102730002268136843F480631360002306932368C0
:102740005A6906929B690693069BDBE02268136830
:1027500023F48063136072B60023049323685A69DC
:1027600004929A690492049A1A6842F400721A60F8
:1027700062B6C7E02268136843F40063136072B660
:102780000023059323685A6905929A690592059A70
:102790001A6822F480621A6062B6B3E02A463146B3
:1027A0002046FFF799FD002840F0F58023681A695C
:1027B000636A1A70636A01336362238D013B238568
:1027C000638D9BB2013B9BB263859BE000953346D2
:1027D000002235492046FFF782FB002840F0DF80C9
:1027E0002268136823F48063136072B623681A6941
:1027F000636A1A70636A01336362238D013B238528
:10280000638D9BB2013B9BB26385284B1B68DB0841
:10281000274AA2FB03231B0A03EB8303C3EBC30377
:102820000793079B013B0793079B002B28D0236846
:102830005A6912F0040FF4D01A6842F400721A6058
:1028400023681A69636A1A70636A01336362238DAD
:10285000013B2385638D9BB2013B9BB2638562B6CE
:1028600023681A69636A1A70636A01336362238D8D
:10287000013B2385638D9BB2013B9BB2638541E0A5
:102880002363202284F83D2084F83E30226C42F0FD
:102890002002226462B684F83C300127F5E600BFCE
:1028A000020010000000FFFF0400010000000020F3
:1028B00089B5F8142A4631462046FFF70DFD002859
:1028C0006FD123681A69636A1A70626A531C636263
:1028D000238D013B2385638D9BB2013B9BB26385B6
:1028E0002368596911F0040F0CD01B695370636A97
:1028F00001336362238D013B2385638D9BB2013BD2
:102900009BB26385238D002B36D0032BD2D8012BAD
:102910003FF444AF022B7FF459AF009533460022B9
:1029200021492046FFF7DBFA002836D172B622682B
:10293000136843F40073136023681A69636A1A709A
:10294000636A01336362238D013B2385638D9BB2F0
:10295000013B9BB2638562B623681A69636A1A7089
:10296000636A01336362238D013B2385638D9BB2D0
:10297000013B9BB26385C5E7202384F83D300023EB
:1029800084F83E3084F83C307FE602277DE602275B
:102990007BE6012779E6012777E6012775E601271F
:1029A00073E6012771E600BF0400010038B512F498
:1029B000804F44D00468B4F850309BB291F800C006
:1029C00003EBCC03023304EB4303B3F80044C4F33A
:1029D00009048B69A34228D31B1B8B618B697BB9CC
:1029E000056835F82C309BB223F4804323F0700344
:1029F00083F4005343F4004343F0800325F82C3064
:102A000012F0400F0ED002680D7832F825309BB2DC
:102A100023F4E04323F0700343F4004343F0C00386
:102A200022F8253024B9204638BD00238B61D5E734
:102A300023460A894969006803F061F8F3E70468EE
:102A4000B4F850309BB291F800C003EBCC030633CE
:102A500004EB4303B3F80044C4F309048B69A342B5
:102A60002FD31B1B8B618B697BB9056835F82C3024
:102A70009BB223F4804323F0700383F4005343F4A8
:102A8000004343F0800325F82C3012F0400F0FD1A3
:102A9000026891F800C032F82C309BB223F4E04376
:102AA00023F0700343F4004343F0C00322F82C30BA
:102AB000002CB8D023464A894969006803F01FF802
:102AC000B1E700238B61CEE770B586B0002800F037
:102AD0008580044690F8A932EBB1032384F8A9322B
:102AE000206802F051F8254655F8106BEC460FCDE2
:102AF000ACE80F002B68CCF80030231D0ECB30461D
:102B000002F032F8054658B1022384F8A9320125B3
:102B1000284606B070BD80F8A83206F005FBDCE759
:102B20000021206802F03AF82B461AE05A1C02EB0A
:102B3000820104EBC1010120487002EB820104F81C
:102B4000313003EB830104EBC101CB8602EB820C35
:102B500004EBCC0C00208CF803008863C863086485
:102B6000D3B261688B42E1D316E005EB850304EB39
:102B7000C303002283F8692183F8685183F86B212D
:102B8000C3F87821C3F87C2105EB850304EBC3036C
:102B9000C3F880210135EDB2A942E6D8254655F8A3
:102BA000106BEC460FCDACE80F002B68CCF8003072
:102BB000231D0ECB304601F0F3FF054620B1022362
:102BC00084F8A9320125A3E7002384F824300123E7
:102BD00084F8A932206802F01DFB99E7012597E7E8
:102BE00038B590F8A832012B11D00446012580F8A1
:102BF000A852006801F0BFFF2946204606F0A9FB55
:102C0000206802F005FB002084F8A80238BD0220ED
:102C1000FCE770B505460C46164612F0400F00F072
:102C20000D810268B2F850309BB2097803EBC10302
:102C3000023302EB4303B3F80024C2F30902A36991
:102C4000934252D99B1AA361A369002B6AD163787E
:102C5000002B4DD12B68B3F8502092B2134403EBF4
:102C60000111B1F804349BB223F4F8439BB2A1F8EC
:102C70000434B1F804346FEA43436FEA53439BB220
:102C8000A1F804342B686278002A3ED1B3F85020B2
:102C900092B21344227803EB0213B3F80C2492B2DD
:102CA00022F4F84292B2A3F80C24B3F80C246FEA91
:102CB00042426FEA524292B2A3F80C24217828468D
:102CC00006F066FA16F4804F41D02A68217832F86F
:102CD00021309BB223F4E04323F0700343F44043DC
:102CE00043F0800322F8213031E00023A361ABE7F9
:102CF000012BC7D12B68B3F8502092B2134403EBD9
:102D000001110023A1F80434BCE7012AD6D1B3F89D
:102D1000502092B21344227803EB02130022A3F84E
:102D20000C24CBE716F4804F0DD0286830F8213002
:102D30009BB223F4E04323F0700343F4404343F099
:102D4000800320F8213094F82430012B12D02A6817
:102D5000217832F821309BB223F4E04323F0400382
:102D600083F0300343F4004343F0800322F8213022
:102D7000002070BD636913446361E3691344E36138
:102D8000216A236999421FD3C91A21626278002AF5
:102D90003FD12A68B2F8501089B20A44217802EB78
:102DA0000112EBB9B2F8041489B221F4F84189B2E6
:102DB000A2F80414B2F804146FEA41416FEA5141D9
:102DC00089B2A2F8041426E021B9002384F8243043
:102DD0001346DBE7002384F8243023620B46D5E753
:102DE0003E2B09D8590813F0010F00D00131890298
:102DF00089B2A2F804140EE0590913F01F0F00D194
:102E000001396FEAC1616FEA514189B2A2F8041435
:102E100001E0012A06D09BB222896169286802F08C
:102E200001FA94E72A68B2F8501089B20A4421786E
:102E300002EB011299B2A2F80414ECE70268B2F8AE
:102E400050309BB2097803EBC103063302EB430316
:102E5000B3F80024C2F30902A369934253D39B1A27
:102E6000A361A369002B6BD16378002B4ED12B6833
:102E7000B3F8502092B2134403EB0111B1F80434BB
:102E80009BB223F4F8439BB2A1F80434B1F80434A4
:102E90006FEA43436FEA53439BB2A1F804342B68B3
:102EA0006278002A3FD1B3F8502092B213442278BE
:102EB00003EB0213B3F80C2492B222F4F84292B25C
:102EC000A3F80C24B3F80C246FEA42426FEA524292
:102ED00092B2A3F80C242178284606F059F916F48A
:102EE000804F7FF434AF2A68217832F821309BB2CA
:102EF00023F4E04323F0700343F4404343F08003A2
:102F000022F8213023E70023A361AAE7012BC6D1D1
:102F10002B68B3F8502092B2134403EB0111002345
:102F2000A1F80434BBE7012AD5D1B3F8502092B2FE
:102F30001344227803EB02130022A3F80C24CAE7FF
:102F400016F4804F0DD1286830F821309BB223F45D
:102F5000E04323F0700343F4404343F0800320F840
:102F6000213094F82430012B7FF4F1AE63691344CF
:102F70006361E3691344E361216A236999421FD3C2
:102F8000C91A21622A68617800293ED1B2F850102E
:102F900089B20A44217802EB0112EBB9B2F80C14A1
:102FA00089B221F4F84189B2A2F80C14B2F80C14D9
:102FB0006FEA41416FEA514189B2A2F80C1426E050
:102FC00021B9002384F824301346DBE70023236271
:102FD00084F824300B46D5E73E2B09D8590813F066
:102FE000010F00D00131890289B2A2F80C140EE061
:102FF000590913F01F0F00D101396FEAC1616FEA5F
:10300000514189B2A2F80C1401E0012906D09BB20B
:1030100062896169286802F005F998E6B2F85010F3
:1030200089B20A44217802EB011299B2A2F80C1479
:10303000EDE72DE9F04105462868B0F8443013F477
:10304000004F00F00F82B0F84440A3B214F00F0418
:1030500040F0D88013F0100F61D003889AB213F4B7
:10306000006F40F0938012F4004FE5D0038823F006
:1030700070031B051B0D43F0800303802868B0F824
:1030800050309BB295F8682103EBC203063300EB86
:103090004303B3F80034C3F30903C5F884318BB19B
:1030A000D5F87C1171B1B5F86E2102F028FDD5F884
:1030B0008421D5F87C311344C5F87C3100212846A1
:1030C00006F05AF82B681A8812F4006FB4D1B3F8DE
:1030D000502092B21344D5F87821002A79D1B3F860
:1030E0000C2492B222F4F84292B2A3F80C24B3F862
:1030F0000C246FEA42426FEA524292B2A3F80C24C7
:103100002A6813889BB223F4804323F0700383F46E
:10311000405343F4004343F0800313808CE703885B
:103120009BB223F4E14323F070036FEA43436FEA59
:1031300053439BB203802A68B2F850309BB295F893
:10314000281003EBC103023302EB4303B3F800344E
:10315000C3F309036B64EA6B1344EB630021284655
:1031600006F016F895F82430002B3FF465AF2B6C71
:10317000002B7FF461AF95F824302A6843F0800378
:10318000A2F84C30002385F8243055E7B0F85030D1
:103190009BB295F8682103EBC203063300EB4303AF
:1031A000B3F80034C3F30903C5F88431B5F86E21D0
:1031B00005F52C7102F0A3FC2A68138823F0700334
:1031C0001B051B0D43F080031380284605F0CCFF40
:1031D00032E73E2A09D8510812F0010F00D0013120
:1031E0008A0292B2A3F80C248AE7510912F01F0F49
:1031F00000D101396FEAC1626FEA524292B2A3F87C
:103200000C247DE730F824309EB213F4004F4FD1E8
:1032100016F0800F3FF410AF621C02EB820105EB49
:10322000C101286830F824309BB223F4E14323F035
:1032300070036FEA43436FEA53439BB220F8243094
:10324000CB78032B07D033B1022B40F0068116F464
:10325000807F40F002812868B0F850309BB2621C39
:1032600002EB820215F8326003EBC603023300EB77
:103270004303B3F80034C3F3090304EB840205EB02
:10328000C202126C9A4240F2D48004EB840705EB30
:10329000C707D21A3A6404EB840205EBC202126C2F
:1032A000002A40F0CD803146284605F071FFC3E684
:1032B00030F8243023F070031B051B0D43F080030E
:1032C00020F8243004EB8401C90001F5B47105EB4A
:1032D000010804EB840305EBC30393F87431002B5E
:1032E00042D12868B0F850309BB204EB840205EB61
:1032F000C20292F8682103EBC203063300EB4303DA
:10330000B3F80074C7F3090717BB04EB840305EB9C
:10331000C303D3F884213A44C3F88421D3F87C2131
:103320003A44C3F87C21D3F880313BB104EB8403E9
:1033300005EBC303D3F878319F4275D204EB8403C5
:1033400005EBC30393F86811284605F015FF5FE706
:1033500004EB840105EBC1013B46B1F86E21D1F8C5
:103360007C1102F0CCFBD0E704EB840305EBC30334
:1033700093F86B31022B35D0296804EB840205EBFE
:10338000C20292F8680131F820309BB223F4E04386
:1033900023F0700343F4004343F0C00321F82030CE
:1033A000286892F8682130F8223013F4804F20D03A
:1033B000B0F850309BB203EBC203023300EB43037F
:1033C000B3F80074C7F30907002F9ED004EB840103
:1033D00005EBC1013B46B1F87021D1F87C1102F038
:1033E0008EFB92E7324641462846FFF7DFFA074652
:1033F0008BE7B0F850309BB203EBC203063300EB0F
:103400004303B3F80074C7F30907002F3FF47DAFFF
:1034100004EB840105EBC1013B46B1F87221D1F800
:103420007C1102F06CFB70E74146286801F00EFF4A
:10343000EEE604EB840205EBC202002717642AE7DC
:1034400004EB840205EBC202D66B1E44D663546CB7
:103450002344536401F0FAFEEEE532462846FFF7B6
:10346000D8FBE9E50020BDE8F08190F8A832012BF7
:103470000DD010B50446012380F8A83280F824103E
:10348000006801F0BFFE002084F8A80210BD0220F1
:10349000704710B584B00446006801F0BDFE10F41A
:1034A000004F47D1206801F0B7FE10F4806F45D17E
:1034B000206801F0B1FE10F4804F08D02268B2F805
:1034C00044309BB223F480439BB2A2F8443020687E
:1034D00001F0A2FE10F4005F08D02268B2F8443078
:1034E0009BB223F400539BB2A2F84430206801F051
:1034F00093FE10F4805F32D1206801F08DFE10F44D
:10350000006F78D1206801F087FE10F4007F40F052
:103510009D80206801F080FE10F4807F08D0226832
:10352000B2F844309BB223F480739BB2A2F84430CB
:1035300004B010BD2046FFF77CFDB3E72268B2F867
:1035400044309BB223F480639BB2A2F844302046FF
:1035500005F02FFE00212046FFF787FFA8E722682D
:10356000B2F840309BB223F004039BB2A2F8403083
:103570002268B2F840309BB223F008039BB2A2F855
:103580004030204605F038FE2268B2F844309BB245
:1035900023F480539BB2A2F84430ADE7226832F89E
:1035A000231004AA02EB430222F8101C0133DBB201
:1035B000072BF3D92268B2F840309BB243F00103E5
:1035C000A2F840302268B2F840309BB223F00103E9
:1035D0009BB2A2F840302368B3F8442012F4806F05
:1035E000F9D0B3F8442092B222F4806292B2A3F8E8
:1035F000442000230BE00023DAE7226804A901EB52
:10360000430131F8101C22F823100133DBB2072BE1
:10361000F3D92268B2F840309BB243F00803A2F815
:1036200040302268B2F844309BB223F400639BB26E
:10363000A2F844302268B2F840309BB243F0040351
:10364000A2F84030204605F0C7FD5BE72268B2F8DB
:1036500044309BB223F400739BB2A2F8443020465E
:1036600005F0A1FD55E710B504468C4611F0800F1A
:103670002AD101F0070000EB8001C90001F5B47EFA
:1036800004EB0E0100EB800004EBC0004FF0000ED5
:1036900080F869E10CF0070C81F800C00A61CB707A
:1036A0004A780AB1A1F80EC0022B19D094F8A832BA
:1036B000012B18D0012384F8A832206801F085FA84
:1036C000002084F8A80210BD01F00700013000EBD3
:1036D000800104EBC1014FF0010E81F801E0D9E750
:1036E00000230B71E2E70220EDE710B504460B461C
:1036F00011F0800F1FD101F0070202EB8201C90017
:1037000001F5B471014402EB820200EBC202002019
:1037100082F8690103F007030B7094F8A832012BBB
:1037200013D0012384F8A832206801F00AFC00209D
:1037300084F8A80210BD01F00702013202EB8201F9
:1037400000EBC10101204870E4E70220F2E710B568
:1037500001F0070404EB8401C90001F5B4710144D0
:1037600004EB840C00EBCC0CCCF87C21CCF8803141
:103770000023CCF884318CF869318CF8684124B985
:10378000006801F063FD002010BD006801F05EFDDF
:10379000F9E701F0070101EB810100EBC101D1F86C
:1037A0008401704710B501F0070404F1010C0CEB23
:1037B0008C0100EBC10104EB840E00EBCE0ECEF8C1
:1037C0003C20CEF8403001228EF84C20CEF8483014
:1037D0000023CEF844304A700CEB8C0C00F83C40CF
:1037E00024B9006801F032FD002010BD006801F02E
:1037F0002DFDF9E738B501F007054268954231D84B
:1038000004460B4611F0800F1ED101EB8101C90067
:1038100001F5B471014403EB830300EBC303002201
:1038200083F8692101238B700D7094F8A832012B65
:103830001AD0012384F8A832206801F06DFC5DB134
:10384000002084F8A80238BD6B1C03EB830100EB59
:10385000C10101224A70E5E704F52C71206801F0EE
:10386000DFFCEDE70120EEE70220ECE70B4601F07C
:103870000F014268914230D810B5044613F0800F12
:1038800021D103F0070202EB8201C90001F5B471F6
:10389000014402EB820200EBC202002082F86901BF
:1038A00000228A7003F007030B7094F8A832012BF2
:1038B00015D0012384F8A832206801F052FC0020C2
:1038C00084F8A80210BD03F00702013202EB820166
:1038D00000EBC10101204870E2E70120704702209F
:1038E000F0E790F8A832012B14D010B5044601235C
:1038F00080F8A83211F0800F06D1006801F063F95A
:10390000002084F8A80210BD01F00701006801F052
:1039100058F9F5E70220704711F0800F0BD001F045
:103920000701013101EB810100EBC10152B90A73BA
:10393000CB800020704701EB8101C90001F5B47113
:103940000144F3E701220A730B811B0C4B81F0E762
:1039500082B0084B1B68084AA2FB03235B0A00FBEA
:1039600003F3019300BF019B5A1E0192002BF9D172
:1039700002B0704700000020D34D6210002800F014
:10398000F18170B582B00446036813F0010F2CD0AA
:10399000994B5B6803F00C03042B1DD0964B5B68BE
:1039A00003F00C03082B12D06368B3F5803F41D0BD
:1039B000002B55D103F1804303F504331A6822F438
:1039C00080321A601A6822F480221A6037E08A4B2B
:1039D0005B6813F4803FE7D0874B1B6813F4003F0C
:1039E00003D06368002B00F0BF81236813F0020F3F
:1039F00075D0814B5B6813F00C0F5FD07E4B5B681A
:103A000003F00C03082B54D02369002B00F08A80AC
:103A10007A4B01221A60FEF725F80546764B1B68A3
:103A200013F0020F75D1FEF71DF8401B0228F5D9DF
:103A300003209EE1704A136843F480331360636887
:103A400043B3FEF70FF805466B4B1B6813F4003FBA
:103A5000CBD1FEF707F8401B6428F5D9032088E195
:103A6000B3F5A02F09D0644B1A6822F480321A6093
:103A70001A6822F480221A60E1E703F18043A3F57B
:103A80003C331A6842F480221A601A6842F4803289
:103A90001A60D4E7FDF7E6FF0546574B1B6813F4A1
:103AA000003FA2D0FDF7DEFF401B6428F5D90320BC
:103AB0005FE1514B5B6813F4803FA5D14E4B1B680F
:103AC00013F0020F03D02369012B40F04F814A4AC3
:103AD000136823F0F803616943EAC10313602368A4
:103AE00013F0080F33D0A369002B5CD0434B0122A5
:103AF000C3F88024FDF7B6FF05463F4B5B6A13F021
:103B0000020F21D1FDF7AEFF401B0228F5D903209B
:103B10002FE1394A136823F0F803616943EAC103CE
:103B20001360DCE7354B00221A60FDF79BFF05466A
:103B3000314B1B6813F0020FD1D0FDF793FF401BF0
:103B40000228F5D9032014E10120FFF701FF2368C3
:103B500013F0040F00F09680274BDB6913F0805FB1
:103B600034D1254BDA6942F08052DA61DB6903F027
:103B700080530193019B0125214B1B6813F4807F27
:103B800026D0E368012B3DD0002B53D103F18043B5
:103B900003F504331A6A22F001021A621A6A22F04B
:103BA00004021A6233E0154B0022C3F88024FDF7AB
:103BB00059FF0546104B5B6A13F0020FC7D0FDF7A3
:103BC00051FF401B0228F5D90320D2E00025D3E79E
:103BD0000B4A136843F480731360FDF743FF0646F6
:103BE000074B1B6813F4807FCBD1FDF73BFF801B95
:103BF0006428F5D90320BCE00010024000004242D6
:103C0000007000405F4A136A43F001031362E368E7
:103C100033B3FDF727FF06465A4B1B6A13F0020F1A
:103C20002FD1FDF71FFF801B41F288339842F3D953
:103C300003209EE0052B09D0524B1A6A22F00102A4
:103C40001A621A6A22F004021A62E0E74D4B1A6AFD
:103C500042F004021A621A6A42F001021A62D6E7BE
:103C6000FDF700FF0646474B1B6A13F0020F08D012
:103C7000FDF7F8FE801B41F288339842F3D9032008
:103C800077E0E5B9E369002B72D03E4A526802F052
:103C90000C02082A56D0022B17D03B4B00221A6682
:103CA000FDF7E0FE0446374B1B6813F0007F47D05A
:103CB000FDF7D8FE001B0228F5D9032059E0314A50
:103CC000D36923F08053D361DCE72F4B00221A66BF
:103CD000FDF7C8FE05462B4B1B6813F0007F06D08E
:103CE000FDF7C0FE401B0228F5D9032041E0236AFE
:103CF000B3F5803F1AD023494B6823F47413226A2A
:103D0000606A024313434B601F4B01221A66FDF7A2
:103D1000A9FE04461B4B1B6813F0007F0ED1FDF774
:103D2000A1FE001B0228F5D9032022E0154A5368A2
:103D300023F40033A1680B435360DCE7002018E054
:103D4000002016E0012B16D00E4B5B6803F4803187
:103D5000226A914211D103F47013626A93420ED128
:103D6000002006E001207047012002E0012000E071
:103D7000002002B070BD0120FBE70120F9E701201F
:103D8000F7E700BF001002400000424286B0174B28
:103D90000FCB0DF1180C0CE90F0040F20123ADF828
:103DA0000430134B5B6803F00C02082A02D0114860
:103DB00006B07047C3F3834218326A4412F8100CFD
:103DC00013F4803F0DD00A4B5B68C3F340431833B4
:103DD0006B4413F8143C074A02FB00F0B0FBF3F00D
:103DE000E6E7054B03FB00F0E2E700BF0CF9000833
:103DF0000010024000127A0000093D00002800F087
:103E0000A08070B50D460446524B1B6803F00703B3
:103E10008B420BD24F4A136823F007030B43136006
:103E2000136803F007038B4240F08D80236813F082
:103E3000020F17D013F0040F04D0474A536843F41D
:103E4000E0635360236813F0080F04D0424A5368BC
:103E500043F460535360404A536823F0F003A16871
:103E60000B435360236813F0010F31D06368012BBB
:103E700020D0022B25D0384A126812F0020F64D0ED
:103E800035494A6822F0030213434B60FDF7EAFD0F
:103E90000646314B5B6803F00C036268B3EB820F9C
:103EA00016D0FDF7DFFD801B41F288339842F0D930
:103EB000032045E0284A126812F4003FE0D10120B7
:103EC0003EE0254A126812F0007FD9D1012037E088
:103ED000204B1B6803F00703AB420AD91D4A136845
:103EE00023F007032B431360136803F00703AB426F
:103EF0002DD1236813F0040F06D0174A536823F41A
:103F0000E063E1680B435360236813F0080F07D0A8
:103F1000114A536823F46053216943EAC103536093
:103F2000FFF734FF0C4B5B68C3F303130B4AD35CFE
:103F3000D8400B4B18600B4B1868FDF74FFD002065
:103F400070BD012070470120FAE70120F8E7012049
:103F5000F6E700BF0020024000100240F4F800081D
:103F60000000002008000020014B1868704700BFC7
:103F70000000002008B5FFF7F7FF044B5B68C3F3B0
:103F80000223034AD35CD84008BD00BF00100240A2
:103F900004F9000808B5FFF7E7FF044B5B68C3F3BB
:103FA000C223034AD35CD84008BD00BF00100240C2
:103FB00004F9000870B582B00446036813F0010FDD
:103FC00036D03F4BDB6913F0805F49D13C4BDA6957
:103FD00042F08052DA61DB6903F080530193019B68
:103FE0000125384B1B6813F4807F3BD0344B1B6A90
:103FF00013F4407313D0626802F440729A420ED0F8
:104000002F4A136A23F440702F490126C1F84064F7
:104010000026C1F84064106213F0010F36D1284A1F
:10402000136A23F4407361680B431362002D3ED181
:10403000236813F0020F06D0214A536823F440434B
:10404000A1680B435360236813F0100F34D01C4A4F
:10405000536823F48003E1680B43536000202CE095
:104060000025BEE7174A136843F480731360FDF719
:10407000F9FC0646134B1B6813F4807FB6D1FDF79D
:10408000F1FC801B6428F5D9032016E0FDF7EAFC5B
:1040900006460B4B1B6A13F0020FC0D1FDF7E2FC82
:1040A000801B41F288339842F3D9032005E0D3699D
:1040B00023F08053D361BBE7002002B070BD00BF86
:1040C0000010024000700040000042422DE9F0471D
:1040D00082B00546884617461E46FDF7C3FC0A9B7C
:1040E0001B1A03EB0609FDF7BDFC82462B4B1B6830
:1040F000C3F3CB3309FB03F301932B689C6838EAC5
:1041000004030CBF4FF0010C4FF0000CBC4540D035
:10411000B6F1FF3FF1D0FDF7A5FCA0EB0A00484542
:104120000AD2B9F1000F07D0019A02B14A46019BA9
:10413000013B01939146E0E72A68536823F0E003CE
:1041400053606B68B3F5827F0BD0AB6AB3F5005F49
:1041500014D0012385F85130002385F85030032016
:1041600018E0AB68B3F5004F02D0B3F5806FECD127
:104170002A68136823F040031360E6E72A6813688F
:1041800023F4005313602A68136843F40053136048
:10419000DFE7002002B0BDE8F08700BF000000208C
:1041A00010B582B004460B46009200228021FFF732
:1041B0008DFF08B902B010BD636D43F02003636545
:1041C0000320F7E7002856D010B50446436A33B9F8
:1041D0004368B3F5827F05D00023C36102E000236A
:1041E000036143610023A36294F85130002B3CD05B
:1041F000022384F851302268136823F040031360CF
:10420000636803F48273A26802F404421343E26811
:1042100002F400621343226902F00202134362694E
:1042200002F001021343A26902F400721343E2692F
:1042300002F038021343226A02F080021343A26A9A
:1042400002F40052216813430B60638B226803F071
:10425000040353602268D36923F40063D361002010
:104260006065012384F8513010BD84F85030204639
:10427000FDF75AFABCE7012070472DE9F04383B0FF
:104280001F460A9D90F85030012B00F01081044623
:1042900088469146012380F85030FDF7E3FB06463F
:1042A00094F85130DBB26268012B0AD0B2F5827FFC
:1042B00040F0E380A268002A40F0E980042B40F03F
:1042C000E880B8F1000F00F0E680B9F1000F00F0CF
:1042D000E480002F00F0E38094F85130DBB2042B2F
:1042E00002D0052384F8513000236365C4F8389068
:1042F000E787A787C4F83080E786A78623646364CE
:1043000023681A6812F0400F03D11A6842F0400285
:104310001A60E368B3F5006F11D063680BB1012F29
:104320000BD1226B236812781A73236B013323633A
:10433000E38E9BB2013B9BB2E38601276BE063688F
:104340000BB1012F0BD1226B23681288DA60236B2B
:1043500002332363E38E9BB2013B9BB2E3860127CA
:104360001CE023689A6812F0010F0ED0E28F92B21F
:104370005AB1DA68A36B1A80A36B0233A363E38F8D
:104380009BB2013B9BB2E3870127FDF76BFB801BD0
:10439000A84203D3B5F1FF3F40F08380E38E9BB288
:1043A0001BB9E38F9BB2002B53D023689A6812F09D
:1043B000020FD6D0E28E92B2002AD2D0002FD0D0F7
:1043C000226B1288DA60236B02332363E38E9BB285
:1043D000013B9BB2E3860027C3E723689A6812F08B
:1043E000010F0ED0E28F92B25AB1DA68A36B1A7045
:1043F000A36B0133A363E38F9BB2013B9BB2E387C3
:104400000127FDF72FFB831BAB4202D3B5F1FF3F22
:1044100049D1002D49D0E38E9BB213B9E38F9BB2F3
:10442000BBB123689A6812F0020FD6D0E28E92B226
:10443000002AD2D0002FD0D0226B12781A73236BAF
:1044400001332363E38E9BB2013B9BB2E3860027DB
:10445000C3E7324629462046FFF7A2FE48B9A368C3
:1044600063B901932368DA6801929B680193019B09
:1044700004E020236365012000E00220012384F88A
:104480005130002384F8503003B0BDE8F08302209F
:10449000F4E70220F2E70120F0E70120EEE7012037
:1044A000ECE70320EAE70320E8E70320E6E7022041
:1044B000EAE70268D36823F49073D3600268536913
:1044C00023F001035361036B012B05D0202380F8F7
:1044D0003E300023036370470268D36823F0100363
:1044E000D360F3E790F83D30DBB2212B01D00220FE
:1044F00070478368B3F5805F17D0036A5A1C026265
:104500001A7803685A60C38C9BB2013B9BB2C38488
:104510004BB90268D36823F08003D3600268D36884
:1045200043F04003D360002070470369002BE4D1BF
:10453000036A1B880268C3F308035360036A0233EB
:104540000362E0E710B504460268136923F44053A0
:10455000C1680B43136183680269134342691A43BC
:104560000168CB6823F4B05323F00C031343CB60F2
:104570000268536923F4407381690B4353610268F5
:10458000134B9A4220D0FFF7F5FC024602EB820261
:1045900002EB820263689B00B2FBF3F20D48A0FBC2
:1045A00002314909642303FB11231B013233A0FBB1
:1045B00003235B0903F0F00202EB011203F00F0387
:1045C000216813448B6010BDFFF7E4FC0246DDE771
:1045D000003801401F85EB512DE9F84305460F4691
:1045E00016469946DDF820802C68246837EA0403D3
:1045F0000CBF4FF0010C4FF0000CB4451FD1B8F1C7
:10460000FF3FF1D0B8F1000F05D0FDF72BFAA0EB7A
:1046100009004045E8D92A68D36823F4D073D360F1
:104620002A68536923F001035361202385F83D3044
:1046300085F83E30002385F83C30032000E0002060
:10464000BDE8F88358B310B5044690F83D300BB37D
:10465000242384F83D302268D36823F40053D360C8
:104660002046FFF76FFF2268136923F4904313611C
:104670002268536923F02A0353612268D36843F404
:104680000053D36000202064202384F83D3084F858
:104690003E3010BD80F83C30FDF780F8D8E70120AF
:1046A00070472DE9F04182B01E4690F83D30DBB2F4
:1046B000202B54D104460D469046002953D0002AA1
:1046C00053D090F83C30012B51D0012380F83C307E
:1046D00000230364212380F83D30FDF7C3F907462A
:1046E000A4F82480A4F82680A368B3F5805F05D0E1
:1046F0004FF00008002384F83C3012E0236913B126
:104700004FF00008F6E7A8460025F3E738F8023B2B
:104710002268C3F308035360E28C92B2013A92B26A
:10472000E284E38C9BB273B100963B460022802169
:104730002046FFF751FFE0B9002DE7D015F8012B17
:1047400023685A60E8E700963B4600224021204655
:10475000FFF742FF78B9202384F83D3000E00220C3
:1047600002B0BDE8F0810120FAE70120F8E702205D
:10477000F6E70320F4E70320F2E72DE9F04182B0E9
:104780001E4690F83E30DBB2202B5CD104460D462D
:10479000904600295BD0002A5BD090F83C30012B7A
:1047A00059D0012380F83C3000230364222280F892
:1047B0003E200363FDF756F90746A4F82C80A4F8C1
:1047C0002E80A368B3F5805F05D04FF0000800236A
:1047D00084F83C3017E0236913B14FF00008F6E786
:1047E000A8460025F3E723685B68C3F3080328F8AD
:1047F000023B03E023685B682B700135E28D92B2C7
:10480000013A92B2E285E38D9BB2BBB100963B4682
:10481000002220212046FFF7DFFEF0B9002DE2D074
:10482000A368B3F5805FE5D013B92369002BE1D00D
:1048300023685B6803F07F032B70DEE7202384F896
:104840003E30002000E0022002B0BDE8F0810120EF
:10485000FAE70120F8E70220F6E70320F4E77047C3
:1048600008B50168CA6822F04002CA60202280F8B8
:104870003D20FFF7F4FF002008BD7047704708B5E2
:10488000406A0023C385C384FFF7F8FF08BD704763
:1048900090F83E30DBB2222B60D18368B3F5805FA5
:1048A00046D0826AB3F5805F04D0002B4DD10369F6
:1048B000002B4AD103685B681370836A01338362FB
:1048C000C38D9BB2013B9BB2C385002B48D100B581
:1048D00083B00268D36823F02003D3600268D368F2
:1048E00023F48073D3600268536923F0010353619A
:1048F000202380F83E30036B012B2CD1002303636F
:104900000268D36823F01003D36003681A6812F0BA
:10491000100F06D0002201921A6801925B68019381
:10492000019B818DFFF7B3FF002003B05DF804FB0E
:104930000269002AB5D1826A03685B68C3F3080381
:104940001380836A02338362BAE703685B6803F00B
:104950007F031370B1E7FFF790FFE5E70220704790
:104960000020704730B583B0044602681368D068F1
:10497000516913F00F0505D113F0200F02D010F08C
:10498000200F19D12DB111F0010119D110F4907F30
:1049900016D1216B012975D013F0800F03D010F0D0
:1049A000800F40F0D78013F0400F03D010F0400F7D
:1049B00040F0D48003B030BD2046FFF769FFF9E72F
:1049C00013F0010F06D010F4807F03D0226C42F068
:1049D0000102226413F0040F04D019B1226C42F0DA
:1049E0000202226413F0020F04D019B1226C42F0CB
:1049F0000402226413F0080F07D010F0200F00D13A
:104A000019B1226C42F008022264226C002AD1D033
:104A100013F0200F02D010F0200F21D123685B6922
:104A200003F04003226C12F0080F00D123B320469C
:104A3000FFF73FFD23685A6912F0400F18D05A69FA
:104A400022F040025A61A36B73B1464A5A63A06BCD
:104A5000FDF7B0F80028ADD0A06B436B9847A9E7ED
:104A60002046FFF715FFD9E72046FFF707FFA1E72C
:104A70002046FFF703FF9DE72046FFF7FFFE0023D8
:104A8000236497E713F0100F86D010F0100F83D037
:104A9000002301931368019353680193019B5369A9
:104AA00013F0400F32D0A16B0B685B689BB2002BF8
:104AB00080D0A08D98427FF67DAFE3858B69202B57
:104AC00008D1A18DE38D9BB2C91A89B22046FFF7A8
:104AD000DEFE6FE7D36823F48073D36022685369E6
:104AE00023F0010353612268536923F040035361AB
:104AF000202384F83E30002323632268D36823F008
:104B00001003D360A06BFDF733F8DAE7A18DE38DD6
:104B10009BB2C91A89B2E38D9BB2002B3FF44AAF16
:104B200000293FF447AFD36823F49073D360226821
:104B3000536923F001035361202384F83E3000239E
:104B400023632268D36823F01003D3602046FFF765
:104B50009EFE2FE72046FFF7C5FC2BE72046FFF718
:104B60007FFE27E77F48000884B001A880E80E0098
:104B7000002004B0704703460020A3F844004FF41F
:104B80003F42A3F840207047B0F8403023F47C53F4
:104B90005B045B0CA0F84030002070470020704799
:104BA00084B0844601A880E80E000123ACF84030B0
:104BB0000020ACF84000ACF84400ACF8500004B061
:104BC0007047002070470020704710B5034691F8E9
:104BD00000C030F82C2092B222F4EC4222F0700295
:104BE00092B2C878032861D8DFE800F0555C02581B
:104BF000002048F2800E42EA0E0223F82C2091F8A1
:104C000000C033F82C2092B222F4E04222F070026D
:104C10004CEA020242EA0E0223F82C200A7B002A08
:104C200040F0C4804A78002A51D0B3F8502092B2A4
:104C30001A440C7802EB0412B1F806C04FEA5C0C7F
:104C40004FEA4C0CA2F800C40C7833F8242012F080
:104C5000400F0CD033F8242092B222F4E04222F02C
:104C6000700242F4004242F0C00223F82420CA78C5
:104C7000012A1DD0097833F8212092B222F4E042B3
:104C800022F0400282F0200242F4004242F0800210
:104C900023F821206AE042F40072AAE742F4C062DD
:104CA0000020A6E742F480620020A2E70120A0E7EE
:104CB000097833F8212092B222F4E04222F0400237
:104CC00042F4004242F0800223F821204EE0B3F883
:104CD000502092B21A440C7802EB0412B1F806C0CC
:104CE0004FEA5C0C4FEA4C0CA2F808C4B3F8502011
:104CF00092B21A440C7802EB04120C69BCBBB2F8F5
:104D00000CC41FFA8CFC2CF4F84C1FFA8CFCA2F893
:104D10000CC4B2F80CC46FEA4C4C6FEA5C4C1FFA3E
:104D20008CFCA2F80CC40C7833F8242012F4804FC9
:104D30000CD033F8242092B222F4E04222F0700228
:104D400042F4404242F0800223F82420097833F8EC
:104D5000212092B222F4804222F0700282F440526A
:104D600042F4004242F0800223F8212010BD3E2C84
:104D70000DD84FEA540C14F0010F01D00CF1010CC6
:104D80004FEA8C2C1FFA8CFCA2F80CC4CBE74FEA3C
:104D9000541C14F01F0F01D10CF1FF3C6FEACC64DE
:104DA0006FEA5444A4B2A2F80C44BCE791F800C0E6
:104DB00033F82C2092B222F4E04222F0700242F446
:104DC000014242F0800223F82C20B3F8502092B226
:104DD0001A4491F800C002EB0C12B1F808C04FEA77
:104DE0005C0C4FEA4C0CA2F800C4B3F8502092B20D
:104DF0001A4491F800C002EB0C12B1F80AC04FEA55
:104E00005C0C4FEA4C0CA2F808C44A78002A41D145
:104E10000C7833F8242012F4804F0CD033F824207F
:104E200092B222F4E04222F0700242F4404242F098
:104E3000800223F824200C7833F8242012F0400F4D
:104E40000CD033F8242092B222F4E04222F0700217
:104E500042F4004242F0C00223F8242091F800C03E
:104E600033F82C2092B222F4804222F0700282F4B5
:104E7000405248F28004224323F82C20097833F86A
:104E8000212092B222F4E04222F04002224323F891
:104E900021206BE70C7833F8242012F4804F0CD0DB
:104EA00033F8242092B222F4E04222F0700242F45D
:104EB000404242F0800223F824200C7833F824206A
:104EC00012F0400F0CD033F8242092B222F4E042CA
:104ED00022F0700242F4004242F0C00223F8242083
:104EE000CA78012A1ED00C7833F8242092B222F41A
:104EF000E04222F0400282F0200242F4004242F0FE
:104F0000800223F82420097833F8212092B222F479
:104F1000804222F0700242F4004242F0800223F804
:104F2000212023E70C7833F8242092B222F4E042C7
:104F300022F0400242F4004242F0800223F8242092
:104F4000E1E70B7B002B46D14B7813B30A7830F89E
:104F5000223013F0400F0CD030F822309BB223F4F3
:104F6000E04323F0700343F4004343F0C00320F810
:104F700022300A7830F822309BB223F4E04323F049
:104F8000400343F4004343F0800320F82230002024
:104F900070470A7830F8223013F4804F0CD030F884
:104FA00022309BB223F4E04323F0700343F44043E8
:104FB00043F0800320F822300A7830F822309BB288
:104FC00023F4804323F0700343F4004343F0800351
:104FD00020F82230DBE74B78002B4ED10A7830F8EE
:104FE000223013F4804F0CD030F822309BB223F4DF
:104FF000E04323F0700343F4404343F0800320F880
:1050000022300A7830F8223013F0400F0CD030F8FC
:1050100022309BB223F4E04323F0700343F40043B7
:1050200043F0C00320F822300A7830F822309BB2D7
:1050300023F4E04323F0700343F4004343F0C00340
:1050400020F822300B7830F8232092B222F48042EC
:1050500022F0700248F2800C42EA0C0220F8232071
:105060000A7830F822309BB223F4E04323F0400367
:1050700043EA0C0320F8223089E70A7830F822301E
:1050800013F4804F0CD030F822309BB223F4E0436D
:1050900023F0700343F4404343F0800320F82230B0
:1050A0000A7830F8223013F0400F0CD030F822305C
:1050B0009BB223F4E04323F0700343F4004343F036
:1050C000C00320F822300A7830F822309BB223F453
:1050D000E04323F0700343F4404343F0800320F89F
:1050E00022300B7830F8232092B222F4E04222F0F2
:1050F000400248F2800C42EA0C0220F823200A7891
:1051000030F822309BB223F4804323F0700343EA4B
:105110000C0320F822303AE74B788BB10A7830F84C
:1051200022309BB223F4E04323F0400383F01003CA
:1051300043F4004343F0800320F8223000207047FE
:105140000A7830F822309BB223F4804323F07003B6
:1051500083F4805343F4004343F0800320F822306B
:10516000ECE70B7B002B4BD14B7833B30A7830F84C
:10517000223013F0400F0CD030F822309BB223F4D1
:10518000E04323F0700343F4004343F0C00320F8EE
:105190002230CB78012B33D00A7830F822309BB202
:1051A00023F4E04323F0400383F0200343F400435F
:1051B00043F0800320F8223022E00A7830F82230D1
:1051C00013F4804F0CD030F822309BB223F4E0432C
:1051D00023F0700343F4404343F0800320F822306F
:1051E0000A7830F822309BB223F4804323F0700316
:1051F00083F4405343F4004343F0800320F822300B
:105200000020704711B98023A0F84C30002070476F
:105210000020704700207047B0F8440080B270470B
:105220000020704710B45C1C640800EB420202F5D9
:10523000806207E00B78487843EA002322F8043BB9
:105240000231013C002CF5D110BC704770B5054609
:105250000C464B78012B37D00A7B002A40F026837E
:105260008B690A69934240F204839B1A8B61B5F8FB
:1052700050309BB22B44217803EB0113002A40F0FD
:10528000FC82B3F80C2492B222F4F84292B2A3F852
:105290000C24B3F80C246FEA42426FEA524292B2F5
:1052A000A3F80C24227835F822309BB223F48043F3
:1052B00023F0700383F4405343F4004343F080032E
:1052C00025F82230002070BD8E690A69964200D907
:1052D0001646237B002B39D0E378022B58D0227856
:1052E00035F822309BB223F4E04323F0700343F4FB
:1052F000014343F0800325F82230236A9B1B23627D
:10530000237835F8232012F0400F00F026826278CF
:10531000002A40F0CA81B5F8502092B22A4402EB2C
:105320000313002E40F0A881B3F80C2492B222F4AB
:10533000F84292B2A3F80C24B3F80C246FEA42426C
:105340006FEA524292B2A3F80C24B0E1B6B23346EF
:10535000E28861692846FFF765FFB5F850309BB2D7
:105360002B44227803EB0213A3F80464227835F867
:1053700022309BB223F4E04323F0400383F0300358
:1053800043F4004343F0800325F8223000209AE7DD
:10539000236A9A4280F05281227835F822309BB2FB
:1053A00023F4E04323F0700343F4014343F080030C
:1053B00025F82230236A9B1B2362237835F82320AB
:1053C00012F0400F00F09D8062788ABBB5F8502043
:1053D00092B22A4402EB03138EB9B3F80C2492B2B2
:1053E00022F4F84292B2A3F80C24B3F80C246FEA2A
:1053F00042426FEA524292B2A3F80C241AE03E2EC7
:1054000009D8720816F0010F00D00132920292B250
:10541000A3F80C240EE0720916F01F0F00D1013A18
:105420006FEAC2626FEA524292B2A3F80C2401E022
:10543000012A2BD0B3B2628961692846FFF7F2FED8
:10544000636933446361236A2269934228D99B1BB1
:1054500023626378002B40D1B5F850309BB22B44C7
:10546000227803EB0213FEB9B3F8042492B222F4BB
:10547000F84292B2A3F80424B3F804246FEA42423B
:105480006FEA524292B2A3F8042428E0B5F8502003
:1054900092B22A4402EB0313B2B2A3F80C24C9E778
:1054A000002222621E46D4E73E2E09D8720816F06A
:1054B000010F00D00132920292B2A3F804240EE050
:1054C000720916F01F0F00D1013A6FEAC2626FEA4B
:1054D000524292B2A3F8042401E0012B06D0B3B2E9
:1054E000228961692846FFF79DFE3FE7B5F85030F5
:1054F0009BB22B44227803EB0213B2B2A3F804242C
:10550000EDE762788ABBB5F8502092B22A4402EBEC
:1055100003138EB9B3F8042492B222F4F84292B283
:10552000A3F80424B3F804246FEA42426FEA52421B
:1055300092B2A3F804241AE03E2E09D8720816F09D
:10554000010F00D00132920292B2A3F804240EE0BF
:10555000720916F01F0F00D1013A6FEAC2626FEABA
:10556000524292B2A3F8042401E0012A2BD0B3B234
:10557000228961692846FFF755FE636933446361F8
:10558000236A2269934228D99B1B23626378002BEC
:1055900040D1B5F850309BB22B44227803EB021374
:1055A000FEB9B3F80C2492B222F4F84292B2A3F8F6
:1055B0000C24B3F80C246FEA42426FEA524292B2D2
:1055C000A3F80C2428E0B5F8502092B22A4402EB4C
:1055D0000313B2B2A3F80424C9E7002222621E46D4
:1055E000D4E73E2E09D8720816F0010F00D0013220
:1055F000920292B2A3F80C240EE0720916F01F0F6B
:1056000000D1013A6FEAC2626FEA524292B2A3F845
:105610000C2401E0012B06D0B3B2628961692846EF
:10562000FFF700FEA2E6B5F850309BB22B4422787B
:1056300003EB0213B2B2A3F80C24EDE7217835F89E
:10564000212092B222F4E24222F0700242F400429F
:1056500042F0800225F82120B5F8502092B22A4469
:10566000217802EB01129BB2A2F80434228961690D
:105670002846FFF7D7FD79E63E2E09D8720816F0C6
:10568000010F00D00132920292B2A3F80C240EE076
:10569000720916F01F0F00D1013A6FEAC2626FEA79
:1056A000524292B2A3F80C2401E0012A26D0B3B2F0
:1056B000628961692846FFF7B5FD63693344636118
:1056C000236A2269934223D99B1B2362002E3FF455
:1056D0004DAE63786BBBB5F850309BB22B4422784B
:1056E00003EB02133E2E17D8720816F0010F00D0FC
:1056F0000132920292B2A3F804241CE0B5F85020C3
:1057000092B22A4402EB0313B2B2A3F80C24CEE700
:10571000002222621E46D9E7720916F01F0F00D13F
:10572000013A6FEAC2626FEA524292B2A3F80424CD
:1057300001E0012B06D0B3B2228961692846FFF748
:1057400071FD13E6B5F850309BB22B44227803EB81
:105750000213B2B2A3F80424EDE762788ABBB5F86D
:10576000502092B22A4402EB03138EB9B3F80424FA
:1057700092B222F4F84292B2A3F80424B3F80424BB
:105780006FEA42426FEA524292B2A3F804241AE04E
:105790003E2E09D8720816F0010F00D00132920295
:1057A00092B2A3F804240EE0720916F01F0F00D184
:1057B000013A6FEAC2626FEA524292B2A3F804243D
:1057C00001E0012A26D0B3B2228961692846FFF799
:1057D00029FD636933446361236A2269934223D9B3
:1057E0009B1B2362002E3FF4C1AD63786BBBB5F801
:1057F00050309BB22B44227803EB02133E2E17D875
:10580000720816F0010F00D00132920292B2A3F892
:105810000C241CE0B5F8502092B22A4402EB03138A
:10582000B2B2A3F80424CEE7002222621E46D9E7D2
:10583000720916F01F0F00D1013A6FEAC2626FEAD7
:10584000524292B2A3F80C2401E0012B06D0B3B26D
:10585000628961692846FFF7E5FC87E5B5F85030B5
:105860009BB22B44227803EB0213B2B2A3F80C24B0
:10587000EDE700228A611A46F9E43E2A09D8510868
:1058800012F0010F00D00131890289B2A3F80C1483
:1058900008E5510912F01F0F00D101396FEAC1610B
:1058A0006FEA514189B2A3F80C14FBE4CA78022ACA
:1058B00045D0012A40F0208189692269914240F255
:1058C000D480891AA161D3B9B5F850309BB22B446A
:1058D000217803EB0113002A40F0CB80B3F80414C5
:1058E00089B221F4F84189B2A3F80414B3F804147E
:1058F0006FEA41416FEA514189B2A3F80414637819
:10590000002B40F0EA80B5F850309BB22B44217850
:1059100003EB0113002A40F0C580B3F80C2492B2C7
:1059200022F4F84292B2A3F80C24B3F80C246FEAE4
:1059300042426FEA524292B2A3F80C24B2E4CBB9CD
:10594000B0F850309BB203440A7803EB02130A69A3
:1059500072BBB3F8042492B222F4F84292B2A3F8D4
:105960000424B3F804246FEA42426FEA524292B22E
:10597000A3F804246378002B4CD1B5F850309BB2C7
:105980002B44227803EB0213226952BBB3F80C2498
:1059900092B222F4F84292B2A3F80C24B3F80C2489
:1059A0006FEA42426FEA524292B2A3F80C2433E00B
:1059B0003E2A09D8510812F0010F00D001318A02A5
:1059C00092B2A3F80424D5E7510912F01F0F00D1B9
:1059D00001396FEAC1626FEA524292B2A3F804241D
:1059E000C8E73E2A09D8510812F0010F00D0013152
:1059F0008A0292B2A3F80C240EE0510912F01F0F94
:105A000000D101396FEAC1626FEA524292B2A3F843
:105A10000C2401E0012B1DD0E369002B3FF442ACC4
:105A2000227835F8221044F2400303EA01008B4348
:105A300002D000287FF436AC35F822309BB223F434
:105A4000E04323F0700343F4004343F0C00325F820
:105A5000223027E4B5F850309BB22B44227803EB78
:105A60000213228AA3F80C24D6E70022A2610A4678
:105A700029E73E2A09D8510812F0010F00D0013160
:105A8000890289B2A3F8041439E7510912F01F0FF3
:105A900000D101396FEAC1616FEA514189B2A3F8BF
:105AA00004142CE73E2A0AD8510812F0010F00D046
:105AB00001318A0292B2A3F80C24FFF7F3BB51091B
:105AC00012F01F0F00D101396FEAC1626FEA524232
:105AD00092B2A3F80C24FFF7E5BB012B7FF4E2ABF5
