:020000040800F2
:100000000050002015130008B5110008B7110008B2
:10001000B9110008BB110008BD1100080000000064
:10002000000000000000000000000000BF110008F8
:10003000C111000800000000C3110008C51100082C
:100040005D1300085D1300085D1300085D130008D0
:100050005D1300085D1300085D1300085D130008C0
:100060005D1300085D1300085D1300085D130008B0
:100070005D1300085D1300085D1300085D130008A0
:100080005D1300085D1300085D1300085D13000890
:10009000CD1100085D1300085D1300085D13000812
:1000A0005D1300085D1300085D1300085D13000870
:1000B0005D1300085D1300085D1300085D13000860
:1000C0005D1300085D1300085D1300085D13000850
:1000D0005D130008DD1100085D1300085D130008C2
:1000E0005D1300085D1300085D13000800000000A8
:1000F0000000000000000000000000000000000000
:0C01000000000000000000005FF808F1A3
:1001100010B5054C237833B9044B13B10448AFF341
:1001200000800123237010BD080B00200000000098
:10013000A4B5000808B5034B1BB103490348AFF34E
:10014000008008BD000000000C0B0020A4B50008D2
:10015000844641EA000313F0030349D1403A23D314
:100160000B6803604B6843608B688360CB68C36037
:100170000B6903614B6943618B698361CB69C3611F
:100180000B6A03624B6A43628B6A8362CB6AC36207
:100190000B6B03634B6B43638B6B8363CB6BC363EF
:1001A00040304031403ADBD230320BD30B68036031
:1001B0004B6843608B688360CB68C360103010313C
:1001C000103AF3D20C3205D351F8043B40F8043B0B
:1001D000043AF9D2043208D0D2071CBF11F8013B0F
:1001E00000F8013B01D30B8803806046704700BFD5
:1001F000082A13D38B07B1D010F00303AED0C3F19C
:100200000403D21ADB071CBF11F8013B00F8013BC5
:10021000A4D331F8023B20F8023B9FE7043AD9D33C
:10022000013A11F8013B00F8013BF9D20B78037059
:100230004B7843708B7883706046704781F0004143
:1002400002E000BF83F0004330B54FEA41044FEABB
:10025000430594EA050F08BF90EA020F1FBF54EA56
:10026000000C55EA020C7FEA645C7FEA655C00F0F2
:10027000E2804FEA5454D4EB5555B8BF6D420CDDC3
:100280002C4480EA020281EA030382EA000083EA46
:10029000010180EA020281EA0303362D88BF30BDE6
:1002A00011F0004F4FEA01314FF4801C4CEA11313C
:1002B00002D0404261EB410113F0004F4FEA03339B
:1002C0004CEA133302D0524263EB430394EA050F26
:1002D00000F0A780A4F10104D5F1200E0DDB02FA95
:1002E0000EFC22FA05F2801841F1000103FA0EF229
:1002F000801843FA05F359410EE0A5F120050EF1EF
:10030000200E012A03FA0EFC28BF4CF0020C43FA1F
:1003100005F3C01851EBE37101F0004507D54FF02C
:10032000000EDCF1000C7EEB00006EEB0101B1F57C
:10033000801F1BD3B1F5001F0CD349085FEA3000C2
:100340004FEA3C0C04F101044FEA445212F5800FCD
:1003500080F09A80BCF1004F08BF5FEA500C50F16A
:10036000000041EB045141EA050130BD5FEA4C0C4D
:10037000404141EB0101013C28BFB1F5801FE9D2AA
:1003800091F0000F04BF01460020B1FA81F308BFCD
:100390002033A3F10B03B3F120020CDA0C3208DD99
:1003A00002F1140CC2F10C0201FA0CF021FA02F174
:1003B0000CE002F11402D8BFC2F1200C01FA02F1E4
:1003C00020FA0CFCDCBF41EA0C019040E41AA2BF09
:1003D00001EB0451294330BD6FEA04041F3C1CDAD1
:1003E0000C340EDC04F11404C4F1200220FA04F0F1
:1003F00001FA02F340EA030021FA04F345EA03019B
:1004000030BDC4F10C04C4F1200220FA02F001FA5C
:1004100004F340EA0300294630BD21FA04F02946DE
:1004200030BD94F0000F83F4801306BF81F4801177
:100430000134013D4EE77FEA645C18BF7FEA655CEA
:1004400029D094EA050F08BF90EA020F05D054EABC
:10045000000C04BF1946104630BD91EA030F1EBFC1
:100460000021002030BD5FEA545C05D140004941C5
:1004700028BF41F0004130BD14F580043CBF01F5B8
:10048000801130BD01F0004545F0FE4141F470019E
:100490004FF0000030BD7FEA645C1ABF1946104679
:1004A0007FEA655C1CBF0B46024650EA013406BF7A
:1004B00052EA033591EA030F41F4002130BD00BF39
:1004C00090F0000F04BF0021704730B54FF48064F6
:1004D00004F132044FF000054FF0000150E700BF77
:1004E00090F0000F04BF0021704730B54FF48064D6
:1004F00004F1320410F0004548BF40424FF00001C3
:100500003EE700BF42004FEAE2014FEA31014FEA05
:1005100002701FBF12F07F4393F07F4F81F0605154
:10052000704732F07F4208BF704793F07F4F04BF9F
:1005300041F40021704730B54FF4607401F000457C
:1005400021F000411CE700BF50EA010208BF7047DC
:1005500030B54FF000050AE050EA010208BF7047CD
:1005600030B511F0004502D5404261EB41014FF436
:10057000806404F132045FEA915C3FF4D8AE4FF03E
:1005800003025FEADC0C18BF03325FEADC0C18BF21
:10059000033202EBDC02C2F1200300FA03FC20FA72
:1005A00002F001FA03FE40EA0E0021FA02F11444BF
:1005B000BDE600BF70B54FF0FF0C4CF4E06C1CEAD8
:1005C00011541DBF1CEA135594EA0C0F95EA0C0F49
:1005D00000F0DEF82C4481EA030621EA4C5123EABC
:1005E0004C5350EA013518BF52EA033541F48011EB
:1005F00043F4801338D0A0FB02CE4FF00005E1FB9E
:1006000002E506F00042E0FB03E54FF00006E1FBE7
:1006100003569CF0000F18BF4EF0010EA4F1FF042A
:10062000B6F5007F64F5407404D25FEA4E0E6D416A
:1006300046EB060642EAC62141EA55514FEAC5207B
:1006400040EA5E504FEACE2EB4F1FD0C88BFBCF5F7
:10065000E06F1ED8BEF1004F08BF5FEA500E50F1A8
:10066000000041EB045170BD06F0004646EA01016E
:1006700040EA020081EA0301B4EB5C04C2BFD4EBA0
:100680000C0541EA045170BD41F480114FF0000E99
:10069000013C00F3AB8014F1360FDEBF002001F007
:1006A000004170BDC4F10004203C35DA0C341BDC81
:1006B00004F11404C4F1200500FA05F320FA04F053
:1006C00001FA05F240EA020001F0004221F0004187
:1006D00010EBD37021FA04F642EB06015EEA430EFA
:1006E00008BF20EAD37070BDC4F10C04C4F120052A
:1006F00000FA04F320FA05F001FA04F240EA0200DD
:1007000001F0004110EBD37041F100015EEA430EAD
:1007100008BF20EAD37070BDC4F1200500FA05F2CD
:100720004EEA020E20FA04F301FA05F243EA02034C
:1007300021FA04F001F0004121FA04F220EA02005B
:1007400000EBD3705EEA430E08BF20EAD37070BDA1
:1007500094F0000F0FD101F00046400041EB010181
:1007600011F4801F08BF013CF7D041EA060195F063
:10077000000F18BF704703F00046520043EB03031D
:1007800013F4801F08BF013DF7D043EA060370470A
:1007900094EA0C0F0CEA135518BF95EA0C0F0CD015
:1007A00050EA410618BF52EA4306D1D181EA03015B
:1007B00001F000414FF0000070BD50EA410606BF55
:1007C0001046194652EA430619D094EA0C0F02D19A
:1007D00050EA013613D195EA0C0F05D152EA0336DF
:1007E0001CBF104619460AD181EA030101F00041FD
:1007F00041F0FE4141F470014FF0000070BD41F046
:10080000FE4141F4780170BD70B54FF0FF0C4CF41F
:10081000E06C1CEA11541DBF1CEA135594EA0C0F3E
:1008200095EA0C0F00F0A7F8A4EB050481EA030E8B
:1008300052EA03354FEA013100F088804FEA033372
:100840004FF0805545EA131343EA12634FEA022240
:1008500045EA111545EA10654FEA00260EF0004101
:100860009D4208BF964244F1FD0404F5407402D253
:100870005B084FEA3202B61A65EB03055B084FEAE4
:1008800032024FF480104FF4002CB6EB020E75EBE1
:10089000030E22BFB61A754640EA0C005B084FEA09
:1008A0003202B6EB020E75EB030E22BFB61A754686
:1008B00040EA5C005B084FEA3202B6EB020E75EBD1
:1008C000030E22BFB61A754640EA9C005B084FEA49
:1008D0003202B6EB020E75EB030E22BFB61A754656
:1008E00040EADC0055EA060E18D04FEA051545EA45
:1008F00016754FEA06164FEAC30343EA52734FEAEE
:10090000C2025FEA1C1CC0D111F4801F0BD141EA66
:1009100000014FF000004FF0004CB6E711F4801FCB
:1009200004BF01430020B4F1FD0C88BFBCF5E06FAB
:100930003FF6AFAEB5EB030C04BFB6EB020C5FEABB
:10094000500C50F1000041EB045170BD0EF0004E10
:100950004EEA113114EB5C04C2BFD4EB0C0541EA42
:10096000045170BD41F480114FF0000E013C90E63F
:1009700045EA060E8DE60CEA135594EA0C0F08BF03
:1009800095EA0C0F3FF43BAF94EA0C0F0AD150EA02
:1009900001347FF434AF95EA0C0F7FF425AF104695
:1009A00019462CE795EA0C0F06D152EA03353FF4BD
:1009B000FDAE1046194622E750EA410618BF52EA3A
:1009C00043067FF4C5AE50EA41047FF40DAF52EA0E
:1009D00043057FF4EBAE12E74FF0FF3C06E000BFAB
:1009E0004FF0010C02E000BF4FF0010C4DF804CDB8
:1009F0004FEA410C7FEA6C5C4FEA430C18BF7FEA78
:100A00006C5C1BD001B050EA410C0CBF52EA430CA5
:100A100091EA030F02BF90EA020F0020704710F125
:100A2000000F91EA030F58BF994208BF90422CBFB4
:100A3000D8176FEAE37040F0010070474FEA410CAD
:100A40007FEA6C5C02D150EA013C07D14FEA430CCB
:100A50007FEA6C5CD6D152EA033CD3D05DF8040B3C
:100A6000704700BF8446104662468C46194663466E
:100A700000E000BF01B5FFF7B7FF002848BF10F145
:100A8000000F01BD4DF808EDFFF7F4FF0CBF01208A
:100A900000205DF808FB00BF4DF808EDFFF7EAFF06
:100AA00034BF012000205DF808FB00BF4DF808EDC1
:100AB000FFF7E0FF94BF012000205DF808FB00BFB6
:100AC0004DF808EDFFF7CEFF94BF012000205DF840
:100AD00008FB00BF4DF808EDFFF7C4FF34BF01204D
:100AE00000205DF808FB00BF4FEA410C7FEA6C5C18
:100AF00002D150EA013C0AD14FEA430C7FEA6C5C18
:100B000002D152EA033C02D14FF0000070474FF08F
:100B1000010070474FEA410212F5001215D211D5BB
:100B20006FF47873B3EB625212D94FEAC12343F0EA
:100B3000004343EA505311F0004F23FA02F018BF6C
:100B4000404270474FF00000704750EA013005D135
:100B500011F0004008BF6FF0004070474FF00000F8
:100B6000704700BF53B94AB9002908BF00281CBF0D
:100B70004FF0FF314FF0FF3000F076B9ADF1080CC7
:100B80006DE904CE00F006F8DDF804E0DDE90223AB
:100B900004B070472DE9F047089E0D46044688468C
:100BA000002B4DD18A42944668D9B2FA82F252B1F2
:100BB00001FA02F3C2F1200120FA01F10CFA02FC61
:100BC00041EA030894404FEA1C41B8FBF1F71FFAD1
:100BD0008CFE01FB178807FB0EF0230C43EA084349
:100BE00098420AD91CEB030307F1FF3580F01E8100
:100BF000984240F21B81023F63441B1AB3FBF1F0A1
:100C000001FB103300FB0EFEA4B244EA0344A645E8
:100C10000AD91CEB040400F1FF3380F00981A645DA
:100C200040F20681644402380021A4EB0E0440EA3D
:100C300007401EB10023D440C6E90043BDE8F08759
:100C40008B4208D9002E00F0EE800021C6E9000595
:100C50000846BDE8F087B3FA83F100294AD1AB42D8
:100C600002D3824200F2FC80841A65EB0303012068
:100C70009846002EE2D0C6E90048DFE702B9FFDE61
:100C8000B2FA82F2002A40F09180A1EB0C0001211F
:100C90004FEA1C471FFA8CFEB0FBF7F307FB13006B
:100CA000250C45EA00450EFB03F0A84208D91CEBD1
:100CB000050503F1FF3802D2A84200F2CE80434678
:100CC0002D1AB5FBF7F007FB10550EFB00FEA4B282
:100CD00044EA0544A64508D91CEB040400F1FF359D
:100CE00002D2A64500F2B6802846A4EB0E0440EAE4
:100CF00003409EE7C1F120078B4022FA07FC4CEA33
:100D0000030C25FA07FA4FEA1C49BAFBF9F820FA56
:100D100007F309FB18AA8D401FFA8CFE1D4300FA49
:100D200001F308FB0EF02C0C44EA0A44A04202FA3C
:100D300001F20BD91CEB040408F1FF3A80F0888023
:100D4000A04240F28580A8F102086444241AB4FB52
:100D5000F9F009FB104400FB0EFEADB245EA044475
:100D6000A64508D91CEB040400F1FF356CD2A6455A
:100D70006AD90238644440EA0840A0FB0295A4EB1B
:100D80000E04AC42C846AE4656D353D0002E69D0AE
:100D9000B3EB080264EB0E0422FA01F304FA07F73E
:100DA0001F43CC40C6E90074002147E70CFA02FC5F
:100DB000C2F1200125FA01F34FEA1C4720FA01F1A4
:100DC00095400D43B3FBF7F107FB11331FFA8CFE7F
:100DD000280C40EA034001FB0EF3834204FA02F4BC
:100DE00008D91CEB000001F1FF382FD283422DD926
:100DF00002396044C01AB0FBF7F307FB1300ADB231
:100E000045EA004503FB0EF0A84208D91CEB050596
:100E100003F1FF3816D2A84214D9023B6544281AC0
:100E200043EA014138E73146304607E72F46E4E61A
:100E30001846F9E64B45A9D2B9EB020865EB0C0E52
:100E40000138A3E74346EAE7284694E74146D1E75D
:100E5000D0467BE76444023847E7023B65442FE70E
:100E6000084606E73146E9E6704700BF2DE9F04144
:100E700088B000240494059406940794284B9A693A
:100E800042F010029A619A6902F010020192019AEE
:100E90009A6942F008029A619A6902F00802029285
:100EA000029A9A6942F004029A619B6903F0040372
:100EB0000393039BDFF86C8001220421404600F07D
:100EC00099FC194E01220321304600F093FC42F2B6
:100ED0000103049305940225069504A9404600F0F9
:100EE00077FB0423049301240594069503270797B1
:100EF00004A9404600F06CFB0494059406940797FF
:100F000004A9304600F064FB049505940695079704
:100F100004A9304600F05CFB08B0BDE8F08100BFDA
:100F20000010024000100140000C014000B583B0E9
:100F300001904FF6FF73012201A9034802F0C5F8A2
:100F4000019803B05DF804FB240B002072B6FEE7A5
:100F500008B50D480D4B03604FF4E13343600023A7
:100F60008360C36003610C2242618361C36102F04C
:100F70007DF830B9044B1A68D36843F03003D3606E
:100F800008BDFFF7E3FF00BF240B0020003801403D
:100F900000B595B0282200210DEB020004F070FA94
:100FA00000230593069307930893099301930293F3
:100FB0000393049301220A924FF480330B930E9211
:100FC0000222119212934FF4E01313930AA801F036
:100FD000DBFBC0B90F230593022106910023079381
:100FE0004FF480620892099305A801F00DFE60B9E4
:100FF000102301930023049301A801F0E1FE30B90E
:1010000015B05DF804FBFFF7A1FFFFF79FFFFFF7A7
:101010009DFF000030B587B000F0C8F9FFF7B8FFBA
:10102000FFF724FFFFF794FF04F03AF8264B93E80C
:1010300003000490ADF81410244B02AA93E80300B7
:1010400082E803006A46083393E8030082E803005D
:1010500042F2107000F0CEF904AC15E001345D3BB3
:101060008DF802301A4D08226946284603F03EFBEF
:101070000F2000F0BFF908220DEB0201284603F013
:1010800035FB0F2000F0B6F92378002BE6D1114B89
:101090001B78012BFBD100240E4B1C700E4B1978D2
:1010A0000E4804F03FFA0C4B1B78A34206DC0C48B8
:1010B00004F0A2FA084B00221A70E8E7094B185D09
:1010C00004F044FA0134EEE7F0B50008C0B50008BA
:1010D000DC0B0020CD0B0020CC0B0020D0B500088D
:1010E000ECB50008680B002082B00E4B9A6942F004
:1010F00001029A619A6902F001020092009ADA698B
:1011000042F08052DA61DB6903F080530193019B66
:10111000054A536823F0E06343F00073536002B064
:10112000704700BF001002400000014030B587B09A
:101130000023029303930493059302681B4B9A4286
:1011400001D007B030BD03F558439A6942F480429C
:101150009A619A6902F480420092009A9A6942F078
:1011600004029A619B6903F004030193019B4FF40D
:101170000073029302230393032305930C4D02A9EA
:10118000284600F025FA4FF480630293002403946C
:10119000049402A9284600F01BFA22462146252085
:1011A00000F04EF9252000F083F9CAE7003801402D
:1011B00000080140FEE7FEE7FEE7FEE7FEE77047B6
:1011C0007047704708B500F003F908BD08B502483C
:1011D00001F089F808BD00BFA010002010B582B052
:1011E000184B1B681B6813F0200F14D1154B1B689C
:1011F0001A6812F0100F09D0002201921A680192A9
:101200005B680193019B104B01221A700D4802F09C
:10121000BDF802B010BD0D4C21784B1C237000238B
:1012200001220B480144074801F0BBFF2378632BE0
:1012300001D900222270034B1B686FF020021A6054
:10124000D4E700BF240B0020CD0B0020CC0B0020E6
:10125000680B00200120704708B504F0E7F816235A
:1012600003604FF0FF3008BD08B54FF0FF31FFF7C6
:10127000F3FFFEE770B50C461646002506E0AFF317
:101280000080214601F8010B01350C46B542F6DB22
:10129000304670BD70B50C461646002504E014F8C3
:1012A000010BFFF743FE0135B542F8DB304670BD58
:1012B0004FF0FF3070474FF400534B6000207047F1
:1012C000012070470020704710B503460C4A0D49B5
:1012D0000D48006840B10C4800680344521A93421C
:1012E00006D8094A136010BD0748084C0460F2E7AD
:1012F00004F09CF80C2303604FF0FF30F3E700BFCD
:101300000050002000100000D00B0020E813002047
:10131000704700000C480D490D4A002302E0D458E4
:10132000C4500433C4188C42F9D30A4A0A4C00232F
:1013300001E013600432A242FBD3FFF7E9FF04F09F
:101340007BF8FFF767FE704700000020080B0020C5
:101350003CBA0008080B0020E8130020FEE700005C
:1013600010B504460E4B18784FF47A73B3FBF0F3C4
:101370000C4A1068B0FBF3F000F0A8F868B90F2C25
:1013800001D901200AE0002221464FF0FF3000F091
:1013900057F8054B1C60002000E0012010BD00BF85
:1013A00004000020000000200800002008B5074AC3
:1013B000136843F010031360032000F02FF80F2090
:1013C000FFF7CEFFFFF790FE002008BD002002408F
:1013D000034A1168034B1B780B441360704700BF2E
:1013E000D40B002004000020014B1868704700BF98
:1013F000D40B002038B50446FFF7F6FF0546B4F1DC
:10140000FF3F02D0044B1B781C44FFF7EDFF401B4D
:10141000A042FAD338BD00BF04000020074AD368B9
:1014200023F4E0631B041B0C000200F4E0600343A0
:1014300043F0BF6343F40033D360704700ED00E036
:1014400000B5194BDB68C3F30223C3F1070CBCF1F1
:10145000040F28BF4FF0040C03F1040EBEF1060F79
:1014600018D9033B4FF0FF3E0EFA0CFC21EA0C01A9
:1014700099400EFA03F322EA0303194300280BDB19
:101480000901C9B200F1604000F5614080F8001325
:101490005DF804FB0023E5E700F00F000901C9B285
:1014A000024B1954F4E700BF00ED00E014ED00E03A
:1014B000002807DB00F01F02400901239340024A85
:1014C00042F82030704700BF00E100E00138B0F181
:1014D000807F0BD24FF0E0235861054AF02182F85B
:1014E00023100020986107221A617047012070477D
:1014F00000ED00E090F82130022B06D00423836336
:10150000002380F82030012070470268136823F020
:101510000E0313600268136823F001031360036C69
:10152000C16B012202FA03F34B6080F821200023F3
:1015300080F820301846704708B590F82130022B0B
:1015400003D004238363012008BD0268136823F0DD
:101550000E0313600268136823F00103136003682D
:10156000194A934214D0143293421FD0143293423A
:101570001ED0143293421ED0143293421ED0143225
:10158000934202D04FF0807203E04FF4801200E0EB
:1015900001220E4B5A60012380F82130002380F88D
:1015A0002030436B6BB198470020CDE71022F0E765
:1015B0004FF48072EDE74FF48052EAE74FF4803247
:1015C000E7E70020C0E700BF08000240000002403B
:1015D00070B582B00024A446A6E0804DAA4210D087
:1015E00007D97F4DAA420CD005F58035AA4208D014
:1015F00013E0A5F58015AA4203D005F57025AA428F
:1016000007D18A68002A58D0012A51D043610824A2
:1016100003E0A5F58015AA42F3D0BEF1FF0F4ED826
:101620000646BEF1FF0F4CD84FEA8C0233680F25F7
:10163000954023EA050304FA02F2134333604B6832
:1016400013F0805F6ED0674B9A6942F001029A6195
:101650009B6903F001030193019B4FEA9C02951CD7
:10166000614B53F825600CF003039D000F23AB4042
:1016700026EA03065D4B984229D003F58063984221
:1016800000F08E8003F58063984200F08B8003F5B4
:101690008063984219D004231AE0CC68BDE7CC6877
:1016A0000434BAE7CC680834B7E7CC680C34B4E744
:1016B00003610824B1E70024AFE70424ADE7061D69
:1016C000AFE7ACF108029200B0E7032300E000238B
:1016D000AB4033430232444D45F822304B6813F49B
:1016E000803F61D0424A136843EA0E0313604B689F
:1016F00013F4003F5ED03E4A536843EA0E03536042
:101700004B6813F4801F5BD0394A936843EA0E0399
:1017100093604B6813F4001F58D0354AD36843EAEE
:101720000E03D3600CF1010C0A6832FA0CF353D0AB
:10173000012303FA0CF302EA030E33EA0202F1D1A9
:101740004A68122A3FF649AF122A3FF666AF01A552
:1017500055F822F0031600089B160008A51600088D
:10176000B71600081B1600081B1600081B160008F9
:101770001B1600081B1600081B1600081B16000885
:101780001B1600081B1600081B1600081B16000875
:101790001B1600081B1600089F160008AB16000851
:1017A000012395E7022393E7114A136823EA0E0306
:1017B00013609CE70E4A536823EA0E0353609FE7C9
:1017C0000B4A936823EA0E039360A2E7084AD368A2
:1017D00023EA0E03D360A5E702B070BD000022101B
:1017E00000003110001002400000014000080140DC
:1017F000000401400AB101617047090401617047AA
:1018000038B512F4804F44D00468B4F850309BB21D
:1018100091F800C003EBCC03023304EB4303B3F8AD
:101820000044C4F309048B69A34228D31B1B8B61BA
:101830008B697BB9056835F82C309BB223F4804363
:1018400023F0700383F4005343F4004343F0800318
:1018500025F82C3012F0400F0ED002680D7832F8C7
:1018600025309BB223F4E04323F0700343F400439C
:1018700043F0C00322F8253024B9204638BD0023A8
:101880008B61D5E723460A894969006802F047FE63
:10189000F3E70468B4F850309BB291F800C003EB52
:1018A000CC03063304EB4303B3F80044C4F3090448
:1018B0008B69A3422FD31B1B8B618B697BB9056896
:1018C00035F82C309BB223F4804323F0700383F46B
:1018D000005343F4004343F0800325F82C3012F00A
:1018E000400F0FD1026891F800C032F82C309BB243
:1018F00023F4E04323F0700343F4004343F0C003B8
:1019000022F82C30002CB8D023464A894969006857
:1019100002F005FEB1E700238B61CEE770B586B01B
:10192000002800F08580044690F8A932EBB103232B
:1019300084F8A932206801F03BFE254655F8106B6B
:10194000EC460FCDACE80F002B68CCF80030231D1F
:101950000ECB304601F01CFE054658B1022384F838
:10196000A9320125284606B070BD80F8A83203F0E0
:101970005BFCDCE70021206801F024FE2B461AE026
:101980005A1C02EB820104EBC1010120487002EBFA
:10199000820104F8313003EB830104EBC101CB86F3
:1019A00002EB820C04EBCC0C00208CF80300886363
:1019B000C8630864D3B261688B42E1D316E005EBDB
:1019C000850304EBC303002283F8692183F868517F
:1019D00083F86B21C3F87821C3F87C2105EB8503DC
:1019E00004EBC303C3F880210135EDB2A942E6D868
:1019F000254655F8106BEC460FCDACE80F002B6870
:101A0000CCF80030231D0ECB304601F0DDFD05463D
:101A100020B1022384F8A9320125A3E7002384F82A
:101A20002430012384F8A932206802F003F999E7F1
:101A3000012597E738B590F8A832012B11D004465C
:101A4000012580F8A852006801F0A9FD294620462A
:101A500003F0EBFC206802F0EBF8002084F8A80209
:101A600038BD0220FCE770B505460C46164612F05C
:101A7000400F00F00D810268B2F850309BB2097837
:101A800003EBC103023302EB4303B3F80024C2F3B8
:101A90000902A369934252D99B1AA361A369002B3F
:101AA0006AD16378002B4DD12B68B3F8502092B2E5
:101AB000134403EB0111B1F804349BB223F4F8434F
:101AC0009BB2A1F80434B1F804346FEA43436FEADF
:101AD00053439BB2A1F804342B686278002A3ED1AC
:101AE000B3F8502092B21344227803EB0213B3F8F8
:101AF0000C2492B222F4F84292B2A3F80C24B3F868
:101B00000C246FEA42426FEA524292B2A3F80C24CC
:101B10002178284603F0BCFB16F4804F41D02A6898
:101B2000217832F821309BB223F4E04323F0700394
:101B300043F4404343F0800322F8213031E0002396
:101B4000A361ABE7012BC7D12B68B3F8502092B249
:101B5000134403EB01110023A1F80434BCE7012A6C
:101B6000D6D1B3F8502092B21344227803EB02137B
:101B70000022A3F80C24CBE716F4804F0DD0286880
:101B800030F821309BB223F4E04323F0700343F498
:101B9000404343F0800320F8213094F82430012B97
:101BA00012D02A68217832F821309BB223F4E04326
:101BB00023F0400383F0300343F4004343F08003F9
:101BC00022F82130002070BD636913446361E3692A
:101BD0001344E361216A236999421FD3C91A216220
:101BE0006278002A3FD12A68B2F8501089B20A44BC
:101BF000217802EB0112EBB9B2F8041489B221F496
:101C0000F84189B2A2F80414B2F804146FEA414111
:101C10006FEA514189B2A2F8041426E021B90023E9
:101C200084F824301346DBE7002384F82430236251
:101C30000B46D5E73E2B09D8590813F0010F00D009
:101C40000131890289B2A2F804140EE0590913F097
:101C50001F0F00D101396FEAC1616FEA514189B2AA
:101C6000A2F8041401E0012A06D09BB2228961691E
:101C7000286801F0E7FF94E72A68B2F8501089B2AB
:101C80000A44217802EB011299B2A2F80414ECE79D
:101C90000268B2F850309BB2097803EBC1030633F7
:101CA00002EB4303B3F80024C2F30902A369934291
:101CB00053D39B1AA361A369002B6BD16378002BCC
:101CC0004ED12B68B3F8502092B2134403EB0111AC
:101CD000B1F804349BB223F4F8439BB2A1F8043466
:101CE000B1F804346FEA43436FEA53439BB2A1F85F
:101CF00004342B686278002A3FD1B3F8502092B2A6
:101D00001344227803EB0213B3F80C2492B222F4AA
:101D1000F84292B2A3F80C24B3F80C246FEA4242C2
:101D20006FEA524292B2A3F80C242178284603F0BD
:101D3000AFFA16F4804F7FF434AF2A68217832F876
:101D400021309BB223F4E04323F0700343F440437B
:101D500043F0800322F8213023E70023A361AAE7A0
:101D6000012BC6D12B68B3F8502092B2134403EB79
:101D700001110023A1F80434BBE7012AD5D1B3F83F
:101D8000502092B21344227803EB02130022A3F8EE
:101D90000C24CAE716F4804F0DD1286830F82130A2
:101DA0009BB223F4E04323F0700343F4404343F039
:101DB000800320F8213094F82430012B7FF4F1AE19
:101DC000636913446361E3691344E361216A23692E
:101DD00099421FD3C91A21622A68617800293ED12D
:101DE000B2F8501089B20A44217802EB0112EBB923
:101DF000B2F80C1489B221F4F84189B2A2F80C149B
:101E0000B2F80C146FEA41416FEA514189B2A2F86D
:101E10000C1426E021B9002384F824301346DBE7B4
:101E20000023236284F824300B46D5E73E2B09D8E3
:101E3000590813F0010F00D00131890289B2A2F8CC
:101E40000C140EE0590913F01F0F00D101396FEA8D
:101E5000C1616FEA514189B2A2F80C1401E0012975
:101E600006D09BB262896169286801F0EBFE98E6B2
:101E7000B2F8501089B20A44217802EB011299B2EB
:101E8000A2F80C14EDE72DE9F04105462868B0F8FA
:101E9000443013F4004F00F00F82B0F84440A3B276
:101EA00014F00F0440F0D88013F0100F61D00388B5
:101EB0009AB213F4006F40F0938012F4004FE5D013
:101EC000038823F070031B051B0D43F08003038080
:101ED0002868B0F850309BB295F8682103EBC20334
:101EE000063300EB4303B3F80034C3F30903C5F82A
:101EF00084318BB1D5F87C1171B1B5F86E2102F047
:101F00000EFBD5F88421D5F87C311344C5F87C311B
:101F10000021284603F0B0F92B681A8812F4006FEC
:101F2000B4D1B3F8502092B21344D5F87821002AE6
:101F300079D1B3F80C2492B222F4F84292B2A3F809
:101F40000C24B3F80C246FEA42426FEA524292B278
:101F5000A3F80C242A6813889BB223F4804323F04F
:101F6000700383F4405343F4004343F08003138031
:101F70008CE703889BB223F4E14323F070036FEAFC
:101F800043436FEA53439BB203802A68B2F8503050
:101F90009BB295F8281003EBC103023302EB430315
:101FA000B3F80034C3F309036B64EA6B1344EB63C7
:101FB0000021284603F06CF995F82430002B3FF4FB
:101FC00065AF2B6C002B7FF461AF95F824302A6845
:101FD00043F08003A2F84C30002385F8243055E705
:101FE000B0F850309BB295F8682103EBC20306337A
:101FF00000EB4303B3F80034C3F30903C5F884319D
:10200000B5F86E2105F52C7102F089FA2A6813885B
:1020100023F070031B051B0D43F08003138028463B
:1020200003F022F932E73E2A09D8510812F0010FD5
:1020300000D001318A0292B2A3F80C248AE7510938
:1020400012F01F0F00D101396FEAC1626FEA5242EC
:1020500092B2A3F80C247DE730F824309EB213F43A
:10206000004F4FD116F0800F3FF410AF621C02EB0F
:10207000820105EBC101286830F824309BB223F4BB
:10208000E14323F070036FEA43436FEA53439BB28B
:1020900020F82430CB78032B07D033B1022B40F04B
:1020A000068116F4807F40F002812868B0F8503035
:1020B0009BB2621C02EB820215F8326003EBC6038E
:1020C000023300EB4303B3F80034C3F3090304EB1A
:1020D000840205EBC202126C9A4240F2D48004EBF7
:1020E000840705EBC707D21A3A6404EB840205EBB8
:1020F000C202126C002A40F0CD803146284603F01F
:10210000C7F8C3E630F8243023F070031B051B0D1D
:1021100043F0800320F8243004EB8401C90001F56A
:10212000B47105EB010804EB840305EBC30393F8DA
:102130007431002B42D12868B0F850309BB204EBC8
:10214000840205EBC20292F8682103EBC203063356
:1021500000EB4303B3F80074C7F3090717BB04EBA4
:10216000840305EBC303D3F884213A44C3F88421E4
:10217000D3F87C213A44C3F87C21D3F880313BB1B9
:1021800004EB840305EBC303D3F878319F4275D287
:1021900004EB840305EBC30393F86811284603F0AE
:1021A0006BF85FE704EB840105EBC1013B46B1F836
:1021B0006E21D1F87C1102F0B2F9D0E704EB840370
:1021C00005EBC30393F86B31022B35D0296804EB80
:1021D000840205EBC20292F8680131F820309BB20C
:1021E00023F4E04323F0700343F4004343F0C003BF
:1021F00021F82030286892F8682130F8223013F452
:10220000804F20D0B0F850309BB203EBC2030233B2
:1022100000EB4303B3F80074C7F30907002F9ED007
:1022200004EB840105EBC1013B46B1F87021D1F804
:102230007C1102F074F992E7324641462846FFF7D6
:10224000DFFA07468BE7B0F850309BB203EBC203CE
:10225000063300EB4303B3F80074C7F30907002FFC
:102260003FF47DAF04EB840105EBC1013B46B1F8BF
:102270007221D1F87C1102F052F970E741462868CA
:1022800001F0F4FCEEE604EB840205EBC202002749
:1022900017642AE704EB840205EBC202D66B1E44E6
:1022A000D663546C2344536401F0E0FCEEE53246FF
:1022B0002846FFF7D8FBE9E50020BDE8F08190F85B
:1022C000A832012B0DD010B50446012380F8A832A6
:1022D00080F82410006801F0A5FC002084F8A80212
:1022E00010BD0220704710B584B00446006801F0AC
:1022F000A3FC10F4004F47D1206801F09DFC10F4BE
:10230000806F45D1206801F097FC10F4804F08D011
:102310002268B2F844309BB223F480439BB2A2F807
:102320004430206801F088FC10F4005F08D0226877
:10233000B2F844309BB223F400539BB2A2F844306D
:10234000206801F079FC10F4805F32D1206801F040
:1023500073FC10F4006F78D1206801F06DFC10F46C
:10236000007F40F09D80206801F066FC10F4807FC3
:1023700008D02268B2F844309BB223F480739BB239
:10238000A2F8443004B010BD2046FFF77CFDB3E74F
:102390002268B2F844309BB223F480639BB2A2F867
:1023A0004430204602F085FF00212046FFF787FFDA
:1023B000A8E72268B2F840309BB223F004039BB236
:1023C000A2F840302268B2F840309BB223F00803F4
:1023D0009BB2A2F84030204602F08EFF2268B2F88D
:1023E00044309BB223F480539BB2A2F84430ADE753
:1023F000226832F8231004AA02EB430222F8101CD0
:102400000133DBB2072BF3D92268B2F840309BB21C
:1024100043F00103A2F840302268B2F840309BB28A
:1024200023F001039BB2A2F840302368B3F84420A4
:1024300012F4806FF9D0B3F8442092B222F4806293
:1024400092B2A3F8442000230BE00023DAE72268CD
:1024500004A901EB430131F8101C22F823100133C9
:10246000DBB2072BF3D92268B2F840309BB243F0BD
:102470000803A2F840302268B2F844309BB223F43B
:1024800000639BB2A2F844302268B2F840309BB29D
:1024900043F00403A2F84030204602F01DFF5BE742
:1024A0002268B2F844309BB223F400739BB2A2F8C6
:1024B0004430204602F0F7FE55E710B504468C463E
:1024C00011F0800F2AD101F0070000EB8001C90054
:1024D00001F5B47E04EB0E0100EB800004EBC000BC
:1024E0004FF0000E80F869E10CF0070C81F800C095
:1024F0000A61CB704A780AB1A1F80EC0022B19D03C
:1025000094F8A832012B18D0012384F8A83220684F
:1025100001F06BF8002084F8A80210BD01F007005C
:10252000013000EB800104EBC1014FF0010E81F896
:1025300001E0D9E700230B71E2E70220EDE710B5D7
:1025400004460B4611F0800F1FD101F0070202EB89
:102550008201C90001F5B471014402EB820200EB73
:10256000C202002082F8690103F007030B7094F89F
:10257000A832012B13D0012384F8A832206801F07F
:10258000F0F9002084F8A80210BD01F00702013222
:1025900002EB820100EBC10101204870E4E7022058
:1025A000F2E710B501F0070404EB8401C90001F55E
:1025B000B471014404EB840C00EBCC0CCCF87C210E
:1025C000CCF880310023CCF884318CF869318CF858
:1025D000684124B9006801F049FB002010BD006883
:1025E00001F044FBF9E710B501F0070404F1010C18
:1025F0000CEB8C0100EBC10104EB840E00EBCE0E62
:10260000CEF83C20CEF8403001228EF84C20CEF897
:1026100048300023CEF844304A700CEB8C0C00F8A4
:102620003C4024B9006801F021FB002010BD006887
:1026300001F01CFBF9E738B501F007054268954247
:1026400031D804460B4611F0800F1ED101EB8101F9
:10265000C90001F5B471014403EB830300EBC3032C
:10266000002283F8692101238B700D7094F8A83241
:10267000012B1AD0012384F8A832206801F05CFAFB
:102680005DB1002084F8A80238BD6B1C03EB830108
:1026900000EBC10101224A70E5E704F52C712068C6
:1026A00001F0CEFAEDE70120EEE70220ECE70B4661
:1026B00001F00F014268914230D810B5044613F082
:1026C000800F21D103F0070202EB8201C90001F55E
:1026D000B471014402EB820200EBC202002082F8D6
:1026E000690100228A7003F007030B7094F8A83286
:1026F000012B15D0012384F8A832206801F041FA9B
:10270000002084F8A80210BD03F00702013202EB9A
:10271000820100EBC10101204870E2E7012070470F
:102720000220F0E711F0800F0BD001F0070101311A
:1027300001EB810100EBC10152B90A73CB8000208B
:10274000704701EB8101C90001F5B4710144F3E761
:1027500001220A730B811B0C4B81F0E782B0084BFE
:102760001B68084AA2FB03235B0A00FB03F30193E7
:1027700000BF019B5A1E0192002BF9D102B0704795
:1027800000000020D34D6210002800F0F18170B5E8
:1027900082B00446036813F0010F2CD0994B5B689C
:1027A00003F00C03042B1DD0964B5B6803F00C0365
:1027B000082B12D06368B3F5803F41D0002B55D170
:1027C00003F1804303F504331A6822F480321A605F
:1027D0001A6822F480221A6037E08A4B5B6813F48F
:1027E000803FE7D0874B1B6813F4003F03D063683A
:1027F000002B00F0BF81236813F0020F75D0814BCE
:102800005B6813F00C0F5FD07E4B5B6803F00C032A
:10281000082B54D02369002B00F08A807A4B0122C8
:102820001A60FEF7E1FD0546764B1B6813F0020FB8
:1028300075D1FEF7D9FD401B0228F5D903209EE192
:10284000704A136843F480331360636843B3FEF740
:10285000CBFD05466B4B1B6813F4003FCBD1FEF755
:10286000C3FD401B6428F5D9032088E1B3F5A02FF0
:1028700009D0644B1A6822F480321A601A6822F474
:1028800080221A60E1E703F18043A3F53C331A6824
:1028900042F480221A601A6842F480321A60D4E747
:1028A000FEF7A2FD0546574B1B6813F4003FA2D06C
:1028B000FEF79AFD401B6428F5D903205FE1514BD8
:1028C0005B6813F4803FA5D14E4B1B6813F0020FD9
:1028D00003D02369012B40F04F814A4A136823F04B
:1028E000F803616943EAC1031360236813F0080F1A
:1028F00033D0A369002B5CD0434B0122C3F8802462
:10290000FEF772FD05463F4B5B6A13F0020F21D1C3
:10291000FEF76AFD401B0228F5D903202FE1394A52
:10292000136823F0F803616943EAC1031360DCE72D
:10293000354B00221A60FEF757FD0546314B1B68E8
:1029400013F0020FD1D0FEF74FFD401B0228F5D93E
:10295000032014E10120FFF701FF236813F0040FA7
:1029600000F09680274BDB6913F0805F34D1254B54
:10297000DA6942F08052DA61DB6903F08053019337
:10298000019B0125214B1B6813F4807F26D0E3684F
:10299000012B3DD0002B53D103F1804303F50433C9
:1029A0001A6A22F001021A621A6A22F004021A62FA
:1029B00033E0154B0022C3F88024FEF715FD0546D1
:1029C000104B5B6A13F0020FC7D0FEF70DFD401BE2
:1029D0000228F5D90320D2E00025D3E70B4A13687B
:1029E00043F480731360FEF7FFFC0646074B1B6839
:1029F00013F4807FCBD1FEF7F7FC801B6428F5D958
:102A00000320BCE000100240000042420070004081
:102A10005F4A136A43F001031362E36833B3FEF7BE
:102A2000E3FC06465A4B1B6A13F0020F2FD1FEF748
:102A3000DBFC801B41F288339842F3D903209EE0EF
:102A4000052B09D0524B1A6A22F001021A621A6A47
:102A500022F004021A62E0E74D4B1A6A42F00402C7
:102A60001A621A6A42F001021A62D6E7FEF7BCFC4B
:102A70000646474B1B6A13F0020F08D0FEF7B4FC62
:102A8000801B41F288339842F3D9032077E0E5B9FF
:102A9000E369002B72D03E4A526802F00C02082A09
:102AA00056D0022B17D03B4B00221A66FEF79CFC37
:102AB0000446374B1B6813F0007F47D0FEF794FCA9
:102AC000001B0228F5D9032059E0314AD36923F0CD
:102AD0008053D361DCE72F4B00221A66FEF784FC9B
:102AE00005462B4B1B6813F0007F06D0FEF77CFCDD
:102AF000401B0228F5D9032041E0236AB3F5803F4B
:102B00001AD023494B6823F47413226A606A024383
:102B100013434B601F4B01221A66FEF765FC044607
:102B20001B4B1B6813F0007F0ED1FEF75DFC001BF2
:102B30000228F5D9032022E0154A536823F4003314
:102B4000A1680B435360DCE7002018E0002016E08A
:102B5000012B16D00E4B5B6803F48031226A914240
:102B600011D103F47013626A93420ED1002006E083
:102B700001207047012002E0012000E0002002B0A7
:102B800070BD0120FBE70120F9E70120F7E700BF56
:102B9000001002400000424286B0174B0FCB0DF1EF
:102BA000180C0CE90F0040F20123ADF80430134B70
:102BB0005B6803F00C02082A02D0114806B0704787
:102BC000C3F3834218326A4412F8100C13F4803FA6
:102BD0000DD00A4B5B68C3F3404318336B4413F8C2
:102BE000143C074A02FB00F0B0FBF3F0E6E7054BAC
:102BF00003FB00F0E2E700BF10B60008001002403F
:102C000000127A0000093D00002800F0A08070B595
:102C10000D460446524B1B6803F007038B420BD250
:102C20004F4A136823F007030B431360136803F044
:102C300007038B4240F08D80236813F0020F17D0FA
:102C400013F0040F04D0474A536843F4E063536021
:102C5000236813F0080F04D0424A536843F46053CA
:102C60005360404A536823F0F003A1680B4353605C
:102C7000236813F0010F31D06368012B20D0022BA1
:102C800025D0384A126812F0020F64D035494A68DC
:102C900022F0030213434B60FEF7A6FB0646314BBE
:102CA0005B6803F00C036268B3EB820F16D0FEF78B
:102CB0009BFB801B41F288339842F0D9032045E00A
:102CC000284A126812F4003FE0D101203EE0254A74
:102CD000126812F0007FD9D1012037E0204B1B6829
:102CE00003F00703AB420AD91D4A136823F0070318
:102CF0002B431360136803F00703AB422DD1236805
:102D000013F0040F06D0174A536823F4E063E16818
:102D10000B435360236813F0080F07D0114A536820
:102D200023F46053216943EAC1035360FFF734FF82
:102D30000C4B5B68C3F303130B4AD35CD8400B4BBB
:102D400018600B4B1868FEF70BFB002070BD0120CC
:102D500070470120FAE70120F8E70120F6E700BFFD
:102D60000020024000100240F8B5000800000020DA
:102D700008000020014B1868704700BF00000020C9
:102D800008B5FFF7F7FF044B5B68C3F30223034A60
:102D9000D35CD84008BD00BF0010024008B6000850
:102DA00008B5FFF7E7FF044B5B68C3F3C223034A90
:102DB000D35CD84008BD00BF0010024008B6000830
:102DC00070B582B00446036813F0010F36D03F4B54
:102DD000DB6913F0805F49D13C4BDA6942F08052E5
:102DE000DA61DB6903F080530193019B0125384BC5
:102DF0001B6813F4807F3BD0344B1B6A13F4407381
:102E000013D0626802F440729A420ED02F4A136ABD
:102E100023F440702F490126C1F840640026C1F810
:102E20004064106213F0010F36D1284A136A23F46C
:102E3000407361680B431362002D3ED1236813F089
:102E4000020F06D0214A536823F44043A1680B4384
:102E50005360236813F0100F34D01C4A536823F4D6
:102E60008003E1680B43536000202CE00025BEE79F
:102E7000174A136843F480731360FEF7B5FA0646E9
:102E8000134B1B6813F4807FB6D1FEF7ADFA801B9D
:102E90006428F5D9032016E0FEF7A6FA06460B4B88
:102EA0001B6A13F0020FC0D1FEF79EFA801B41F29D
:102EB00088339842F3D9032005E0D36923F0805387
:102EC000D361BBE7002002B070BD00BF001002401C
:102ED00000700040000042420268D36823F49073FF
:102EE000D3600268536923F001035361036B012B24
:102EF00005D0202380F83E3000230363704702682A
:102F0000D36823F01003D360F3E790F83D30DBB2D1
:102F1000212B01D0022070478368B3F5805F17D062
:102F2000036A5A1C02621A7803685A60C38C9BB207
:102F3000013B9BB2C3844BB90268D36823F0800382
:102F4000D3600268D36843F04003D3600020704729
:102F50000369002BE4D1036A1B880268C3F30803EA
:102F60005360036A02330362E0E7000010B50446D1
:102F70000268136923F44053C1680B4313618368EB
:102F80000269134342691A430168CB6823F4B053C2
:102F900023F00C031343CB600268536923F440739E
:102FA00081690B4353610268134B9A4220D0FFF7AB
:102FB000E7FE024602EB820202EB820263689B009C
:102FC000B2FBF3F20D48A0FB02314909642303FB75
:102FD00011231B013233A0FB03235B0903F0F00232
:102FE00002EB011203F00F03216813448B6010BD44
:102FF000FFF7D6FE0246DDE7003801401F85EB51A2
:103000002DE9F84305460F4616469946DDF820801F
:103010002C68246837EA04030CBF4FF0010C4FF012
:10302000000CB4451FD1B8F1FF3FF1D0B8F1000F4B
:1030300005D0FEF7D9F9A0EB09004045E8D92A6888
:10304000D36823F4D073D3602A68536923F0010353
:103050005361202385F83D3085F83E30002385F804
:103060003C30032000E00020BDE8F88358B310B5E1
:10307000044690F83D300BB3242384F83D30226899
:10308000D36823F40053D3602046FFF76FFF226814
:10309000136923F4904313612268536923F02A03D0
:1030A00053612268D36843F40053D3600020206446
:1030B000202384F83D3084F83E3010BD80F83C3049
:1030C000FEF734F8D8E7012070472DE9F04182B0CF
:1030D0001E4690F83D30DBB2202B54D104460D46FD
:1030E0009046002953D0002A53D090F83C30012B51
:1030F00051D0012380F83C3000230364212380F861
:103100003D30FEF771F90746A4F82480A4F8268024
:10311000A368B3F5805F05D04FF00008002384F862
:103120003C3012E0236913B14FF00008F6E7A846DF
:103130000025F3E738F8023B2268C3F30803536025
:10314000E28C92B2013A92B2E284E38C9BB273B108
:1031500000963B46002280212046FFF751FFE0B950
:10316000002DE7D015F8012B23685A60E8E7009698
:103170003B46002240212046FFF742FF78B920233A
:1031800084F83D3000E0022002B0BDE8F08101206B
:10319000FAE70120F8E70220F6E70320F4E703202E
:1031A000F2E72DE9F04182B01E4690F83E30DBB2E6
:1031B000202B5CD104460D46904600295BD0002AA6
:1031C0005BD090F83C30012B59D0012380F83C3083
:1031D00000230364222280F83E200363FEF704F9F3
:1031E0000746A4F82C80A4F82E80A368B3F5805F6E
:1031F00005D04FF00008002384F83C3017E0236925
:1032000013B14FF00008F6E7A8460025F3E723685E
:103210005B68C3F3080328F8023B03E023685B689C
:103220002B700135E28D92B2013A92B2E285E38DC4
:103230009BB2BBB100963B46002220212046FFF7FF
:10324000DFFEF0B9002DE2D0A368B3F5805FE5D0D2
:1032500013B92369002BE1D023685B6803F07F0377
:103260002B70DEE7202384F83E30002000E00220AF
:1032700002B0BDE8F0810120FAE70120F8E7022062
:10328000F6E70320F4E7704708B50168CA6822F042
:103290004002CA60202280F83D20FFF7F4FF0020A2
:1032A00008BD7047704708B5406A0023C385C384D2
:1032B000FFF7F8FF08BD704790F83E30DBB2222BD5
:1032C00060D18368B3F5805F46D0826AB3F5805FD2
:1032D00004D0002B4DD10369002B4AD103685B68F1
:1032E0001370836A01338362C38D9BB2013B9BB22F
:1032F000C385002B48D100B583B00268D36823F0A2
:103300002003D3600268D36823F48073D36002681B
:10331000536923F001035361202380F83E30036B8F
:10332000012B2CD1002303630268D36823F0100320
:10333000D36003681A6812F0100F06D000220192C1
:103340001A6801925B680193019B818DFFF7B3FFBF
:10335000002003B05DF804FB0269002AB5D1826A3F
:1033600003685B68C3F308031380836A02338362D4
:10337000BAE703685B6803F07F031370B1E7FFF7F8
:1033800090FFE5E7022070470020704730B583B01A
:10339000044602681368D068516913F00F0505D11F
:1033A00013F0200F02D010F0200F19D12DB111F021
:1033B000010119D110F4907F16D1216B012975D02C
:1033C00013F0800F03D010F0800F40F0D78013F07F
:1033D000400F03D010F0400F40F0D48003B030BD58
:1033E0002046FFF769FFF9E713F0010F06D010F44C
:1033F000807F03D0226C42F00102226413F0040F9C
:1034000004D019B1226C42F00202226413F0020FC0
:1034100004D019B1226C42F00402226413F0080FA8
:1034200007D010F0200F00D119B1226C42F0080231
:103430002264226C002AD1D013F0200F02D010F0A9
:10344000200F21D123685B6903F04003226C12F046
:10345000080F00D123B32046FFF73EFD23685A69C9
:1034600012F0400F18D05A6922F040025A61A36B43
:1034700073B1464A5A63A06BFEF75EF80028ADD0E0
:10348000A06B436B9847A9E72046FFF715FFD9E7E4
:103490002046FFF707FFA1E72046FFF703FF9DE760
:1034A0002046FFF7FFFE0023236497E713F0100F79
:1034B00086D010F0100F83D000230193136801937E
:1034C00053680193019B536913F0400F32D0A16BF5
:1034D0000B685B689BB2002B80D0A08D98427FF672
:1034E0007DAFE3858B69202B08D1A18DE38D9BB245
:1034F000C91A89B22046FFF7DEFE6FE7D36823F4CE
:103500008073D3602268536923F0010353612268FA
:10351000536923F040035361202384F83E30002395
:1035200023632268D36823F01003D360A06BFDF7F8
:10353000E1FFDAE7A18DE38D9BB2C91A89B2E38D71
:103540009BB2002B3FF44AAF00293FF447AFD3684A
:1035500023F49073D3602268536923F0010353610D
:10356000202384F83E30002323632268D36823F0AD
:103570001003D3602046FFF79EFE2FE72046FFF79B
:10358000C4FC2BE72046FFF77FFE27E7A7320008A1
:1035900084B001A880E80E00002004B07047034604
:1035A0000020A3F844004FF43F42A3F840207047A6
:1035B000B0F8403023F47C535B045B0CA0F840303F
:1035C000002070470020704784B0844601A880E83E
:1035D0000E000123ACF840300020ACF84000ACF8FD
:1035E0004400ACF8500004B0704710B5034691F8A1
:1035F00000C030F82C2092B222F4EC4222F070028B
:1036000092B2C878032861D8DFE800F0555C025810
:10361000002048F2800E42EA0E0223F82C2091F896
:1036200000C033F82C2092B222F4E04222F0700263
:103630004CEA020242EA0E0223F82C200A7B002AFE
:1036400040F0C4804A78002A51D0B3F8502092B29A
:103650001A440C7802EB0412B1F806C04FEA5C0C75
:103660004FEA4C0CA2F800C40C7833F8242012F076
:10367000400F0CD033F8242092B222F4E04222F022
:10368000700242F4004242F0C00223F82420CA78BB
:10369000012A1DD0097833F8212092B222F4E042A9
:1036A00022F0400282F0200242F4004242F0800206
:1036B00023F821206AE042F40072AAE742F4C062D3
:1036C0000020A6E742F480620020A2E70120A0E7E4
:1036D000097833F8212092B222F4E04222F040022D
:1036E00042F4004242F0800223F821204EE0B3F879
:1036F000502092B21A440C7802EB0412B1F806C0C2
:103700004FEA5C0C4FEA4C0CA2F808C4B3F8502006
:1037100092B21A440C7802EB04120C69BCBBB2F8EA
:103720000CC41FFA8CFC2CF4F84C1FFA8CFCA2F889
:103730000CC4B2F80CC46FEA4C4C6FEA5C4C1FFA34
:103740008CFCA2F80CC40C7833F8242012F4804FBF
:103750000CD033F8242092B222F4E04222F070021E
:1037600042F4404242F0800223F82420097833F8E2
:10377000212092B222F4804222F0700282F4405260
:1037800042F4004242F0800223F8212010BD3E2C7A
:103790000DD84FEA540C14F0010F01D00CF1010CBC
:1037A0004FEA8C2C1FFA8CFCA2F80CC4CBE74FEA32
:1037B000541C14F01F0F01D10CF1FF3C6FEACC64D4
:1037C0006FEA5444A4B2A2F80C44BCE791F800C0DC
:1037D00033F82C2092B222F4E04222F0700242F43C
:1037E000014242F0800223F82C20B3F8502092B21C
:1037F0001A4491F800C002EB0C12B1F808C04FEA6D
:103800005C0C4FEA4C0CA2F800C4B3F8502092B202
:103810001A4491F800C002EB0C12B1F80AC04FEA4A
:103820005C0C4FEA4C0CA2F808C44A78002A41D13B
:103830000C7833F8242012F4804F0CD033F8242075
:1038400092B222F4E04222F0700242F4404242F08E
:10385000800223F824200C7833F8242012F0400F43
:103860000CD033F8242092B222F4E04222F070020D
:1038700042F4004242F0C00223F8242091F800C034
:1038800033F82C2092B222F4804222F0700282F4AB
:10389000405248F28004224323F82C20097833F860
:1038A000212092B222F4E04222F04002224323F887
:1038B00021206BE70C7833F8242012F4804F0CD0D1
:1038C00033F8242092B222F4E04222F0700242F453
:1038D000404242F0800223F824200C7833F8242060
:1038E00012F0400F0CD033F8242092B222F4E042C0
:1038F00022F0700242F4004242F0C00223F8242079
:10390000CA78012A1ED00C7833F8242092B222F40F
:10391000E04222F0400282F0200242F4004242F0F3
:10392000800223F82420097833F8212092B222F46F
:10393000804222F0700242F4004242F0800223F8FA
:10394000212023E70C7833F8242092B222F4E042BD
:1039500022F0400242F4004242F0800223F8242088
:10396000E1E70B7B002B46D14B7813B30A7830F894
:10397000223013F0400F0CD030F822309BB223F4E9
:10398000E04323F0700343F4004343F0C00320F806
:1039900022300A7830F822309BB223F4E04323F03F
:1039A000400343F4004343F0800320F8223000201A
:1039B00070470A7830F8223013F4804F0CD030F87A
:1039C00022309BB223F4E04323F0700343F44043DE
:1039D00043F0800320F822300A7830F822309BB27E
:1039E00023F4804323F0700343F4004343F0800347
:1039F00020F82230DBE74B78002B4ED10A7830F8E4
:103A0000223013F4804F0CD030F822309BB223F4D4
:103A1000E04323F0700343F4404343F0800320F875
:103A200022300A7830F8223013F0400F0CD030F8F2
:103A300022309BB223F4E04323F0700343F40043AD
:103A400043F0C00320F822300A7830F822309BB2CD
:103A500023F4E04323F0700343F4004343F0C00336
:103A600020F822300B7830F8232092B222F48042E2
:103A700022F0700248F2800C42EA0C0220F8232067
:103A80000A7830F822309BB223F4E04323F040035D
:103A900043EA0C0320F8223089E70A7830F8223014
:103AA00013F4804F0CD030F822309BB223F4E04363
:103AB00023F0700343F4404343F0800320F82230A6
:103AC0000A7830F8223013F0400F0CD030F8223052
:103AD0009BB223F4E04323F0700343F4004343F02C
:103AE000C00320F822300A7830F822309BB223F449
:103AF000E04323F0700343F4404343F0800320F895
:103B000022300B7830F8232092B222F4E04222F0E7
:103B1000400248F2800C42EA0C0220F823200A7886
:103B200030F822309BB223F4804323F0700343EA41
:103B30000C0320F822303AE74B788BB10A7830F842
:103B400022309BB223F4E04323F0400383F01003C0
:103B500043F4004343F0800320F8223000207047F4
:103B60000A7830F822309BB223F4804323F07003AC
:103B700083F4805343F4004343F0800320F8223061
:103B8000ECE70B7B002B4BD14B7833B30A7830F842
:103B9000223013F0400F0CD030F822309BB223F4C7
:103BA000E04323F0700343F4004343F0C00320F8E4
:103BB0002230CB78012B33D00A7830F822309BB2F8
:103BC00023F4E04323F0400383F0200343F4004355
:103BD00043F0800320F8223022E00A7830F82230C7
:103BE00013F4804F0CD030F822309BB223F4E04322
:103BF00023F0700343F4404343F0800320F8223065
:103C00000A7830F822309BB223F4804323F070030B
:103C100083F4405343F4004343F0800320F8223000
:103C20000020704711B98023A0F84C300020704765
:103C30000020704700207047B0F8440080B2704701
:103C40000020704710B45C1C640800EB420202F5CF
:103C5000806207E00B78487843EA002322F8043BAF
:103C60000231013C002CF5D110BC704770B50546FF
:103C70000C464B78012B37D00A7B002A40F0268374
:103C80008B690A69934240F204839B1A8B61B5F8F1
:103C900050309BB22B44217803EB0113002A40F0F3
:103CA000FC82B3F80C2492B222F4F84292B2A3F848
:103CB0000C24B3F80C246FEA42426FEA524292B2EB
:103CC000A3F80C24227835F822309BB223F48043E9
:103CD00023F0700383F4405343F4004343F0800324
:103CE00025F82230002070BD8E690A69964200D9FD
:103CF0001646237B002B39D0E378022B58D022784C
:103D000035F822309BB223F4E04323F0700343F4F0
:103D1000014343F0800325F82230236A9B1B236272
:103D2000237835F8232012F0400F00F026826278C5
:103D3000002A40F0CA81B5F8502092B22A4402EB22
:103D40000313002E40F0A881B3F80C2492B222F4A1
:103D5000F84292B2A3F80C24B3F80C246FEA424262
:103D60006FEA524292B2A3F80C24B0E1B6B23346E5
:103D7000E28861692846FFF765FFB5F850309BB2CD
:103D80002B44227803EB0213A3F80464227835F85D
:103D900022309BB223F4E04323F0400383F030034E
:103DA00043F4004343F0800325F8223000209AE7D3
:103DB000236A9A4280F05281227835F822309BB2F1
:103DC00023F4E04323F0700343F4014343F0800302
:103DD00025F82230236A9B1B2362237835F82320A1
:103DE00012F0400F00F09D8062788ABBB5F8502039
:103DF00092B22A4402EB03138EB9B3F80C2492B2A8
:103E000022F4F84292B2A3F80C24B3F80C246FEA1F
:103E100042426FEA524292B2A3F80C241AE03E2EBC
:103E200009D8720816F0010F00D00132920292B246
:103E3000A3F80C240EE0720916F01F0F00D1013A0E
:103E40006FEAC2626FEA524292B2A3F80C2401E018
:103E5000012A2BD0B3B2628961692846FFF7F2FECE
:103E6000636933446361236A2269934228D99B1BA7
:103E700023626378002B40D1B5F850309BB22B44BD
:103E8000227803EB0213FEB9B3F8042492B222F4B1
:103E9000F84292B2A3F80424B3F804246FEA424231
:103EA0006FEA524292B2A3F8042428E0B5F85020F9
:103EB00092B22A4402EB0313B2B2A3F80C24C9E76E
:103EC000002222621E46D4E73E2E09D8720816F060
:103ED000010F00D00132920292B2A3F804240EE046
:103EE000720916F01F0F00D1013A6FEAC2626FEA41
:103EF000524292B2A3F8042401E0012B06D0B3B2DF
:103F0000228961692846FFF79DFE3FE7B5F85030EA
:103F10009BB22B44227803EB0213B2B2A3F8042421
:103F2000EDE762788ABBB5F8502092B22A4402EBE2
:103F300003138EB9B3F8042492B222F4F84292B279
:103F4000A3F80424B3F804246FEA42426FEA524211
:103F500092B2A3F804241AE03E2E09D8720816F093
:103F6000010F00D00132920292B2A3F804240EE0B5
:103F7000720916F01F0F00D1013A6FEAC2626FEAB0
:103F8000524292B2A3F8042401E0012A2BD0B3B22A
:103F9000228961692846FFF755FE636933446361EE
:103FA000236A2269934228D99B1B23626378002BE2
:103FB00040D1B5F850309BB22B44227803EB02136A
:103FC000FEB9B3F80C2492B222F4F84292B2A3F8EC
:103FD0000C24B3F80C246FEA42426FEA524292B2C8
:103FE000A3F80C2428E0B5F8502092B22A4402EB42
:103FF0000313B2B2A3F80424C9E7002222621E46CA
:10400000D4E73E2E09D8720816F0010F00D0013215
:10401000920292B2A3F80C240EE0720916F01F0F60
:1040200000D1013A6FEAC2626FEA524292B2A3F83B
:104030000C2401E0012B06D0B3B2628961692846E5
:10404000FFF700FEA2E6B5F850309BB22B44227871
:1040500003EB0213B2B2A3F80C24EDE7217835F894
:10406000212092B222F4E24222F0700242F4004295
:1040700042F0800225F82120B5F8502092B22A445F
:10408000217802EB01129BB2A2F804342289616903
:104090002846FFF7D7FD79E63E2E09D8720816F0BC
:1040A000010F00D00132920292B2A3F80C240EE06C
:1040B000720916F01F0F00D1013A6FEAC2626FEA6F
:1040C000524292B2A3F80C2401E0012A26D0B3B2E6
:1040D000628961692846FFF7B5FD6369334463610E
:1040E000236A2269934223D99B1B2362002E3FF44B
:1040F0004DAE63786BBBB5F850309BB22B44227841
:1041000003EB02133E2E17D8720816F0010F00D0F1
:104110000132920292B2A3F804241CE0B5F85020B8
:1041200092B22A4402EB0313B2B2A3F80C24CEE7F6
:10413000002222621E46D9E7720916F01F0F00D135
:10414000013A6FEAC2626FEA524292B2A3F80424C3
:1041500001E0012B06D0B3B2228961692846FFF73E
:1041600071FD13E6B5F850309BB22B44227803EB77
:104170000213B2B2A3F80424EDE762788ABBB5F863
:10418000502092B22A4402EB03138EB9B3F80424F0
:1041900092B222F4F84292B2A3F80424B3F80424B1
:1041A0006FEA42426FEA524292B2A3F804241AE044
:1041B0003E2E09D8720816F0010F00D0013292028B
:1041C00092B2A3F804240EE0720916F01F0F00D17A
:1041D000013A6FEAC2626FEA524292B2A3F8042433
:1041E00001E0012A26D0B3B2228961692846FFF78F
:1041F00029FD636933446361236A2269934223D9A9
:104200009B1B2362002E3FF4C1AD63786BBBB5F8F6
:1042100050309BB22B44227803EB02133E2E17D86A
:10422000720816F0010F00D00132920292B2A3F888
:104230000C241CE0B5F8502092B22A4402EB031380
:10424000B2B2A3F80424CEE7002222621E46D9E7C8
:10425000720916F01F0F00D1013A6FEAC2626FEACD
:10426000524292B2A3F80C2401E0012B06D0B3B263
:10427000628961692846FFF7E5FC87E5B5F85030AB
:104280009BB22B44227803EB0213B2B2A3F80C24A6
:10429000EDE700228A611A46F9E43E2A09D851085E
:1042A00012F0010F00D00131890289B2A3F80C1479
:1042B00008E5510912F01F0F00D101396FEAC16101
:1042C0006FEA514189B2A3F80C14FBE4CA78022AC0
:1042D00045D0012A40F0208189692269914240F24B
:1042E000D480891AA161D3B9B5F850309BB22B4460
:1042F000217803EB0113002A40F0CB80B3F80414BB
:1043000089B221F4F84189B2A3F80414B3F8041473
:104310006FEA41416FEA514189B2A3F8041463780E
:10432000002B40F0EA80B5F850309BB22B44217846
:1043300003EB0113002A40F0C580B3F80C2492B2BD
:1043400022F4F84292B2A3F80C24B3F80C246FEADA
:1043500042426FEA524292B2A3F80C24B2E4CBB9C3
:10436000B0F850309BB203440A7803EB02130A6999
:1043700072BBB3F8042492B222F4F84292B2A3F8CA
:104380000424B3F804246FEA42426FEA524292B224
:10439000A3F804246378002B4CD1B5F850309BB2BD
:1043A0002B44227803EB0213226952BBB3F80C248E
:1043B00092B222F4F84292B2A3F80C24B3F80C247F
:1043C0006FEA42426FEA524292B2A3F80C2433E001
:1043D0003E2A09D8510812F0010F00D001318A029B
:1043E00092B2A3F80424D5E7510912F01F0F00D1AF
:1043F00001396FEAC1626FEA524292B2A3F8042413
:10440000C8E73E2A09D8510812F0010F00D0013147
:104410008A0292B2A3F80C240EE0510912F01F0F89
:1044200000D101396FEAC1626FEA524292B2A3F839
:104430000C2401E0012B1DD0E369002B3FF442ACBA
:10444000227835F8221044F2400303EA01008B433E
:1044500002D000287FF436AC35F822309BB223F42A
:10446000E04323F0700343F4004343F0C00325F816
:10447000223027E4B5F850309BB22B44227803EB6E
:104480000213228AA3F80C24D6E70022A2610A466E
:1044900029E73E2A09D8510812F0010F00D0013156
:1044A000890289B2A3F8041439E7510912F01F0FE9
:1044B00000D101396FEAC1616FEA514189B2A3F8B5
:1044C00004142CE73E2A0AD8510812F0010F00D03C
:1044D00001318A0292B2A3F80C24FFF7F3BB510911
:1044E00012F01F0F00D101396FEAC1626FEA524228
:1044F00092B2A3F80C24FFF7E5BB012B7FF4E2ABEB
:10450000B5F850309BB22B44217803EB011392B2E3
:10451000A3F80C24FFF7D6BB0120FFF7E4BB10B4CF
:104520005C0800EB420000F5806007E030F8042BE7
:104530000A70C2F307224A700231013C002CF5D107
:1045400013F0010F01D003880B7010BC70470000FE
:104550002223038000487047840000202223038028
:1045600000487047A80000202223038000487047BD
:10457000E4000020D0F8B832002018737047000023
:104580000A23038000487047D800002070B582B02D
:10459000D0F8B8520023ADF806300C7814F060045F
:1045A00025D0202C72D14B78023B092B1BD8DFE899
:1045B00003F014091A1A1A1A1A1A0F058B782B60AD
:1045C000002466E00122294600F036FD002460E068
:1045D0004B881B0A6B6000245BE00122291D00F060
:1045E0002BFD002455E000F01BFA022451E04E7828
:1045F0000B2E47D8DFE806F00646464646461546E7
:1046000046462D3B90F89C32032B03D000F008FA6D
:1046100002243EE002220DF1060100F00DFD3446B9
:1046200037E04B881B0A222B09D0212B0DD1CA88D9
:10463000092A28BF0922184900F0FEFC29E0CA888F
:104640003F2A28BF3F221549F6E700F0E9F9022486
:104650001FE090F89C32032B03D000F0E1F9022414
:1046600017E0012205F1080100F0E6FC11E090F8E6
:104670009C32032B02D18B78AB600AE000F0D0F9BA
:10468000022406E000F0CCF9022402E000F0C8F9B0
:104690000224204602B070BDCC0000200C00002097
:1046A00010B50446812100F074FE0023E362D4F8C3
:1046B000B80220B100F0B8FE0023C4F8B8320020E0
:1046C00010BD10B5044604230322812100F056FEDC
:1046D0000123E362102000F0A3FEC4F8B80218B171
:1046E00000230373184610BD0220FCE710B5D0F874
:1046F000B84290F89C32032B01D0002010BD237BE0
:10470000002BFAD10123237313460A46812100F0BE
:1047100077FEF2E798B108B50346D0F8B40210B1BD
:104720000020C3F8B40209B1C3F8B012012183F824
:104730009C121A70184600F0E5FD002008BD02200A
:10474000704719B1C0F8B4120020704702207047BA
:1047500008B500F00BFE002008BD08B5D0F8B43253
:104760002BB11B68984700B908BD0220FCE7022066
:10477000FAE708B5D0F8B4325B689847002008BD66
:1047800038B5044600F52A75284600F035F90123AE
:10479000C4F89432B4F8AE32C4F8983294F8A8123F
:1047A00001F01F03012B0ED0022B11D02BB101F011
:1047B0008001204600F0F5FD03E02946204600F088
:1047C000C9FA002038BD2946204600F0F7FAF8E77C
:1047D0002946204600F022FBF3E738B504460D4693
:1047E00091BB1346D0F89422032A03D0052A24D083
:1047F000084633E0D0F86011D0F8642191420DD919
:10480000891AC0F860118A4206D98AB21946204630
:1048100000F027FC284621E092B2F7E7D0F8B43246
:104820001B691BB190F89C22032A04D0204600F09B
:1048300020FC284612E09847F8E70021C0F89412BF
:1048400000F0AFFD284609E0D0F8B4329B6933B1DF
:1048500090F89C22032A04D19847002038BD0220FA
:10486000FCE70220FAE738B504460D46002953D18B
:104870001346D0F89422022A0CD0042A00D01AB988
:104880008021204600F08DFD94F8A032012B3ED00F
:10489000284638BD016A426A91421BD8C169B1FB02
:1048A000F2F302FB13132BB98A4203D8D0F89832E3
:1048B00099421CD3D4F8B432DB681BB194F89C2223
:1048C000032A21D08021204600F06BFD204600F015
:1048D000DBFBD9E78A1A026292B2194600F0B9FBF3
:1048E00000231A461946204600F092FDCCE700222C
:1048F000114600F0AEFB0021C4F898120B460A46A0
:10490000204600F085FDBFE720469847DAE7002300
:1049100084F8A0322846BCE7D0F8B4325B6933B1E2
:1049200090F89C22032A04D198470020B1E7022086
:10493000AFE70220ADE770B50446402300221146E0
:1049400000F01CFD0125C4F858514026C4F86461EC
:10495000334600228021204600F010FDA5616662EA
:1049600084F89C520023C4F894326360C4F8A432E3
:10497000D4F8B8322BB1D4F8B4325B6800212046A9
:104980009847002070BD01740020704790F89C3259
:1049900080F89D32042380F89C320020704790F804
:1049A0009C32042B01D00020704790F89D3280F893
:1049B0009C32F8E708B590F89C32032B01D0002018
:1049C00008BDD0F8B432DB69002BF8D09847F6E781
:1049D0000346002002E00130C0B201331A78002AF9
:1049E000F9D1704708B54B88012B00D008BDC0F83D
:1049F000A43200F03EFBF9E70B7803704B7843706C
:104A00008B78CA7803EB022343800B794A7903EB56
:104A1000022383808B79CA7903EB0223C38070471A
:104A200010B50446802100F0BCFC0021204600F0B7
:104A3000B8FC10BD30B583B005460C460023ADF878
:104A400006304A88130A013B062B00F2A480DFE8F7
:104A500003F004182CA2A2869300D0F8B0321B6891
:104A60000DF10601007C9847BDF806201AB1E388D5
:104A7000002B40F09480E388002B00F09A8003B074
:104A800030BD037C43B9D0F8B4329B6A0DF1060007
:104A9000984702234370E7E7D0F8B432DB6A0DF1A0
:104AA0000600984702234370DEE7D2B2052A52D8A7
:104AB000DFE802F003101D2A3744D0F8B0325B68FB
:104AC00023B10DF10601007C9847CDE72146FFF7A1
:104AD000A7FFD4E7D0F8B0329B6823B10DF10601EF
:104AE000007C9847C0E72146FFF79AFFC7E7D0F858
:104AF000B032DB6823B10DF10601007C9847B3E7C3
:104B00002146FFF78DFFBAE7D0F8B0321B6923B119
:104B10000DF10601007C9847A6E72146FFF780FFCC
:104B2000ADE7D0F8B0325B6923B10DF10601007C2E
:104B3000984799E72146FFF773FFA0E7D0F8B03216
:104B40009B6923B10DF10601007C98478CE7214653
:104B5000FFF766FF93E72146FFF762FF8FE7037CCD
:104B600033B9D0F8B4325B6B0DF1060098477BE7A0
:104B70002146FFF755FF82E7037C43B9D0F8B432F2
:104B80001B6B0DF106009847072343706CE7214625
:104B9000FFF746FF73E72146FFF742FF6FE79A42B0
:104BA00028BF1A46ADF806200146284600F044FA10
:104BB00061E7284600F05DFA61E738B504468B8866
:104BC000F3B9CB88E3B94B887F2B19D803F07F0565
:104BD00090F89C32032B0CD080F89E52294600F0AE
:104BE00007FC204600F045FA35B1022384F89C32D8
:104BF00009E0FFF715FF06E0012384F89C3202E08C
:104C00002046FFF70DFF38BD38B504460D468978BC
:104C1000284B197001290ED890F89C32022B0ED027
:104C2000032B21D02946FFF7FBFE224B19782046A3
:104C3000FFF79FFD02E02946FFF7F2FE38BD81B184
:104C40004160032380F89C32FFF787FD022803D0E0
:104C5000204600F00EFAF1E729462046FFF7E0FE75
:104C6000ECE700F006FAE9E789B1436899421DD004
:104C7000D9B2FFF77EFD0F4B197861602046FFF730
:104C80006CFD02280DD0204600F0F3F9D6E7022390
:104C900080F89C324160FFF76CFD204600F0E9F996
:104CA000CCE729462046FFF7BBFEC7E700F0E1F955
:104CB000C4E700BFD80B002008B5CB88012B0AD170
:104CC00090F89C32022B09D9032B09D10122011D36
:104CD00000F0B2F901E0FFF7A3FE08BD5BB213B923
:104CE000FFF79EFEF9E70146002341F8083F012245
:104CF00000F0A2F9F1E708B590F89C32013B022BD5
:104D000012D8CB88022B0CD10123C360D0F8A43277
:104D10000BB10323C360022200F10C0100F08CF9F7
:104D200008BDFFF77DFEFBE7FFF77AFEF8E708B561
:104D300090F89C32013B022B09D84B88012B00D004
:104D400008BD0023C0F8A43200F093F9F8E7FFF79C
:104D500067FEF5E708B50B7803F06003202B05D05C
:104D6000402B03D043B1FFF75BFE03E0D0F8B43231
:104D70009B689847002008BD4B78092B1BD8DFE8BB
:104D800003F011171A141A08051A0E0BFFF752FE3A
:104D9000F0E7FFF712FFEDE7FFF736FFEAE7FFF76F
:104DA0008BFFE7E7FFF7A7FFE4E7FFF71BFEE1E76D
:104DB000FFF7BDFFDEE7FFF733FEDBE738B505465B
:104DC0000C460B7803F06003202B06D0402B04D058
:104DD0001BB1FFF725FE002038BD95F89C32013B42
:104DE000022B16D82379012B0ED8D5F8B4329B6844
:104DF000214628469847E388002BECD10028EAD1C9
:104E0000284600F036F9E6E721462846FFF708FE77
:104E1000E1E721462846FFF703FEDCE770B50546CB
:104E20008B880C7804F06004202C07D0DAB2402C78
:104E300004D05CB1FFF7F4FD002405E0D5F8B432EE
:104E40009B68284698470024204670BD202C09D036
:104E50004E78012E33D0032E0AD0002E55D0FFF706
:104E6000DFFDF1E7D0F8B4329B6898470446EBE7E2
:104E700090F89C32022B04D0032B11D0FFF7D0FD09
:104E8000E2E70AB1802A03D12846FFF7C9FDDBE734
:104E9000114600F086FA8021284600F082FAD3E716
:104EA0004B8823B91AB1802A01D0CB881BB1284680
:104EB00000F0DFF8C8E7114600F073FAF7E790F862
:104EC0009C32022B04D0032B11D0FFF7A9FDBBE7C6
:104ED0000AB1802A03D12846FFF7A2FDB4E71146A4
:104EE00000F05FFA8021284600F05BFAACE74B88BF
:104EF000002BA9D112F07F0F03D1284600F0B9F89A
:104F0000A2E7114600F055FAF7E790F89C02022854
:104F100006D0032829D02846FFF782FD344693E7C0
:104F20000AB1802A13D113F0800F15D102F07F024D
:104F300002EB8202910001F5A8712944043100239B
:104F40000B600222284600F077F834467CE72846BA
:104F5000FFF766FD344677E702F07F0202EB82023C
:104F60009100103129440431E9E75BB2002B1FDBCB
:104F700002F00F0000EB800005EB8000D0F8580134
:104F800020B3002B27DB02F07F0303EB83039C009D
:104F900004F5A8742C4404340AB1802A24D10023D7
:104FA000236002222146284600F046F834464BE7AB
:104FB00002F00F0000EB800005EB80008069002804
:104FC000DFD12846FFF72CFD34463DE72846FFF7A2
:104FD00027FD344638E702F07F0303EB83039C0090
:104FE00010342C440434D7E71146284600F0E9F980
:104FF00010B101232360D4E700232360D1E7D0B1AF
:1050000070B50D4616460446FFF7E2FC431C5B00F4
:105010009BB233802B7003236B70022307E00134B3
:105020005A1CD2B2E8540233DBB20021A9542078D2
:105030000028F4D170BD704708B513460222C0F8AD
:105040009422C36103620A46002100F0D9F90020CE
:1050500008BD08B513460A46002100F0D1F900202A
:1050600008BD08B513460A46002100F0D1F900201A
:1050700008BD08B50423C0F8943200231A46194627
:1050800000F0BEF9002008BD08B50523C0F8943231
:1050900000231A46194600F0BBF9002008BD0000A5
:1050A00008B500220B490C48FFF734FB48B90B49FF
:1050B0000948FFF746FB38B90748FFF749FB30B905
:1050C00008BDFBF743FFF2E7FBF740FFF4E7FBF710
:1050D0003DFFF5E708010020DC0B00204C0000201C
:1050E00012230B80004870472401002004230B800A
:1050F0000048704738010020002393421ED200B5BB
:1051000010E00CF1370C01F813C000014FEA430C1A
:105110000CF1010C4FF0000E01F80CE00133DBB292
:10512000934209D24FEA107CB0F1204FE9D20CF142
:10513000300C01F813C0E8E75DF804FB704700008D
:1051400038B50B4BD3F8E807D3F8EC47D3F8F03772
:10515000C01800D138BD074D0822A91CFFF7CCFFAD
:10516000042205F112012046FFF7C6FFF2E700BF57
:1051700000F0FF1F3C01002008B51A230B80FFF749
:10518000DFFF014808BD00BF3C01002008B50A460A
:1051900028B905490548FFF732FF034808BD024911
:1051A0000248FFF72CFFF8E7A00E002024B6000805
:1051B00010B50A46034C21460348FFF720FF20465E
:1051C00010BD00BFA00E00203CB6000808B50A467E
:1051D00028B905490548FFF712FF034808BD0249F1
:1051E0000248FFF70CFFF8E7A00E002050B60008B9
:1051F00008B50A4628B905490548FFF700FF0348E6
:1052000008BD02490248FFF7FAFEF8E7A00E0020A9
:105210005CB60008022805D8DFE800F005040200AB
:10522000012070470220704702680E4B9A4200D05E
:10523000704700B583B003F5DA33DA6942F400024F
:10524000DA61DB6903F400030193019B002211463C
:105250001420FCF7F5F81420FCF72AF903B05DF8E8
:1052600004FB00BF005C004008B500F52C71D0F8CD
:10527000E802FFF785FA08BD08B501EB810300EBF2
:10528000C303D3F87C21D0F8E802FFF7A6FA08BDE3
:1052900008B501EB810300EBC303DA6BD0F8E80239
:1052A000FFF7E1FA08BD08B5D0F8E802FFF782FB86
:1052B00008BD10B504468368022B09D10121D4F83A
:1052C000E802FFF760FBD4F8E802FFF734FB10BDFB
:1052D000FBF73CFEF2E7000010B50446D0F8E80208
:1052E000FFF754FBA36923B1024A136943F0060395
:1052F000136110BD00ED00E008B5D0F8E802FFF73B
:105300004EFB08BD10B504461648C0F8E842C4F884
:10531000C002154B0360082343600223836000230F
:105320008361C3610362FCF7F9FAB8B9182300225C
:105330001146D4F8C002FDF7F5F958230022802168
:10534000D4F8C002FDF7EEF94FF4807300228121FA
:10535000D4F8C002FDF7E6F9002010BDFBF7F6FD1A
:10536000E4E700BFA0100020005C004008B5D0F8C2
:10537000C002FCF75FFBFFF74DFF08BD08B5944680
:105380001A466346D0F8C002FDF797F8FFF742FFD0
:1053900008BD08B5D0F8C002FDF7D1F8FFF73AFF15
:1053A00008BD08B5D0F8C002FDF745F9FFF732FF98
:1053B00008BD08B5D0F8C002FDF779F9FFF72AFF5C
:1053C00008BDD0F8C03211F0800F08D101F07F0184
:1053D00001EB810103EBC10191F86A01704701F013
:1053E0007F01013101EB810103EBC1018878704736
:1053F00008B5D0F8C002FCF762FFFFF70BFF08BD4D
:1054000008B5D0F8C002FDF7EEF8FFF703FF08BDBE
:1054100008B5D0F8C002FDF7C4F8FFF7FBFE08BDE1
:10542000004870478C13002070477047014B186884
:10543000704700BF5801002070B50D4E0D4D761B12
:10544000B61006D0002455F8043B01349847A64214
:10545000F9D1094E094D06F0A5F8761BB61006D015
:10546000002455F8043B01349847A642F9D170BD99
:1054700030BA000830BA000838BA000830BA00085C
:10548000830730B548D0541E002A3FD00346CAB225
:1054900001E0013C3AD303F8012B9D07F9D1032C1D
:1054A0002DD9CDB245EA05250F2C45EA054536D95B
:1054B000A4F1100222F00F0C03F1200EE6444FEA93
:1054C000121C03F1100242E9045542E90255103260
:1054D0007245F8D10CF1010214F00C0F03EB02122B
:1054E00004F00F0C13D0ACF1040323F003030433D6
:1054F000134442F8045B9342FBD10CF003042CB13B
:10550000CAB21C4403F8012B9C42FBD130BD644657
:105510001346002CF4D1F9E703461446BFE71A46B8
:10552000A446E0E70FB400B5074A83B004AB1068A7
:1055300053F8042B8168019300F094F803B05DF8F0
:1055400004EB04B0704700BF58010020024B014635
:105550001868826804F0E0BA5801002030B50546AA
:1055600089B008460C4600F04FF801210223214A79
:1055700004940692AA6B04AC059008440194079128
:10558000AC680293039022B3636E13F0010FB4F979
:105590000C309AB201D1980525D5910406D4626EDB
:1055A00043F4005322F40052A3816266284601AA04
:1055B000214603F079F9636E002814BF4FF0FF35E0
:1055C0000A25DA0702D4A3899B0506D5284609B027
:1055D00030BD284602F070FFD6E7A06D03F00AFB4D
:1055E000284609B030BDA06D03F002FBB4F90C30C1
:1055F0009AB2D2E770B60008024B01461868FFF76E
:10560000ADBF00BF5801002020F0030110F00300DF
:10561000C0F1000051F8043B00F1040C4FEACC0C3F
:105620006FF000021CBF22FA0CF213434FF0010C82
:105630004CEA0C2C4CEA0C4CA3EB0C0222EA0302C1
:1056400012EACC1204BF51F8043B0430F4D0C2F18A
:10565000000102EA0102B2FA82F2C2F11F0200EB7B
:10566000D20070472DE9F04FD5B01C469146079106
:105670000546099003F0B4FA02680E94104617929A
:10568000FFF7C2FF16901DB1AB6B002B00F01D821F
:10569000079A536EDD0740F12D81B2F90C2091B2CB
:1056A0008F0409D4079B42F400529A8191B21A46A2
:1056B0005B6E23F4005353660E0740F1C080079BD6
:1056C0001B69002B00F0BB8001F01A030A2B00F0CD
:1056D000C48000242BAB224698464D46CDE9294490
:1056E0002893129400230024CDE914342B78CDE9BB
:1056F0001922CDE91B2218920B92002B00F08F810A
:10570000AA4604E01AF8013F002B00F0BB80252BCD
:10571000F8D1BAEB050640F0B9809AF80030002BBA
:1057200000F07D8100234FF0FF324FF02B09202441
:105730001F469AF8016008920AF1010A8DF8833039
:105740000A930AF1010AA6F120035A2B00F2E18024
:10575000DFE813F00503DF00DF000003DF00DF00F8
:10576000DF00DE02DF00DF006A006E02DF005502AC
:105770007802DF0073025B005B005B005B005B0094
:105780005B005B005B005B00DF00DF00DF00DF0031
:10579000DF00DF00DF006C01DF00EA01C4016C0103
:1057A0006C016C01DF00DF00DF00DF00D002DF00F2
:1057B000DF002302DF00DF00DF00F801DF009202DC
:1057C000DF00DF008707DF00DF00DF00DF00DF0032
:1057D000DF00DF00DF006C01DF00EA01C6016C01C1
:1057E0006C016C01B602C601BF01DF00C302DF001D
:1057F0005A022502A402BF01DF00F80172008407EB
:10580000DF00DF006507DF0072000022A6F1300331
:105810001AF8016B02EB820203EB4202A6F130039D
:10582000092BF5D90A928EE70E9B53F8042B002A18
:105830000A920E93C0F2E0819AF8006081E7079D1A
:105840000998294601F0FCFC002841F04D83A98904
:1058500001F01A030A2B7FF43CAF079AB2F90E301D
:10586000002BFFF636AF536ED80702D4890541F1FD
:10587000488123464A460799099855B0BDE8F04F3C
:1058800001F09CBCBAEB050600F0C9802A9BC8E970
:10589000005633442A93299B0133072B299305DCB7
:1058A00008F108080B9B33440B9336E707990998D6
:1058B00028AA04F059FC80B90DF1AC08F2E7079969
:1058C000099828AA04F050FC002800F099800D9B4C
:1058D0001BB11946099802F0E7FE079A536ED907E3
:1058E00040F1E88093895B0601F10A830B9855B07B
:1058F000BDE8F08F079BB3F90C20900591B23FF5FE
:10590000CFAE1D46986D03F073F9B5F90C2091B236
:10591000C6E6002E00F08380012300228DF8EC60A3
:1059200006933BAD8DF883200C930D9208920F9255
:105930001392109217F0020302D0069902310691D9
:1059400017F0840B07D10A990698A1EB0009B9F169
:10595000000F00F390832A9C82B10122C8F8042032
:10596000299A013401320DF18301072A2A942992E0
:10597000C8F8001000F3D88308F108087BB10223AF
:10598000C8F80430299B0234013321AA072B2A943A
:105990002993C8F8002000F3D58308F10808BBF16B
:1059A000800F00F08882089B0C9AA3EB020BBBF1DE
:1059B000000F00F3CB82FB0500F11F820C9BC8F89F
:1059C00000501C44C8F80430299B2A940133072B4B
:1059D000299300F3448308F10808780705D50A9B4A
:1059E000069A9D1A002D00F3B983DDE90A23069972
:1059F0008A42ACBF9B185B180B93002C7FF45FAFFF
:105A0000002329930D9B1BB10D99099802F04CFEC0
:105A100055460DF1AC082B78002B7FF471AE2A9B14
:105A2000002B41F010820023299356E70E9B073389
:105A300023F00702F2E80234CDE91434DDE914342E
:105A400024F00044994618460E9221464FF0FF324A
:105A5000AB4BFBF749F8002840F018854846214633
:105A60004FF0FF32A64BFBF721F8002840F00E85DF
:105A7000DDE9140100220023FBF70EF8002840F0B6
:105A800065879DF88320002103209E4D9E4B27F0C3
:105A900080070D910690472EC8BF1D4608910C90B7
:105AA0000F9113911091002A3FF444AF069B0133EC
:105AB00006933FE7079B9B899A053FF514AF079C28
:105AC000A06D03F097F8A3890DE7099802F0F4FCA4
:105AD000DEE59AF8006047F0200732E647F010074D
