:020000040800F2
:1000000000500020A5190008491800084B180008E6
:100010004D1800084F180008511800080000000093
:10002000000000000000000000000000531800085D
:10003000551800080000000057180008591800085B
:10004000ED190008ED190008ED190008ED19000878
:10005000ED190008ED190008ED190008ED19000868
:10006000ED190008ED190008ED190008ED19000858
:10007000ED190008ED190008ED190008ED19000848
:10008000ED190008ED190008ED190008ED19000838
:10009000ED190008ED190008ED190008ED19000828
:1000A000ED190008ED190008ED190008ED19000818
:1000B000ED190008ED190008ED190008ED19000808
:1000C000ED190008ED190008ED190008ED190008F8
:1000D000ED19000861180008ED190008ED19000875
:1000E000D9180008ED190008ED19000800000000FB
:1000F0000000000000000000000000000000000000
:0C01000000000000000000005FF808F1A3
:1001100010B5054C237833B9044B13B10448AFF341
:1001200000800123237010BDD009002000000000D2
:100130002CBB000808B5034B1BB103490348AFF3C0
:10014000008008BD00000000D40900202CBB00087E
:10015000844641EA000313F0030349D1403A23D314
:100160000B6803604B6843608B688360CB68C36037
:100170000B6903614B6943618B698361CB69C3611F
:100180000B6A03624B6A43628B6A8362CB6AC36207
:100190000B6B03634B6B43638B6B8363CB6BC363EF
:1001A00040304031403ADBD230320BD30B68036031
:1001B0004B6843608B688360CB68C360103010313C
:1001C000103AF3D20C3205D351F8043B40F8043B0B
:1001D000043AF9D2043208D0D2071CBF11F8013B0F
:1001E00000F8013B01D30B8803806046704700BFD5
:1001F000082A13D38B07B1D010F00303AED0C3F19C
:100200000403D21ADB071CBF11F8013B00F8013BC5
:10021000A4D331F8023B20F8023B9FE7043AD9D33C
:10022000013A11F8013B00F8013BF9D20B78037059
:100230004B7843708B7883706046704781F0004143
:1002400002E000BF83F0004330B54FEA41044FEABB
:10025000430594EA050F08BF90EA020F1FBF54EA56
:10026000000C55EA020C7FEA645C7FEA655C00F0F2
:10027000E2804FEA5454D4EB5555B8BF6D420CDDC3
:100280002C4480EA020281EA030382EA000083EA46
:10029000010180EA020281EA0303362D88BF30BDE6
:1002A00011F0004F4FEA01314FF4801C4CEA11313C
:1002B00002D0404261EB410113F0004F4FEA03339B
:1002C0004CEA133302D0524263EB430394EA050F26
:1002D00000F0A780A4F10104D5F1200E0DDB02FA95
:1002E0000EFC22FA05F2801841F1000103FA0EF229
:1002F000801843FA05F359410EE0A5F120050EF1EF
:10030000200E012A03FA0EFC28BF4CF0020C43FA1F
:1003100005F3C01851EBE37101F0004507D54FF02C
:10032000000EDCF1000C7EEB00006EEB0101B1F57C
:10033000801F1BD3B1F5001F0CD349085FEA3000C2
:100340004FEA3C0C04F101044FEA445212F5800FCD
:1003500080F09A80BCF1004F08BF5FEA500C50F16A
:10036000000041EB045141EA050130BD5FEA4C0C4D
:10037000404141EB0101013C28BFB1F5801FE9D2AA
:1003800091F0000F04BF01460020B1FA81F308BFCD
:100390002033A3F10B03B3F120020CDA0C3208DD99
:1003A00002F1140CC2F10C0201FA0CF021FA02F174
:1003B0000CE002F11402D8BFC2F1200C01FA02F1E4
:1003C00020FA0CFCDCBF41EA0C019040E41AA2BF09
:1003D00001EB0451294330BD6FEA04041F3C1CDAD1
:1003E0000C340EDC04F11404C4F1200220FA04F0F1
:1003F00001FA02F340EA030021FA04F345EA03019B
:1004000030BDC4F10C04C4F1200220FA02F001FA5C
:1004100004F340EA0300294630BD21FA04F02946DE
:1004200030BD94F0000F83F4801306BF81F4801177
:100430000134013D4EE77FEA645C18BF7FEA655CEA
:1004400029D094EA050F08BF90EA020F05D054EABC
:10045000000C04BF1946104630BD91EA030F1EBFC1
:100460000021002030BD5FEA545C05D140004941C5
:1004700028BF41F0004130BD14F580043CBF01F5B8
:10048000801130BD01F0004545F0FE4141F470019E
:100490004FF0000030BD7FEA645C1ABF1946104679
:1004A0007FEA655C1CBF0B46024650EA013406BF7A
:1004B00052EA033591EA030F41F4002130BD00BF39
:1004C00090F0000F04BF0021704730B54FF48064F6
:1004D00004F132044FF000054FF0000150E700BF77
:1004E00090F0000F04BF0021704730B54FF48064D6
:1004F00004F1320410F0004548BF40424FF00001C3
:100500003EE700BF42004FEAE2014FEA31014FEA05
:1005100002701FBF12F07F4393F07F4F81F0605154
:10052000704732F07F4208BF704793F07F4F04BF9F
:1005300041F40021704730B54FF4607401F000457C
:1005400021F000411CE700BF50EA010208BF7047DC
:1005500030B54FF000050AE050EA010208BF7047CD
:1005600030B511F0004502D5404261EB41014FF436
:10057000806404F132045FEA915C3FF4D8AE4FF03E
:1005800003025FEADC0C18BF03325FEADC0C18BF21
:10059000033202EBDC02C2F1200300FA03FC20FA72
:1005A00002F001FA03FE40EA0E0021FA02F11444BF
:1005B000BDE600BF70B54FF0FF0C4CF4E06C1CEAD8
:1005C00011541DBF1CEA135594EA0C0F95EA0C0F49
:1005D00000F0DEF82C4481EA030621EA4C5123EABC
:1005E0004C5350EA013518BF52EA033541F48011EB
:1005F00043F4801338D0A0FB02CE4FF00005E1FB9E
:1006000002E506F00042E0FB03E54FF00006E1FBE7
:1006100003569CF0000F18BF4EF0010EA4F1FF042A
:10062000B6F5007F64F5407404D25FEA4E0E6D416A
:1006300046EB060642EAC62141EA55514FEAC5207B
:1006400040EA5E504FEACE2EB4F1FD0C88BFBCF5F7
:10065000E06F1ED8BEF1004F08BF5FEA500E50F1A8
:10066000000041EB045170BD06F0004646EA01016E
:1006700040EA020081EA0301B4EB5C04C2BFD4EBA0
:100680000C0541EA045170BD41F480114FF0000E99
:10069000013C00F3AB8014F1360FDEBF002001F007
:1006A000004170BDC4F10004203C35DA0C341BDC81
:1006B00004F11404C4F1200500FA05F320FA04F053
:1006C00001FA05F240EA020001F0004221F0004187
:1006D00010EBD37021FA04F642EB06015EEA430EFA
:1006E00008BF20EAD37070BDC4F10C04C4F120052A
:1006F00000FA04F320FA05F001FA04F240EA0200DD
:1007000001F0004110EBD37041F100015EEA430EAD
:1007100008BF20EAD37070BDC4F1200500FA05F2CD
:100720004EEA020E20FA04F301FA05F243EA02034C
:1007300021FA04F001F0004121FA04F220EA02005B
:1007400000EBD3705EEA430E08BF20EAD37070BDA1
:1007500094F0000F0FD101F00046400041EB010181
:1007600011F4801F08BF013CF7D041EA060195F063
:10077000000F18BF704703F00046520043EB03031D
:1007800013F4801F08BF013DF7D043EA060370470A
:1007900094EA0C0F0CEA135518BF95EA0C0F0CD015
:1007A00050EA410618BF52EA4306D1D181EA03015B
:1007B00001F000414FF0000070BD50EA410606BF55
:1007C0001046194652EA430619D094EA0C0F02D19A
:1007D00050EA013613D195EA0C0F05D152EA0336DF
:1007E0001CBF104619460AD181EA030101F00041FD
:1007F00041F0FE4141F470014FF0000070BD41F046
:10080000FE4141F4780170BD70B54FF0FF0C4CF41F
:10081000E06C1CEA11541DBF1CEA135594EA0C0F3E
:1008200095EA0C0F00F0A7F8A4EB050481EA030E8B
:1008300052EA03354FEA013100F088804FEA033372
:100840004FF0805545EA131343EA12634FEA022240
:1008500045EA111545EA10654FEA00260EF0004101
:100860009D4208BF964244F1FD0404F5407402D253
:100870005B084FEA3202B61A65EB03055B084FEAE4
:1008800032024FF480104FF4002CB6EB020E75EBE1
:10089000030E22BFB61A754640EA0C005B084FEA09
:1008A0003202B6EB020E75EB030E22BFB61A754686
:1008B00040EA5C005B084FEA3202B6EB020E75EBD1
:1008C000030E22BFB61A754640EA9C005B084FEA49
:1008D0003202B6EB020E75EB030E22BFB61A754656
:1008E00040EADC0055EA060E18D04FEA051545EA45
:1008F00016754FEA06164FEAC30343EA52734FEAEE
:10090000C2025FEA1C1CC0D111F4801F0BD141EA66
:1009100000014FF000004FF0004CB6E711F4801FCB
:1009200004BF01430020B4F1FD0C88BFBCF5E06FAB
:100930003FF6AFAEB5EB030C04BFB6EB020C5FEABB
:10094000500C50F1000041EB045170BD0EF0004E10
:100950004EEA113114EB5C04C2BFD4EB0C0541EA42
:10096000045170BD41F480114FF0000E013C90E63F
:1009700045EA060E8DE60CEA135594EA0C0F08BF03
:1009800095EA0C0F3FF43BAF94EA0C0F0AD150EA02
:1009900001347FF434AF95EA0C0F7FF425AF104695
:1009A00019462CE795EA0C0F06D152EA03353FF4BD
:1009B000FDAE1046194622E750EA410618BF52EA3A
:1009C00043067FF4C5AE50EA41047FF40DAF52EA0E
:1009D00043057FF4EBAE12E74FF0FF3C06E000BFAB
:1009E0004FF0010C02E000BF4FF0010C4DF804CDB8
:1009F0004FEA410C7FEA6C5C4FEA430C18BF7FEA78
:100A00006C5C1BD001B050EA410C0CBF52EA430CA5
:100A100091EA030F02BF90EA020F0020704710F125
:100A2000000F91EA030F58BF994208BF90422CBFB4
:100A3000D8176FEAE37040F0010070474FEA410CAD
:100A40007FEA6C5C02D150EA013C07D14FEA430CCB
:100A50007FEA6C5CD6D152EA033CD3D05DF8040B3C
:100A6000704700BF8446104662468C46194663466E
:100A700000E000BF01B5FFF7B7FF002848BF10F145
:100A8000000F01BD4DF808EDFFF7F4FF0CBF01208A
:100A900000205DF808FB00BF4DF808EDFFF7EAFF06
:100AA00034BF012000205DF808FB00BF4DF808EDC1
:100AB000FFF7E0FF94BF012000205DF808FB00BFB6
:100AC0004DF808EDFFF7CEFF94BF012000205DF840
:100AD00008FB00BF4DF808EDFFF7C4FF34BF01204D
:100AE00000205DF808FB00BF4FEA410C7FEA6C5C18
:100AF00002D150EA013C0AD14FEA430C7FEA6C5C18
:100B000002D152EA033C02D14FF0000070474FF08F
:100B1000010070474FEA410212F5001215D211D5BB
:100B20006FF47873B3EB625212D94FEAC12343F0EA
:100B3000004343EA505311F0004F23FA02F018BF6C
:100B4000404270474FF00000704750EA013005D135
:100B500011F0004008BF6FF0004070474FF00000F8
:100B6000704700BF53B94AB9002908BF00281CBF0D
:100B70004FF0FF314FF0FF3000F076B9ADF1080CC7
:100B80006DE904CE00F006F8DDF804E0DDE90223AB
:100B900004B070472DE9F047089E0D46044688468C
:100BA000002B4DD18A42944668D9B2FA82F252B1F2
:100BB00001FA02F3C2F1200120FA01F10CFA02FC61
:100BC00041EA030894404FEA1C41B8FBF1F71FFAD1
:100BD0008CFE01FB178807FB0EF0230C43EA084349
:100BE00098420AD91CEB030307F1FF3580F01E8100
:100BF000984240F21B81023F63441B1AB3FBF1F0A1
:100C000001FB103300FB0EFEA4B244EA0344A645E8
:100C10000AD91CEB040400F1FF3380F00981A645DA
:100C200040F20681644402380021A4EB0E0440EA3D
:100C300007401EB10023D440C6E90043BDE8F08759
:100C40008B4208D9002E00F0EE800021C6E9000595
:100C50000846BDE8F087B3FA83F100294AD1AB42D8
:100C600002D3824200F2FC80841A65EB0303012068
:100C70009846002EE2D0C6E90048DFE702B9FFDE61
:100C8000B2FA82F2002A40F09180A1EB0C0001211F
:100C90004FEA1C471FFA8CFEB0FBF7F307FB13006B
:100CA000250C45EA00450EFB03F0A84208D91CEBD1
:100CB000050503F1FF3802D2A84200F2CE80434678
:100CC0002D1AB5FBF7F007FB10550EFB00FEA4B282
:100CD00044EA0544A64508D91CEB040400F1FF359D
:100CE00002D2A64500F2B6802846A4EB0E0440EAE4
:100CF00003409EE7C1F120078B4022FA07FC4CEA33
:100D0000030C25FA07FA4FEA1C49BAFBF9F820FA56
:100D100007F309FB18AA8D401FFA8CFE1D4300FA49
:100D200001F308FB0EF02C0C44EA0A44A04202FA3C
:100D300001F20BD91CEB040408F1FF3A80F0888023
:100D4000A04240F28580A8F102086444241AB4FB52
:100D5000F9F009FB104400FB0EFEADB245EA044475
:100D6000A64508D91CEB040400F1FF356CD2A6455A
:100D70006AD90238644440EA0840A0FB0295A4EB1B
:100D80000E04AC42C846AE4656D353D0002E69D0AE
:100D9000B3EB080264EB0E0422FA01F304FA07F73E
:100DA0001F43CC40C6E90074002147E70CFA02FC5F
:100DB000C2F1200125FA01F34FEA1C4720FA01F1A4
:100DC00095400D43B3FBF7F107FB11331FFA8CFE7F
:100DD000280C40EA034001FB0EF3834204FA02F4BC
:100DE00008D91CEB000001F1FF382FD283422DD926
:100DF00002396044C01AB0FBF7F307FB1300ADB231
:100E000045EA004503FB0EF0A84208D91CEB050596
:100E100003F1FF3816D2A84214D9023B6544281AC0
:100E200043EA014138E73146304607E72F46E4E61A
:100E30001846F9E64B45A9D2B9EB020865EB0C0E52
:100E40000138A3E74346EAE7284694E74146D1E75D
:100E5000D0467BE76444023847E7023B65442FE70E
:100E6000084606E73146E9E6704700BF00B587B09F
:100E70008DF80F004FF47A73009301230DF11702E0
:100E80000DF10F01034802F0A4F99DF8170007B017
:100E90005DF804FBEC09002010B5074C002202218C
:100EA000204600F0EFFF0620FFF7E0FF01220221BD
:100EB000204600F0E7FF10BD0008014070B5114E5C
:100EC00000220221304600F0DDFF9020FFF7CEFF28
:100ED0000020FFF7CBFF0020FFF7C8FF0020FFF73F
:100EE000C5FFFF20FFF7C2FF0402A5B2FF20FFF7F6
:100EF000BDFF84B22C4301220221304600F0C2FF24
:100F0000204670BD0008014070B506460C461546E7
:100F100000220221104800F0B5FF0320FFF7A6FFD2
:100F2000C4F30740FFF7A2FFC4F30720FFF79EFFBB
:100F3000E0B2FFF79BFF05E0FF20FFF797FF06F801
:100F4000010B25466B1E9CB2002DF5D1012202211A
:100F5000014800F097FF70BD0008014008B500226D
:100F60000221094800F08EFF0520FFF77FFFFF20D8
:100F7000FFF77CFF10F0010FF9D101220221024896
:100F800000F080FF08BD00BF0008014038B50446EE
:100F9000FFF782FFFFF7E2FF0D4D002202212846F6
:100FA00000F070FF2020FFF761FFC4F30740FFF758
:100FB0005DFFC4F30720FFF759FFE0B2FFF756FFCC
:100FC00001220221284600F05DFFFFF7C7FF38BD70
:100FD0000008014070B506460C461546FFF75CFF59
:100FE00000220221134800F04DFF0220FFF73EFFD0
:100FF000C4F30740FFF73AFFC4F30720FFF736FFBB
:10100000E0B2FFF733FFB5F5807F07D94FF4807565
:1010100004E016F8010BFFF729FF25466B1E9CB272
:10102000002DF6D101220221024800F02BFFFFF72C
:1010300095FF70BD000801402DE9F84305460C46B8
:101040001746CBB2110AD3B971B92146FFF7C2FFD7
:1010500013E04FF4807221462846FFF7BBFF04F5EA
:10106000807405F5807531464B1EDEB20029F0D143
:10107000FAB221462846FFF7ADFFBDE8F883C3F179
:1010800000085FFA88F8D6B299B9B0450DD233445A
:10109000DEB242462146FFF79DFF324608EB0401CF
:1010A00005EB0800FFF796FFE7E72146FFF792FF01
:1010B000E3E7A2EB08071FFA87F9C7F30726FFB299
:1010C00042462146FFF786FF444445440AE04FF478
:1010D000807221462846FFF77DFF04F5807405F5F0
:1010E00080754646731E5FFA83F8002EEFD1002FFD
:1010F000C3D05FFA89F221462846FFF76BFFBCE7B1
:101100002DE9F04788B000250495059506950795CB
:10111000384B9A6942F010029A619A6902F0100203
:101120000192019A9A6942F004029A619A6902F066
:1011300004020292029A9A6942F008029A619B693B
:1011400003F008030393039BDFF8AC800122042122
:10115000404600F097FEDFF8A4A00122022150468D
:1011600000F090FEDFF8989001220321484600F03D
:1011700089FE4FF400530493224B059302260696F2
:1011800004A9404600F06CFD0124049405950696E0
:1011900004A9404600F064FD0423049305940696D8
:1011A0000327079704A9404600F05AFD04960594CA
:1011B0000694079704A9504600F052FD0494059444
:1011C0000694079704A9484600F04AFD0496059442
:1011D0000696079704A9484600F042FD2A4629468C
:1011E000282000F075FC282000F0AAFC08B0BDE81B
:1011F000F08700BF001002400010014000080140CD
:10120000000C01400000111010B5ADF5895D86B0ED
:101210000DF1880C4A4C0FCCACE80F000FCCACE8B9
:101220000F000FCCACE80F0094E803004CF8040B5F
:101230008CF800104B2200210DF1BD0004F0E2FB00
:1012400002AB002119607C2203A804F0DBFB3D48BF
:1012500004F094FC01223C4942A803F055FD0D28FE
:101260003AD03A4804F08AFC0A223949394803F056
:101270007DFD002854D1384804F080FC01AB802269
:1012800022A9344803F017FF014600284CD122A9B7
:10129000324804F009FC2F4C204604F043F8304853
:1012A00004F06CFC01222A49204603F05FFD00286F
:1012B0003ED101AB802202A9264803F040FE00285F
:1012C0003AD102A9274804F0EFFB224804F02AF89B
:1012D0000DF5895D06B010BD234804F04FFC0022D7
:1012E0001146194804F030F8B0B9204804F046FC23
:1012F000154C01222146002003F006FD01461C4842
:1013000004F0D2FB0122214642A803F0FDFC014675
:10131000184804F0C9FBA4E7174804F02FFCA0E725
:10132000164804F02BFCA9E7154804F0BDFBB2E712
:10133000144804F023FCCBE7134804F01FFCC7E774
:1013400048BB0008C8BB000814BC0008E0BC00088B
:101350002CBD0008440C002034BD000874BD0008FA
:10136000BCBD000838BE000818BC000850BC00080E
:1013700078BC000898BC0008B8BC000854BD000840
:1013800094BD000808BE000820BE000830B5A1B01A
:10139000002421461D4804F087FBFFF78FFD05461A
:1013A000642000F06FFB2946194804F07DFB2046BD
:1013B000FFF7ECFD214605E001F180036B4403F8E3
:1013C000401C01313F29F7DD402200210DEB0200D6
:1013D000FFF732FE402200216846FFF795FD0D48D9
:1013E00004F0CCFB002409E004F180036B4413F803
:1013F000801C094804F058FB0134A4B23F2CF3D9F7
:10140000064804F0BBFB21B030BD00BF54BE00084D
:101410008CBE0008ACBE0008C8BE0008D0BE0008E4
:1014200010B584B0002303E0214AD35401339BB2AA
:10143000FF2BF9D94FF47A730293082301931C4BC5
:10144000009310230022A0211A4801F063F8C8B9C4
:10145000194804F093FB4FF47A7000F013FB4FF43B
:101460007A73029308230193144B009310230022F4
:10147000A121104801F000F9B0B9114804F07EFB39
:1014800000240AE00F4804F079FBE4E70B4B195DF8
:101490000D4804F009FB0134A4B2072CF6D90B481F
:1014A00004F06CFB04B010BD064804F067FBF9E7DC
:1014B000440B0020700C0020D4BE0008440A002019
:1014C000FCBE0008E8BE0008C8BE0008D0BE000888
:1014D00008B50121034800F0DBFC034804F04EFB93
:1014E00008BD00BF000C014010BF000800B583B06C
:1014F00001904FF6FF73012201A9034802F07DF825
:10150000019803B05DF804FBC40C002072B6FEE73E
:1015100008B50D480D4B03604FF4E13343600023E1
:101520008360C36003610C2242618361C36102F086
:1015300035F830B9044B1A68D36843F03003D360F0
:1015400008BDFFF7E3FF00BFC40C002000380140D6
:1015500008B50A480A4B03600A4B436000238360C6
:10156000C3604FF48042026143618361C3610362DF
:1015700000F0F2FE00B908BDFFF7C8FF700C0020B4
:1015800000540040A086010008B50D480D4B0360D3
:101590004FF48273436000238360C360036143613F
:1015A0004FF4007282611822C26103624362836257
:1015B0000A23C36201F0B2FD00B908BDFFF7A6FF20
:1015C000EC0900200030014000B591B02822002134
:1015D00006A804F017FA00230193029303930493DF
:1015E0000593012206924FF4803307930A92022258
:1015F0000D920E934FF4E0130F9306A801F0F6F945
:1016000080B90F23019302210291002303934FF429
:1016100080620492059301A801F028FC20B911B062
:101620005DF804FBFFF772FFFFF770FF10B500F0E5
:1016300005FAFFF7C9FFFFF763FDFFF769FFFFF743
:1016400087FFFFF7A1FF02F03BFAFFF7E9FEFFF784
:101650009DFEFFF7D9FD0E4B1B78012BFBD100241B
:101660000B4B1C700B4B19780B4804F01DFA094BFF
:101670001B78A34206DC094804F080FA054B0022DF
:101680001A70E8E7064B185D04F022FA0134EEE721
:101690006D0D00206C0D002024BF0008D0BE000896
:1016A000080D002082B00E4B9A6942F001029A6147
:1016B0009A6902F001020092009ADA6942F08052BF
:1016C000DA61DB6903F080530193019B054A53689B
:1016D00023F0E06343F00073536002B0704700BF33
:1016E000001002400000014010B586B000230293B4
:1016F0000393049305930268114B9A4201D006B0FC
:1017000010BD104CA36943F00803A361A36903F063
:1017100008030093009BC023029312230393032327
:10172000059302A9084800F09BFAE36943F400130B
:10173000E361E36903F400130193019BDFE700BF5A
:101740000054004000100240000C014010B586B06B
:10175000002302930393049305930268164B9A4265
:1017600001D006B010BD03F560439A6942F480527F
:101770009A619A6902F480520092009A9A6942F042
:1017800004029A619B6903F004030193019BA02367
:1017900002930223039303230593084C02A92046D6
:1017A00000F05EFA4023029300230393049302A9FE
:1017B000204600F055FAD4E700300140000801400F
:1017C00030B587B000230293039304930593026816
:1017D0001B4B9A4201D007B030BD03F558439A69BC
:1017E00042F480429A619A6902F480420092009A1F
:1017F0009A6942F004029A619B6903F00403019321
:10180000019B4FF400730293022303930323059378
:101810000C4D02A9284600F023FA4FF4806302938E
:1018200000240394049402A9284600F019FA2246E1
:101830002146252000F04CF9252000F081F9CAE767
:101840000038014000080140FEE7FEE7FEE7FEE742
:10185000FEE770477047704708B500F001F908BD12
:1018600010B582B0184B1B681B6813F0200F14D101
:10187000154B1B681A6812F0100F09D00022019254
:101880001A6801925B680193019B104B01221A7048
:101890000D4802F013F802B010BD0D4C21784B1C1E
:1018A0002370002301220B480144074801F011FF77
:1018B0002378632B01D900222270034B1B686FF041
:1018C00020021A60D4E700BFC40C00206D0D002078
:1018D0006C0D0020080D002008B54FF4005000F0FA
:1018E000E1FA08BD0120704708B504F061F816233D
:1018F00003604FF0FF3008BD08B54FF0FF31FFF730
:10190000F3FFFEE770B50C461646002506E0AFF380
:101910000080214601F8010B01350C46B542F6DB8B
:10192000304670BD70B50C461646002504E014F82C
:10193000010BFFF7DBFD0135B542F8DB304670BD2A
:101940004FF0FF3070474FF400534B60002070475A
:10195000012070470020704710B503460C4A0D491E
:101960000D48006840B10C4800680344521A934285
:1019700006D8094A136010BD0748084C0460F2E716
:1019800004F016F80C2303604FF0FF30F3E700BFBC
:101990000050002000100000700D0020000E0020FC
:1019A000704700000C480D490D4A002302E0D4584E
:1019B000C4500433C4188C42F9D30A4A0A4C002399
:1019C00001E013600432A242FBD3FFF7E9FF03F00A
:1019D000F5FFFFF72BFE704700000020D009002024
:1019E000ACC30008D0090020FC0D0020FEE7000079
:1019F00010B504460E4B18784FF47A73B3FBF0F32E
:101A00000C4A1068B0FBF3F000F0A8F868B90F2C8E
:101A100001D901200AE0002221464FF0FF3000F0FA
:101A200057F8054B1C60002000E0012010BD00BFEE
:101A300004000020000000200800002008B5074A2C
:101A4000136843F010031360032000F02FF80F20F9
:101A5000FFF7CEFFFFF726FE002008BD0020024062
:101A6000034A1168034B1B780B441360704700BF97
:101A7000740D002004000020014B1868704700BF5F
:101A8000740D002038B50446FFF7F6FF0546B4F1A3
:101A9000FF3F02D0044B1B781C44FFF7EDFF401BB7
:101AA000A042FAD338BD00BF04000020074AD36823
:101AB00023F4E0631B041B0C000200F4E06003430A
:101AC00043F0BF6343F40033D360704700ED00E0A0
:101AD00000B5194BDB68C3F30223C3F1070CBCF15B
:101AE000040F28BF4FF0040C03F1040EBEF1060FE3
:101AF00018D9033B4FF0FF3E0EFA0CFC21EA0C0113
:101B000099400EFA03F322EA0303194300280BDB82
:101B10000901C9B200F1604000F5614080F800138E
:101B20005DF804FB0023E5E700F00F000901C9B2EE
:101B3000024B1954F4E700BF00ED00E014ED00E0A3
:101B4000002807DB00F01F02400901239340024AEE
:101B500042F82030704700BF00E100E00138B0F1EA
:101B6000807F0BD24FF0E0235861054AF02182F8C4
:101B700023100020986107221A61704701207047E6
:101B800000ED00E090F82130022B06D0042383639F
:101B9000002380F82030012070470268136823F08A
:101BA0000E0313600268136823F001031360036CD3
:101BB000C16B012202FA03F34B6080F8212000235D
:101BC00080F820301846704708B590F82130022B75
:101BD00003D004238363012008BD0268136823F047
:101BE0000E0313600268136823F001031360036897
:101BF000194A934214D0143293421FD014329342A4
:101C00001ED0143293421ED0143293421ED014328E
:101C1000934202D04FF0807203E04FF4801200E054
:101C200001220E4B5A60012380F82130002380F8F6
:101C30002030436B6BB198470020CDE71022F0E7CE
:101C40004FF48072EDE74FF48052EAE74FF48032B0
:101C5000E7E70020C0E700BF0800024000000240A4
:101C600070B582B00024A446A6E0804DAA4210D0F0
:101C700007D97F4DAA420CD005F58035AA4208D07D
:101C800013E0A5F58015AA4203D005F57025AA42F8
:101C900007D18A68002A58D0012A51D0436108240C
:101CA00003E0A5F58015AA42F3D0BEF1FF0F4ED890
:101CB0000646BEF1FF0F4CD84FEA8C0233680F2561
:101CC000954023EA050304FA02F2134333604B689C
:101CD00013F0805F6ED0674B9A6942F001029A61FF
:101CE0009B6903F001030193019B4FEA9C02951C41
:101CF000614B53F825600CF003039D000F23AB40AC
:101D000026EA03065D4B984229D003F5806398428A
:101D100000F08E8003F58063984200F08B8003F51D
:101D20008063984219D004231AE0CC68BDE7CC68E0
:101D30000434BAE7CC680834B7E7CC680C34B4E7AD
:101D400003610824B1E70024AFE70424ADE7061DD2
:101D5000AFE7ACF108029200B0E7032300E00023F4
:101D6000AB4033430232444D45F822304B6813F404
:101D7000803F61D0424A136843EA0E0313604B6808
:101D800013F4003F5ED03E4A536843EA0E035360AB
:101D90004B6813F4801F5BD0394A936843EA0E0303
:101DA00093604B6813F4001F58D0354AD36843EA58
:101DB0000E03D3600CF1010C0A6832FA0CF353D015
:101DC000012303FA0CF302EA030E33EA0202F1D113
:101DD0004A68122A3FF649AF122A3FF666AF01A5BC
:101DE00055F822F0931C00082B1D0008351D000833
:101DF000471D0008AB1C0008AB1C0008AB1C00080A
:101E0000AB1C0008AB1C0008AB1C0008AB1C000896
:101E1000AB1C0008AB1C0008AB1C0008AB1C000886
:101E2000AB1C0008AB1C00082F1D00083B1D000860
:101E3000012395E7022393E7114A136823EA0E036F
:101E400013609CE70E4A536823EA0E0353609FE732
:101E50000B4A936823EA0E039360A2E7084AD3680B
:101E600023EA0E03D360A5E702B070BD0000221084
:101E70000000311000100240000001400008014045
:101E8000000401400AB10161704709040161704713
:101E9000C36801EA030221EA030141EA0241016148
:101EA0007047000008B5054B5B69034200D108BDCF
:101EB000024B5861FFF70CFBF9E700BF000401403B
:101EC00003685A6912F4806F01D1002070476FF4E3
:101ED00080625A6100230363202280F83D2080F84D
:101EE0003E30026C42F00402026480F83C30012073
:101EF00070472DE9F04107460D4690461E4624E006
:101F0000FFF7BAFD069BC01AB04200D8EEB9002315
:101F10003B63202287F83D2087F83E303A6C42F040
:101F200020023A6487F83C3001201EE03B689C693F
:101F300025EA040C1FFA8CFCBCFA8CFC4FEA5C1CF2
:101F4000E04511D1B6F1FF3FDAD1C5F30743012BCC
:101F5000ECD13B685B6925EA030C1FFA8CFCBCFAE8
:101F60008CFC4FEA5C1CEBE70020BDE8F0812DE91A
:101F7000F04105460E46174698463DE01A6842F481
:101F800000721A602B686FF480625A6100232B6321
:101F9000202285F83D2085F83E302A6C42F004026C
:101FA0002A6485F83C30012034E0FFF765FDA0EBA2
:101FB0000800B84200D8FFB900232B63202285F81F
:101FC0003D2085F83E302A6C42F020022A6485F8D4
:101FD0003C3001201EE02B689C6926EA0404A4B270
:101FE000003C18BF0124A4B12B685A6912F4806F19
:101FF000C4D1B7F1FF3FD8D1C6F30743012BEAD1D3
:102000002B685C6926EA0404A4B2003C18BF0124D2
:10201000E9E70020BDE8F08170B504460D4616469C
:1020200023685B6913F0800F1CD12046FFF748FF3F
:10203000D0B9B5F1FF3FF3D0FFF71EFD801BA842DA
:1020400001D8002DECD100232363202284F83D2009
:1020500084F83E30226C42F02002226484F83C3046
:10206000012000E0002070BD0120FCE72DE9F043D5
:1020700085B004460D4691461F46DDF830800D9E22
:102080000368196841F48071196000964346002284
:102090004FF00111FFF72DFF60B9236805F0FE0531
:1020A0001D613346424626492046FFF760FF68B16E
:1020B000012008E023681B6813F4807F02D04FF4EE
:1020C00000732364032005B0BDE8F083002303936D
:1020D00023685A6903929B690393039B32464146E6
:1020E0002046FFF799FF30B9012F0FD123685FFA1F
:1020F00089F61E61E7E7236C042B01D00120E2E79B
:102100002268136843F400731360F7E723684FEA0B
:1021100019221A61324641462046FFF77DFF20B959
:1021200023685FFA89F61E61CDE7236C042B01D08A
:102130000120C8E72268136843F400731360F7E7CF
:10214000020001002DE9F04784B004460D46164612
:1021500099460C9FDDF834800268136843F480636D
:1021600013600368196841F480711960CDF800802C
:102170003B4600224FF00111FFF7BBFE70B95FFA3A
:1021800085FA236805F0FE051D6143463A4641493C
:102190002046FFF7ECFE68B1012008E023681B68C9
:1021A00013F4807F02D04FF400732364032004B043
:1021B000BDE8F0870023039323685A6903929B6963
:1021C0000393039B424639462046FFF725FF80B91B
:1021D000B9F1010F18D12368F6B21E6142463946A3
:1021E0002046FFF719FF68B3236C042B24D001208D
:1021F000DDE7236C042B01D00120D8E722681368A7
:1022000043F400731360F7E72368320A1A61424609
:1022100039462046FFF700FF18B92368F6B21E6161
:10222000DCE7236C042B01D00120C0E7226813688F
:1022300043F400731360F7E72268136843F40073F4
:102240001360D4E72268136843F480731360CDF8F9
:1022500000803B4600224FF001112046FFF749FE67
:1022600068B922684AF00103136143463A460949B6
:102270002046FFF77CFE002899D0012097E72368CD
:102280001B6813F4807F02D04FF400732364032093
:102290008DE700BF0200010070B504460D461646EA
:1022A00023685B6913F0040F1CD12046FFF708FE7A
:1022B000D0B9B5F1FF3FF3D0FFF7DEFB801BA8429A
:1022C00001D8002DECD100232363202284F83D2087
:1022D00084F83E30226C42F02002226484F83C30C4
:1022E000012000E0002070BD0120FCE770B505462C
:1022F0000C4616462B68596911F0400F29D15969CF
:1023000011F0100F15D1FFF7B7FB801BA04201D8C9
:10231000002CEFD100232B63202285F83D2085F887
:102320003E302A6C42F020022A6485F83C300120BD
:1023300070BD6FF010025A6100232B63202285F8D4
:102340003D2085F83E302A6C2A6485F83C30012017
:10235000EEE70020ECE70000002800F0CC8070B52C
:10236000044690F83D30002B77D0242384F83D308C
:102370002268136823F0010313602268136843F492
:10238000004313602268136823F40043136000F0D5
:1023900029FE62685A4B9A4264D85A4B98428CBFC5
:1023A00000230123002B40F0A8805749A1FB0031F6
:1023B0008B0C25686A6822F03F0242EA91426A600B
:1023C00021680A6A22F03F0266684D4DAE424FD83E
:1023D000013313430B622168CA6922F44F4222F091
:1023E000FF026668464B9E424CD8431E7600B3FB04
:1023F000F6F3013340F6FC70034278D0C3F30B03CD
:102400001343CB6121680B6823F0C003E269206AA3
:10241000024313430B6021688B6823F4034323F0CA
:10242000FF032269E068024313438B602168CB6895
:1024300023F0FF036269A06902431343CB60226863
:10244000136843F00103136000202064202384F804
:102450003D30206384F83E0070BD80F83C30FFF7CB
:1024600043F982E7294B98428CBF0023012399E767
:102470004FF4967505FB03F3254DA5FB03539B090C
:102480000133A6E7A368BBB9451E06EB460CB5FBB6
:10249000FCF50135C5F30B05B5FA85F56D0945BBAE
:1024A000C3B9013806EB4603B0FBF3F30133C3F3C2
:1024B0000B0343F40043A3E7451E06EB860C0CEB2D
:1024C0008C0CB5FBFCF50135C5F30B05B5FA85F5AC
:1024D0006D09E4E7013806EB860303EB8303B0FBE9
:1024E000F3F30133C3F30B0343F4404388E70423BE
:1024F00086E7012384E7012070470120ACE700BF95
:10250000A08601007F841E0083DE1B43FF083D0080
:10251000D34D62102DE9F04383B004460F46904638
:1025200099460C9EFFF7A8FA054694F83D00C0B204
:10253000202803D0022003B0BDE8F08300951923C2
:1025400001224B492046FFF7D4FC002840F0898047
:1025500094F83C30012B00F08680012384F83C3055
:1025600023681A6812F0010F03D11A6842F00102C1
:102570001A602268136823F400631360212384F82F
:102580003D30402384F83E30002323640A9B63627D
:10259000BDF82C306385638D2385364BE36201954E
:1025A00000964B46424639462046FFF75FFD00281D
:1025B0005BD1238D002B35D02A4631462046FFF7CC
:1025C0002BFD20BB626A236812781A61626A531C71
:1025D0006362218D013989B22185638D9BB2013BF4
:1025E0009BB263852368586910F0040FE1D000297D
:1025F000DFD052781A61636A01336362238D013B35
:102600002385638D9BB2013B9BB26385D1E7236C2D
:10261000042B01D001208EE72268136843F4007375
:102620001360F7E72A4631462046FFF735FE50B1E2
:10263000236C042B01D001207DE72268136843F44A
:1026400000731360F7E72268136843F400731360A4
:10265000202384F83D30002384F83E3084F83C3059
:1026600069E7022067E7022065E7012063E700BF12
:10267000020010000000FFFF2DE9F04389B004467E
:102680000F4690469946129E00230793FFF7F4F9F0
:10269000054694F83D00C0B2202804D002273846F1
:1026A00009B0BDE8F0830095192301228149204635
:1026B000FFF71FFC002840F0728194F83C30012B9A
:1026C00000F06F81012384F83C3023681A6812F00F
:1026D000010F03D11A6842F001021A6022681368E0
:1026E00023F400631360222384F83D30402384F8F0
:1026F0003E3000232364109B6362BDF84430638541
:10270000638D23856C4BE362019500964B464246F0
:1027100039462046FFF716FD0746002840F0438162
:10272000238D5BB9039323685A6903929A690392D4
:10273000039A1A6842F400721A60EDE0012B0FD080
:10274000022B21D02268136843F4806313600023B6
:10275000069323685A6906929B690693069BDBE001
:102760002268136823F48063136072B60023049315
:1027700023685A6904929A690492049A1A6842F486
:1027800000721A6062B6C7E02268136843F40063FF
:10279000136072B60023059323685A6905929A69FB
:1027A0000592059A1A6822F480621A6062B6B3E054
:1027B0002A4631462046FFF799FD002840F0F58073
:1027C00023681A69636A1A70636A01336362238D2E
:1027D000013B2385638D9BB2013B9BB263859BE0EC
:1027E00000953346002235492046FFF782FB00283A
:1027F00040F0DF802268136823F48063136072B6B0
:1028000023681A69636A1A70636A01336362238DED
:10281000013B2385638D9BB2013B9BB26385284BB3
:102820001B68DB08274AA2FB03231B0A03EB830375
:10283000C3EBC3030793079B013B0793079B002B45
:1028400028D023685A6912F0040FF4D01A6842F4B1
:1028500000721A6023681A69636A1A70636A013326
:102860006362238D013B2385638D9BB2013B9BB249
:10287000638562B623681A69636A1A70636A0133F2
:102880006362238D013B2385638D9BB2013B9BB229
:10289000638541E02363202284F83D2084F83E30A4
:1028A000226C42F02002226462B684F83C30012798
:1028B000F5E600BF020010000000FFFF0400010069
:1028C0000000002089B5F8142A4631462046FFF75B
:1028D0000DFD00286FD123681A69636A1A70626A55
:1028E000531C6362238D013B2385638D9BB2013BA7
:1028F0009BB263852368596911F0040F0CD01B69E2
:102900005370636A01336362238D013B2385638DBA
:102910009BB2013B9BB26385238D002B36D0032BEA
:10292000D2D8012B3FF444AF022B7FF459AF00956E
:102930003346002221492046FFF7DBFA002836D132
:1029400072B62268136843F40073136023681A692F
:10295000636A1A70636A01336362238D013B2385C6
:10296000638D9BB2013B9BB2638562B623681A6993
:10297000636A1A70636A01336362238D013B2385A6
:10298000638D9BB2013B9BB26385C5E7202384F82E
:102990003D30002384F83E3084F83C307FE6022747
:1029A0007DE602277BE6012779E6012777E6012706
:1029B00075E6012773E6012771E600BF04000100F8
:1029C00082B0084B1B68084AA2FB03235B0A00FB8A
:1029D00003F3019300BF019B5A1E0192002BF9D112
:1029E00002B0704700000020D34D6210002800F0B4
:1029F000F18170B582B00446036813F0010F2CD04A
:102A0000994B5B6803F00C03042B1DD0964B5B685D
:102A100003F00C03082B12D06368B3F5803F41D05C
:102A2000002B55D103F1804303F504331A6822F4D7
:102A300080321A601A6822F480221A6037E08A4BCA
:102A40005B6813F4803FE7D0874B1B6813F4003FAB
:102A500003D06368002B00F0BF81236813F0020FDE
:102A600075D0814B5B6813F00C0F5FD07E4B5B68B9
:102A700003F00C03082B54D02369002B00F08A804C
:102A80007A4B01221A60FEF7F7FF0546764B1B686A
:102A900013F0020F75D1FEF7EFFF401B0228F5D9A6
:102AA00003209EE1704A136843F480331360636827
:102AB00043B3FEF7E1FF05466B4B1B6813F4003F81
:102AC000CBD1FEF7D9FF401B6428F5D9032088E15C
:102AD000B3F5A02F09D0644B1A6822F480321A6033
:102AE0001A6822F480221A60E1E703F18043A3F51B
:102AF0003C331A6842F480221A601A6842F4803229
:102B00001A60D4E7FEF7B8FF0546574B1B6813F46D
:102B1000003FA2D0FEF7B0FF401B6428F5D9032088
:102B20005FE1514B5B6813F4803FA5D14E4B1B68AE
:102B300013F0020F03D02369012B40F04F814A4A62
:102B4000136823F0F803616943EAC1031360236843
:102B500013F0080F33D0A369002B5CD0434B012244
:102B6000C3F88024FEF788FF05463F4B5B6A13F0ED
:102B7000020F21D1FEF780FF401B0228F5D9032068
:102B80002FE1394A136823F0F803616943EAC1036E
:102B90001360DCE7354B00221A60FEF76DFF054637
:102BA000314B1B6813F0020FD1D0FEF765FF401BBD
:102BB0000228F5D9032014E10120FFF701FF236863
:102BC00013F0040F00F09680274BDB6913F0805F51
:102BD00034D1254BDA6942F08052DA61DB6903F0C7
:102BE00080530193019B0125214B1B6813F4807FC7
:102BF00026D0E368012B3DD0002B53D103F1804355
:102C000003F504331A6A22F001021A621A6A22F0EA
:102C100004021A6233E0154B0022C3F88024FEF749
:102C20002BFF0546104B5B6A13F0020FC7D0FEF76F
:102C300023FF401B0228F5D90320D2E00025D3E76B
:102C40000B4A136843F480731360FEF715FF0646C2
:102C5000074B1B6813F4807FCBD1FEF70DFF801B61
:102C60006428F5D90320BCE0001002400000424275
:102C7000007000405F4A136A43F001031362E36887
:102C800033B3FEF7F9FE06465A4B1B6A13F0020FE8
:102C90002FD1FEF7F1FE801B41F288339842F3D921
:102CA00003209EE0052B09D0524B1A6A22F0010244
:102CB0001A621A6A22F004021A62E0E74D4B1A6A9D
:102CC00042F004021A621A6A42F001021A62D6E75E
:102CD000FEF7D2FE0646474B1B6A13F0020F08D0E0
:102CE000FEF7CAFE801B41F288339842F3D90320D5
:102CF00077E0E5B9E369002B72D03E4A526802F0F2
:102D00000C02082A56D0022B17D03B4B00221A6621
:102D1000FEF7B2FE0446374B1B6813F0007F47D026
:102D2000FEF7AAFE001B0228F5D9032059E0314A1C
:102D3000D36923F08053D361DCE72F4B00221A665E
:102D4000FEF79AFE05462B4B1B6813F0007F06D05A
:102D5000FEF792FE401B0228F5D9032041E0236ACA
:102D6000B3F5803F1AD023494B6823F47413226AC9
:102D7000606A024313434B601F4B01221A66FEF741
:102D80007BFE04461B4B1B6813F0007F0ED1FEF741
:102D900073FE001B0228F5D9032022E0154A536870
:102DA00023F40033A1680B435360DCE7002018E0F4
:102DB000002016E0012B16D00E4B5B6803F4803127
:102DC000226A914211D103F47013626A93420ED1C8
:102DD000002006E001207047012002E0012000E011
:102DE000002002B070BD0120FBE70120F9E70120BF
:102DF000F7E700BF001002400000424286B0174BC8
:102E00000FCB0DF1180C0CE90F0040F20123ADF8C7
:102E10000430134B5B6803F00C02082A02D01148FF
:102E200006B07047C3F3834218326A4412F8100C9C
:102E300013F4803F0DD00A4B5B68C3F34043183353
:102E40006B4413F8143C074A02FB00F0B0FBF3F0AC
:102E5000E6E7054B03FB00F0E2E700BF58BF0008C0
:102E60000010024000127A0000093D00002800F026
:102E7000A08070B50D460446524B1B6803F0070353
:102E80008B420BD24F4A136823F007030B431360A6
:102E9000136803F007038B4240F08D80236813F022
:102EA000020F17D013F0040F04D0474A536843F4BD
:102EB000E0635360236813F0080F04D0424A53685C
:102EC00043F460535360404A536823F0F003A16811
:102ED0000B435360236813F0010F31D06368012B5B
:102EE00020D0022B25D0384A126812F0020F64D08D
:102EF00035494A6822F0030213434B60FEF7BCFDDC
:102F00000646314B5B6803F00C036268B3EB820F3B
:102F100016D0FEF7B1FD801B41F288339842F0D9FC
:102F2000032045E0284A126812F4003FE0D1012056
:102F30003EE0254A126812F0007FD9D1012037E027
:102F4000204B1B6803F00703AB420AD91D4A1368E4
:102F500023F007032B431360136803F00703AB420E
:102F60002DD1236813F0040F06D0174A536823F4B9
:102F7000E063E1680B435360236813F0080F07D048
:102F8000114A536823F46053216943EAC103536033
:102F9000FFF734FF0C4B5B68C3F303130B4AD35C9E
:102FA000D8400B4B18600B4B1868FEF721FD002032
:102FB00070BD012070470120FAE70120F8E70120E9
:102FC000F6E700BF002002400010024040BF0008AA
:102FD0000000002008000020014B1868704700BF67
:102FE0000000002008B5FFF7F7FF044B5B68C3F350
:102FF0000223034AD35CD84008BD00BF0010024042
:1030000050BF000808B5FFF7E7FF044B5B68C3F348
:10301000C223034AD35CD84008BD00BF0010024061
:1030200050BF00082DE9F04782B005468846174694
:103030001E46FEF721FD0A9B1B1A03EB0609FEF74D
:103040001BFD82462B4B1B68C3F3CB3309FB03F3F9
:1030500001932B689C6838EA04030CBF4FF0010C05
:103060004FF0000CBC4540D0B6F1FF3FF1D0FEF769
:1030700003FDA0EB0A0048450AD2B9F1000F07D0C2
:10308000019A02B14A46019B013B01939146E0E758
:103090002A68536823F0E00353606B68B3F5827FBE
:1030A0000BD0AB6AB3F5005F14D0012385F8513023
:1030B000002385F85030032018E0AB68B3F5004FCB
:1030C00002D0B3F5806FECD12A68136823F0400377
:1030D0001360E6E72A68136823F4005313602A6834
:1030E000136843F400531360DFE7002002B0BDE82B
:1030F000F08700BF0000002010B582B004460B46E8
:10310000009200228021FFF78DFF08B902B010BDA8
:10311000636D43F0200363650320F7E7002856D072
:1031200010B50446436A33B94368B3F5827F05D0CE
:103130000023C36102E00023036143610023A36213
:1031400094F85130002B3CD0022384F8513022688F
:10315000136823F040031360636803F48273A2686A
:1031600002F404421343E26802F40062134322694A
:1031700002F002021343626902F001021343A269E2
:1031800002F400721343E26902F038021343226A28
:1031900002F080021343A26A02F400522168134332
:1031A0000B60638B226803F0040353602268D369C9
:1031B00023F40063D36100206065012384F851305B
:1031C00010BD84F850302046FEF7C0FABCE701205D
:1031D00070472DE9F04383B01F460A9D90F85030A8
:1031E000012B00F01081044688469146012380F8A7
:1031F0005030FEF741FC064694F85130DBB262686D
:10320000012B0AD0B2F5827F40F0E380A268002A49
:1032100040F0E980042B40F0E880B8F1000F00F0A6
:10322000E680B9F1000F00F0E480002F00F0E380A9
:1032300094F85130DBB2042B02D0052384F85130CE
:1032400000236365C4F83890E787A787C4F8308007
:10325000E786A7862364636423681A6812F0400F28
:1032600003D11A6842F040021A60E368B3F5006FB8
:1032700011D063680BB1012F0BD1226B2368127838
:103280001A73236B01332363E38E9BB2013B9BB222
:10329000E38601276BE063680BB1012F0BD1226B32
:1032A00023681288DA60236B02332363E38E9BB2B8
:1032B000013B9BB2E38601271CE023689A6812F069
:1032C000010F0ED0E28F92B25AB1DA68A36B1A8066
:1032D000A36B0233A363E38F9BB2013B9BB2E387F3
:1032E0000127FEF7C9FB801BA84203D3B5F1FF3FBE
:1032F00040F08380E38E9BB21BB9E38F9BB2002B1F
:1033000053D023689A6812F0020FD6D0E28E92B2A0
:10331000002AD2D0002FD0D0226B1288DA60236B23
:1033200002332363E38E9BB2013B9BB2E38600270B
:10333000C3E723689A6812F0010F0ED0E28F92B2B1
:103340005AB1DA68A36B1A70A36B0133A363E38FDE
:103350009BB2013B9BB2E3870127FEF78DFB831BEA
:10336000AB4202D3B5F1FF3F49D1002D49D0E38EE6
:103370009BB213B9E38F9BB2BBB123689A6812F07A
:10338000020FD6D0E28E92B2002AD2D0002FD0D037
:10339000226B12781A73236B01332363E38E9BB283
:1033A000013B9BB2E3860027C3E73246294620460D
:1033B000FFF7A2FE48B9A36863B901932368DA68EE
:1033C00001929B680193019B04E020236365012027
:1033D00000E00220012384F85130002384F85030AB
:1033E00003B0BDE8F0830220F4E70220F2E70120F9
:1033F000F0E70120EEE70120ECE70320EAE70320F5
:10340000E8E70320E6E70220EAE70268D36823F44E
:103410009073D3600268536923F001035361036B17
:10342000012B05D0202380F83E3000230363704732
:103430000268D36823F01003D360F3E790F83D30BF
:10344000DBB2212B01D0022070478368B3F5805F87
:1034500017D0036A5A1C02621A7803685A60C38C38
:103460009BB2013B9BB2C3844BB90268D36823F083
:103470008003D3600268D36843F04003D360002028
:1034800070470369002BE4D1036A1B880268C3F309
:1034900008035360036A02330362E0E710B5044691
:1034A0000268136923F44053C1680B4313618368B6
:1034B0000269134342691A430168CB6823F4B0538D
:1034C00023F00C031343CB600268536923F4407369
:1034D00081690B4353610268134B9A4220D0FFF776
:1034E00081FD024602EB820202EB820263689B00CE
:1034F000B2FBF3F20D48A0FB02314909642303FB40
:1035000011231B013233A0FB03235B0903F0F002FC
:1035100002EB011203F00F03216813448B6010BD0E
:10352000FFF770FD0246DDE7003801401F85EB51D3
:103530002DE9F84305460F4616469946DDF82080EA
:103540002C68246837EA04030CBF4FF0010C4FF0DD
:10355000000CB4451FD1B8F1FF3FF1D0B8F1000F16
:1035600005D0FEF789FAA0EB09004045E8D92A68A2
:10357000D36823F4D073D3602A68536923F001031E
:103580005361202385F83D3085F83E30002385F8CF
:103590003C30032000E00020BDE8F88358B310B5AC
:1035A000044690F83D300BB3242384F83D30226864
:1035B000D36823F40053D3602046FFF76FFF2268DF
:1035C000136923F4904313612268536923F02A039B
:1035D00053612268D36843F40053D3600020206411
:1035E000202384F83D3084F83E3010BD80F83C3014
:1035F000FEF7E6F8D8E7012070472DE9F04182B0E8
:103600001E4690F83D30DBB2202B54D104460D46C7
:103610009046002953D0002A53D090F83C30012B1B
:1036200051D0012380F83C3000230364212380F82B
:103630003D30FEF721FA0746A4F82480A4F826803E
:10364000A368B3F5805F05D04FF00008002384F82D
:103650003C3012E0236913B14FF00008F6E7A846AA
:103660000025F3E738F8023B2268C3F308035360F0
:10367000E28C92B2013A92B2E284E38C9BB273B1D3
:1036800000963B46002280212046FFF751FFE0B91B
:10369000002DE7D015F8012B23685A60E8E7009663
:1036A0003B46002240212046FFF742FF78B9202305
:1036B00084F83D3000E0022002B0BDE8F081012036
:1036C000FAE70120F8E70220F6E70320F4E70320F9
:1036D000F2E72DE9F04182B01E4690F83E30DBB2B1
:1036E000202B5CD104460D46904600295BD0002A71
:1036F0005BD090F83C30012B59D0012380F83C304E
:1037000000230364222280F83E200363FEF7B4F90D
:103710000746A4F82C80A4F82E80A368B3F5805F38
:1037200005D04FF00008002384F83C3017E02369EF
:1037300013B14FF00008F6E7A8460025F3E7236829
:103740005B68C3F3080328F8023B03E023685B6867
:103750002B700135E28D92B2013A92B2E285E38D8F
:103760009BB2BBB100963B46002220212046FFF7CA
:10377000DFFEF0B9002DE2D0A368B3F5805FE5D09D
:1037800013B92369002BE1D023685B6803F07F0342
:103790002B70DEE7202384F83E30002000E002207A
:1037A00002B0BDE8F0810120FAE70120F8E702202D
:1037B000F6E70320F4E7704708B50168CA6822F00D
:1037C0004002CA60202280F83D20FFF7F4FF00206D
:1037D00008BD7047704708B5406A0023C385C3849D
:1037E000FFF7F8FF08BD704790F83E30DBB2222BA0
:1037F00060D18368B3F5805F46D0826AB3F5805F9D
:1038000004D0002B4DD10369002B4AD103685B68BB
:103810001370836A01338362C38D9BB2013B9BB2F9
:10382000C385002B48D100B583B00268D36823F06C
:103830002003D3600268D36823F48073D3600268E6
:10384000536923F001035361202380F83E30036B5A
:10385000012B2CD1002303630268D36823F01003EB
:10386000D36003681A6812F0100F06D0002201928C
:103870001A6801925B680193019B818DFFF7B3FF8A
:10388000002003B05DF804FB0269002AB5D1826A0A
:1038900003685B68C3F308031380836A023383629F
:1038A000BAE703685B6803F07F031370B1E7FFF7C3
:1038B00090FFE5E7022070470020704730B583B0E5
:1038C000044602681368D068516913F00F0505D1EA
:1038D00013F0200F02D010F0200F19D12DB111F0EC
:1038E000010119D110F4907F16D1216B012975D0F7
:1038F00013F0800F03D010F0800F40F0D78013F04A
:10390000400F03D010F0400F40F0D48003B030BD22
:103910002046FFF769FFF9E713F0010F06D010F416
:10392000807F03D0226C42F00102226413F0040F66
:1039300004D019B1226C42F00202226413F0020F8B
:1039400004D019B1226C42F00402226413F0080F73
:1039500007D010F0200F00D119B1226C42F00802FC
:103960002264226C002AD1D013F0200F02D010F074
:10397000200F21D123685B6903F04003226C12F011
:10398000080F00D123B32046FFF73FFD23685A6993
:1039900012F0400F18D05A6922F040025A61A36B0E
:1039A00073B1464A5A63A06BFEF70EF90028ADD0FA
:1039B000A06B436B9847A9E72046FFF715FFD9E7AF
:1039C0002046FFF707FFA1E72046FFF703FF9DE72B
:1039D0002046FFF7FFFE0023236497E713F0100F44
:1039E00086D010F0100F83D0002301931368019349
:1039F00053680193019B536913F0400F32D0A16BC0
:103A00000B685B689BB2002B80D0A08D98427FF63C
:103A10007DAFE3858B69202B08D1A18DE38D9BB20F
:103A2000C91A89B22046FFF7DEFE6FE7D36823F498
:103A30008073D3602268536923F0010353612268C5
:103A4000536923F040035361202384F83E30002360
:103A500023632268D36823F01003D360A06BFEF7C2
:103A600091F8DAE7A18DE38D9BB2C91A89B2E38D93
:103A70009BB2002B3FF44AAF00293FF447AFD36815
:103A800023F49073D3602268536923F001035361D8
:103A9000202384F83E30002323632268D36823F078
:103AA0001003D3602046FFF79EFE2FE72046FFF766
:103AB000C5FC2BE72046FFF77FFE27E7D737000836
:103AC00008B50349034801F06DFF034B187008BDAA
:103AD000780D0020100000207C0D00200020704791
:103AE000094B01221A7038B1904209D1064B0422C9
:103AF0001A70054B18787047034B00221A70F8E7CC
:103B0000014B04221A70F4E70C000020044B012240
:103B10001A7008B900221A70014B1878704700BF5C
:103B20000C0000200346A8B9032915D8DFE801F0EE
:103B30000209040E084670474FF480511160184680
:103B400070474FF400611160184670470121116001
:103B500018467047042070470420704708B10420BD
:103B6000704710B58C46114604461B0303F470429F
:103B700009036046FDF7C8F9204610BD08B10420CE
:103B80007047F8B50E461D46074614032046FDF75C
:103B9000FDF92A0302F4704221463046FDF74CFA43
:103BA0003846F8BD08B5044B03EB800252685268F2
:103BB0000344187B904708BDA40D002008B5084BAE
:103BC0001B5C53B9064B01221A5403EB8002526866
:103BD00012681844007B904708BD0020FCE700BF36
:103BE000A40D002038B5044C04EB80056D68AD6869
:103BF0000444207BA84738BDA40D002038B5044CF0
:103C000004EB80056D68ED680444207BA84738BD4F
:103C1000A40D002010B5044B03EB800464682469F4
:103C20000344187BA04710BDA40D002004E011F848
:103C3000012B00F8012B1A46531E002AF7D17047BA
:103C400002E000F8011B1A46531E002AF9D1704702
:103C500010B4034600201446013A34B113F8010BA6
:103C600011F801CBB0EB0C00F5D010BC7047034647
:103C700000E00133187808B18842FAD1704700009B
:103C800030B400252B4601E001250133012B1BD860
:103C900003EB43021A4C54F82220002AF4D00468A3
:103CA000A242F2D103EB4302154C04EB82025468AA
:103CB00082689442E9D103EB4302114C04EB820287
:103CC0001489C2889442E0D1022B0CD0B1B903EB25
:103CD00043030B4A02EB83035B89B3F5807F0BD070
:103CE000002030BC70472DB9022901D01220F8E71E
:103CF0000020F6E70020F4E71020F2E71020F0E7BC
:103D0000880D0020002000E00130012806D800EBDB
:103D100040029300034AD358002BF5D1023818BF54
:103D200001207047880D002010B5002300E001330A
:103D3000012B19D803EB43022B4C54F822400268A4
:103D40009442F4D103EB4302274C04EB8202546803
:103D500082689442EBD103EB4302234C04EB8202D2
:103D60001489C2889442E2D1022B11D031B103EB05
:103D700043021D4800EB8202528992BB29BB03EB30
:103D80004302194901EB82025189013189B21EE0D7
:103D90000023012B07D803EB4302134C54F82220D5
:103DA0000AB10133F5E7022B19D00F4C03EB430C9A
:103DB00004EB8C02D0F800E044F82CE084685460F6
:103DC000C088108100205081D0E74FF4807103EB50
:103DD0004300054A02EB80025181581C10BD0020AF
:103DE000FCE70020FAE700BF880D00200138012819
:103DF0001AD800EB40030E4A02EB83035B89B3F54C
:103E0000807F03D01BB1013B9BB200E0002300EB9D
:103E10004002074901EB820253813BB900EB4000AD
:103E200083000020C8507047022070470020704770
:103E3000880D0020002302E010BC70470133012BE5
:103E400017D803EB43020B4951F822208242F5D1E7
:103E500010B403EB4302920000248C500133012B79
:103E6000EAD803EB4302034951F822208242F5D1FC
:103E7000EFE77047880D0020436A0433090B02689E
:103E800002F580529278B1FBF2F101E0091A083391
:103E9000186818B18142F9D2586808447047CA7E40
:103EA0008B7E43EA022300F580500278032A01D07A
:103EB00018467047487D0A7D42EA002243EA0243E1
:103EC000F6E78176C1F30723C376C1F30743037591
:103ED000090E4175704700002DE9F84F89460C68BE
:103EE00000E0013423782F2BFBD05C2BF9D0D0F8E5
:103EF00018A00B2220215046FFF7A2FE00263346D1
:103F00000827B04603F1010BE55C202D53D92F2D76
:103F100051D05C2D4FD02E2D01D0B7420ED8082F96
:103F200074D12E2D02D00620BDE8F88F4FEA880804
:103F30005FFA88F83E465B460B27E3E715F0800FF3
:103F40001AD105F17F02D2B27D2A18D8023314F8B3
:103F50000B10A1F14002D2B23E2A03D981F08002B7
:103F60007E2A55D87A1EB24254D9721C0AF80650DD
:103F70000AF802100236C5E748F00308E1E72946CF
:103F80002748FFF774FE002846D1A5F14103DBB2B4
:103F9000192B06D848F002080AF8065001365B468D
:103FA000B0E7A5F16103DBB2192BF5D848F00108A1
:103FB000203DEDB2F0E75C44C9F80040202D14D854
:103FC00004235EB39AF80020E52A10D0082F12D0FF
:103FD00008F00302012A13D008F00C08B8F1040F0E
:103FE00011D08AF80B3000209EE70023E9E7052274
:103FF0008AF80020EAE74FEA88085FFA88F8E7E7DE
:1040000043F01003E8E743F00803EAE706208BE7F4
:10401000062089E7062087E7062085E7062083E754
:104020006CBF00080146006838B102461378202BA7
:1040300006D93A2B04D00132F8E74FF0FF30704731
:104040003A2B01D000207047034613F8010B30389B
:1040500009280CD89A4202D04FF0FF30704701284F
:1040600002D94FF0FF30704701320A6070474FF0BD
:10407000FF307047F8B500F580531D790DB928461B
:10408000F8BD04461846DE6A0123324621464078D0
:10409000FFF7B4FD0546D0B904F580520023137133
:1040A000136AF31A92699342E9D204F58053DF78D8
:1040B0000AE004F5805083691E44012332462146FC
:1040C0004078FFF79BFD013F012FF2D8D7E701258C
:1040D000D5E770B500F58053DB6A8B4202D100262C
:1040E000304670BD04460D46FFF7C4FF0646002863
:1040F000F6D104F5805001232A4621464078FFF787
:1041000071FD10B101264FF0FF3504F58054E562D2
:10411000E6E7000010B5044600F5805300221A714E
:104120004FF0FF32DA62FFF7D4FF98BB024694F8F3
:10413000FF1194F8FE3143EA01231BB217498B4269
:104140002AD194F8391094F838301B0443EA0163FB
:1041500094F8371043EA012394F836100B4323F008
:104160007F430F498B4213D094F8551094F8543084
:104170001B0443EA016394F8531043EA012394F8C3
:1041800052100B4323F07F4305498B4200D001229C
:10419000104610BD0322FBE70222F9E755AAFFFFF4
:1041A00046415400B8B108B503684BB103F58051DE
:1041B000097829B103F58051C9888288914201D0DC
:1041C000092008BD03F580535878FFF7EBFC10F089
:1041D0000100F6D0F4E70920704700002DE9F04710
:1041E00084B005461746002303600846FFF71AFF10
:1041F000061EC0F2A581A14B53F82640002C00F00A
:10420000A4812C6004F580531B7883B104F580539E
:104210005878FFF7C7FC10F0010508D1002F00F017
:10422000908110F0040F00F08C810A2589E104F5DB
:10423000805300221A70F0B25870FFF7BFFC10F0E4
:10424000010F40F084811FB110F0040F40F0818114
:1042500000212046FFF75EFF0546012800F0D980C7
:104260000027032D00F07781002D40F07681227B1E
:10427000E37A43EA02231BB2B3F5805F40F06F811B
:10428000E27DA37D53EA02230DD194F8272094F810
:1042900026301B0443EA026394F8252043EA0223F4
:1042A00094F82420134304F580529361217CD1704B
:1042B0004A1ED2B2012A00F2548103FB01F1607B55
:1042C00004F580529070002800F04D81421E10428B
:1042D00040F04B81A27C667C46EA022604F58052BF
:1042E000168116F07F0F40F0428194F814C0E27CF2
:1042F00052EA0C220ED194F823C094F82220120422
:1043000042EA0C6294F821C042EA0C2294F820C0E0
:1043100042EA0C0294F80FE094F80EC05CEA0E2C0E
:1043200000F027810CEB010E0EEBD61E7245C0F09B
:104330002281A2EB0E02B2FBF0F98242C0F01D8195
:1043400040F6F57291457DD84FF001084FF6F572B1
:10435000914501D94FF0030809F1020A04F580598B
:10436000C9F814A0C9F81C700CEB0702C9F820208A
:1043700007EB0E00C9F82800B8F1030F65D0002E36
:1043800000F0FF80114404F580525162B8F1020F31
:1043900071D00AEB4A010AF0010202EB510202F667
:1043A000FF72B3EB123FC0F0EE8004F580534FF084
:1043B000FF321A61DA6080225A71B8F1030F61D0BE
:1043C00004F5805282F800802D490B8801339BB29E
:1043D0000B80D3802046FFF72DFDB2E0002304AA16
:1043E00002EB810242F8103C0131032913D80B0182
:1043F00003F5DF7323441A79002AEFD0D87A9A7A2A
:10440000120442EA0062587A42EA00221B7A1343FD
:10441000E5E70021E9E700260BE039462046FFF7F3
:1044200079FE054600283FF41CAF0136032E3FF607
:1044300018AF04AB03EB860353F8107C002FECD1CC
:104440000225F2E74FF0020880E7002E40F0978047
:1044500094F82F1094F82E20120442EA016294F886
:104460002D1042EA012294F82C100A43C9F82420A6
:104470004FEA8A0293E74FEA4A0290E7800D002054
:10448000A00D002094F8312094F8303043EA022344
:104490001BB2012B94D1791C2046FFF71AFE00288D
:1044A0008ED104F5805300225A7194F8FF2194F8BC
:1044B000FE3143EA02231BB2344A934280D1E278B0
:1044C000A3781B0443EA0263627843EA022322785A
:1044D00013432F4A93427FF473AF94F8E72194F883
:1044E000E6311B0443EA026394F8E52143EA022320
:1044F00094F8E4211343274A93427FF461AF94F880
:10450000EB2194F8EA311B0443EA026394F8E921B1
:1045100043EA022394F8E821134304F5805213611F
:1045200094F8EF1194F8EE311B0443EA016394F818
:10453000ED1143EA012394F8EC110B43D3603FE7FC
:104540000B25284604B0BDE8F0870C25F9E70325C4
:10455000F7E70A25F5E70125F3E70D25F1E70D2536
:10456000EFE70D25EDE70D25EBE70D25E9E70D2537
:10457000E7E70D25E5E70D25E3E70D25E1E70D2547
:10458000DFE70D25DDE70D25DBE700BF55AAFFFFBF
:10459000525261417272416170B50446FFF76AFD83
:1045A000054668B904F580531B78032B0AD004F53F
:1045B0008054002211466078FFF72CFB00B10125E2
:1045C000284670BD04F580535B79012BEFD14FF481
:1045D000805200212046FFF733FB552384F8FE313B
:1045E000AA2384F8FF315223237063706123A370E0
:1045F0004122E270722184F8E41184F8E51184F814
:10460000E62184F8E73104F58056336984F8E8310F
:10461000C3F3072284F8E921C3F3074284F8EA21AF
:104620001B0E84F8EB31F36884F8EC31C3F30722F6
:1046300084F8ED21C3F3074284F8EE211B0E84F8C1
:10464000EF31F2690132F262012321467078FFF7FF
:10465000D5FA00237371AAE7023900F580535B692C
:10466000023B8B4206D900F580508378806A01FBBB
:104670000300704700207047012966D9F8B5064647
:104680000C4600F580535B698B4260D900F580537E
:104690001B78022B2DD0032B3DD0012B01D0012004
:1046A00056E001EB510500F58053196A01EB153115
:1046B000FFF70FFD10B14FF0FF3049E06F1CC5F35D
:1046C0000B05755D06F58053196A01EB173130460D
:1046D000FFF7FFFC00283CD1C7F30B07F05D45EA6C
:1046E000002014F0010F01D0000931E0C0F30B00ED
:1046F0002EE000F58053196A01EBD421FFF7E9FCA5
:1047000050BB40F6FE7303EA440433195B78305D16
:1047100040EA03201CE000F58053196A01EB942164
:10472000FFF7D7FCD8B940F6FC7303EA84043219CA
:10473000D07893781B0443EA0063507843EA00235F
:10474000305D184320F0704002E0012070470120E6
:10475000F8BD4FF0FF30FBE74FF0FF30F8E74FF0C8
:10476000FF30F5E7F8B50646C1808468012C44D0D7
:104770000F46036803F580525269A2423FD924B91B
:1047800003F580521278032A16D0CCB903F5805273
:104790001289BA4235D903F58053586AF46000286B
:1047A00037D000EBD7103061336807F07F0103EB9F
:1047B000411171610020F8BD03F58052546AE4E7AD
:1047C00003F580539D78ED01AF4211D32146306847
:1047D000FFF752FF0446B0F1FF3F14D0012814D96F
:1047E000336803F580535B69834210D97F1BEBE785
:1047F00021463068FFF730FFD0E70220DBE70220D8
:10480000D9E70220D7E70120D5E70220D3E702202D
:10481000D1E70220CFE7012940F290802DE9F04155
:1048200004460D46164600F580535B698B4240F204
:10483000878000F580531B78022B44D0032B59D07E
:10484000012B02D00220BDE8F08101EB510700F5F9
:104850008053196A01EB1731FFF73BFC0028F2D1B6
:1048600007F10108C7F30B0715F0010520D0E35746
:1048700003F00F03320102F47F621343DBB2E3550E
:1048800004F5805301221A71196A01EB1831204690
:10489000FFF71FFC0028D6D1C8F30B0855B1C6F3AB
:1048A000071204F8082004F5805401232371CAE795
:1048B000F3B2E4E714F9082022F00F02C6F303264E
:1048C0003243D2B2EDE700F58053196A01EBD521EE
:1048D000FFF7FFFB0028B6D140F6FE7303EA45055B
:1048E00063196655C6F307225A7004F580540123F4
:1048F0002371A8E700F58053196A01EB9521FFF7B2
:10490000E8FB00289FD140F6FC7303EA8505611996
:10491000CA788B781B0443EA026303F07043334385
:104920006655C6F307224A70C6F307428A701B0E0B
:10493000CB7004F580540123237184E70220704773
:10494000022080E7F8B505460E4641B900F58053D0
:10495000DF689FB15B69BB4211D801270FE0FFF709
:104960008BFE034601284CD9B0F1FF3F4ED005F530
:1049700080525269824249D8374600E001273C46BE
:104980000CE021462846FFF777FE034680B1B0F1E0
:10499000FF3F3BD0012839D0BC4236D0013405F569
:1049A00080535B69A342ECD8012F2CD90224E8E79D
:1049B0006FF0704221462846FFF72DFF034600B9ED
:1049C0008EB9BBB905F58053DC601B69B3F1FF3FBD
:1049D0001ED005F58055013B2B616B7943F0010337
:1049E0006B71234612E0224631462846FFF713FF3B
:1049F0000346E6E7012B01D0012307E04FF0FF3328
:104A000004E0012302E0002300E000231846F8BD83
:104A10002346FBE72DE9F843C5886B1C9AB2002AB0
:104A200076D004460F460269002A73D013F07F0641
:104A300009D101320261C16871B9026802F5805280
:104A400012899A4268D90135E580236803EB461341
:104A500063610020BDE8F883006800F58052927819
:104A6000013A12EAD318EED1FFF706FE814601287B
:104A700054D9B0F1FF3F53D0206800F580535B69F3
:104A80004B453DD8002F4DD0E168FFF75BFF8146D5
:104A9000002849D0012849D0B0F1FF3F48D0206814
:104AA000FFF7E8FA08B10120D4E74FF48052002163
:104AB0002068FFF7C5F8276849463846FFF7CCFD60
:104AC00007F58057F862236803F5805292784245D3
:104AD00010D903F5805301221A712068FFF7CAFA32
:104AE00040BB236803F58053DA6A0132DA6208F1C9
:104AF0000108E8E703F58053DA6AA2EB0802DA62FC
:104B0000C4F80C9049462068FFF7A6FD20619AE79B
:104B100004209FE704209DE704209BE7022099E7FB
:104B2000012097E7042095E7072093E7022091E70B
:104B300001208FE701208DE738B504460021FFF7FB
:104B400011FE054640B1284638BD00212046FFF73A
:104B500061FF05460028F6D121692068FFF7B9FA00
:104B600005460028EFD16069037853B1C37A13F08A
:104B7000080FEAD10B22A169FFF76AF80028E4D1F7
:104B8000E1E70425DFE710B582B0044601910B7818
:104B90002F2B01D05C2B01D1013101910023A360A7
:104BA000019B1B781F2B19D901A92046FFF794F907
:104BB0000346D0B92046FFF7BFFFA369DA7A034660
:104BC000B0B912F0040F10D16169CB7A13F0100F55
:104BD00015D02068FFF763F9A060E5E700212046C3
:104BE000FFF7C0FD034600226261184602B010BD07
:104BF0000428FAD112F0040FF7D10523F5E70523B5
:104C0000F3E770B504460E460021FFF7ABFD024600
:104C1000C0B9002508E00135B54213D00121204676
:104C2000FFF7F8FE024668B921692068FFF751FADC
:104C3000024638B963691B78E52BECD0002BEAD02B
:104C40000025EBE7042A01D0104670BD0722FBE7E0
:104C500038B504460121FFF7D4FF054608B12846C0
:104C600038BD21692068FFF734FA05460028F6D1DF
:104C7000202200216069FEF7E3FF0B22A169606931
:104C8000FEF7D4FF236803F5805301221A71E6E78B
:104C9000F8B501292FD904460D4600F580535B690C
:104CA0008B422BD9002700E0354604F580535B6921
:104CB000AB4221D929462046FFF7DEFC0646D8B193
:104CC00001281DD0B0F1FF3F1CD00022294620460C
:104CD000FFF7A1FD074678B904F580531B69B3F1CE
:104CE000FF3FE1D004F5805201331361537943F063
:104CF00001035371D8E702273846F8BD0227FBE7C6
:104D00000227F9E70127F7E770B584B00190009119
:104D10001646039103A8FFF785F9051E1FDB124B0A
:104D200053F8254034B12046FFF784F804F5805449
:104D300000232370019B1BB103F5805200211170E9
:104D4000094A42F8253063B1012E02D0002004B098
:104D500070BD0022694601A8FFF740FAF7E70B2073
:104D6000F5E70020F3E700BF800D00202DE9F043B8
:104D70008FB00191002800F0DE8014460646002323
:104D8000036002F01F0702F01E0201A906A8FFF748
:104D900025FA054618B128460FB0BDE8F08303ABED
:104DA0000C93019906A8FFF7EEFEDDF82C8005466E
:104DB00058B9B8F1000F54D037F0010314BF0121E6
:104DC000002106A8FEF75CFF054614F01C0F00F05A
:104DD0009E80002D51D0042D45D047F00807DDF806
:104DE0002C8015B917F0080F53D1BDB917F0080F73
:104DF00001D047F02007069B03F58053DB6AF3617F
:104E0000C6F8208037F0010314BF0121002106A855
:104E1000FEF78AFFB062002800F08F80002DBAD123
:104E2000B7710027F771069C41462046FFF737F817
:104E3000306198F81F2098F81E301B0443EA026383
:104E400098F81D2043EA022398F81C201343F360CE
:104E5000B760B7617762346004F58054E388B3804B
:104E600099E70625B1E7FEF74DFF08B91225B4E72B
:104E700006A8FFF7EDFE0546AFE798F80B3013F0F4
:104E8000110F04D114F0040FABD00825A9E70725B2
:104E9000A7E7FEF723FE88F80E00C0F3072388F883
:104EA0000F30C0F3074388F81030000E88F8110067
:104EB000002488F80B4088F81C4088F81D4088F8CA
:104EC0001E4088F81F4041460698FEF7E8FF8146DD
:104ED00021464046FEF7F5FF069800F58053012273
:104EE0001A71B9F1000F80D0DC6A4946FFF7D0FE95
:104EF000054600287FF479AF069809F1FF3300F5E5
:104F00008052D3602146FFF7E4F805466DE7002D97
:104F10007FF46BAF98F80B3013F0100F09D114F039
:104F2000020F3FF462AF13F0010F3FF45EAF0725AD
:104F30005BE7042559E709252DE702252BE72DE935
:104F4000F04F83B004468846154699460023C9F8B9
:104F50000030FFF727F98246002840F0A08094F83F
:104F600007A0BAF1000F40F09A80A37913F0010F67
:104F700000F09E80E668A368F61AAE4252D32E4631
:104F800050E0636A1BB12046FEF776FF5DE0616981
:104F9000FFF772FB59E04FF0020A84F807A07EE0A9
:104FA0004FF0010A84F807A079E04FF0020A84F874
:104FB00007A074E0216801F580531B7933B101F536
:104FC0008053D86A019BC01AA84201D32D031FE069
:104FD0004FF4805208EB0030FEF728FEF6E7019B05
:104FE000A361A568C5F30B05C5F58055AE4200D297
:104FF0003546A1692068FFF76CF8002853D1216875
:10500000A368C3F30B032A4619444046FEF70EFE7D
:10501000A844A3682B44A360D9F800302B44C9F8F6
:105020000030761B002E3AD0A168C1F30B03002B91
:10503000D7D1206800F580539F78013FFFB217EA6F
:10504000113708D100299CD120690128A3D9B0F1DA
:10505000FF3FA5D06061D4F800B061695846FFF702
:10506000FBFA0028A1D03B180193350BB6F5805F01
:10507000B5D37B190BF580529278934200D9D51B9A
:105080000BF5805B2B46019A41469BF80100FEF729
:10509000A9FD00288ED04FF0010A84F807A05046E1
:1050A00003B0BDE8F08F4FF0010A84F807A0F6E7DF
:1050B0004FF0070AF3E72DE9F04F83B00446884626
:1050C000164699460023C9F80030FFF76BF8824670
:1050D00000284BD194F807A0BAF1000F46D1A3796C
:1050E00013F0020F00F0DE80A368F342C0F0A1804D
:1050F00000269EE0636A002B3CD02046FEF7BCFEF3
:105100000346002B00F0C480012B38D0B3F1FF3FE1
:105110003AD06361226902B92361206800F58053A7
:10512000DA6AA3699A4234D0D4F800B0616958466B
:10513000FFF792FAB0B33B180193350BB6F5805FD9
:105140004BD37B190BF580529278934200D9D51B33
:105150000BF5805B2B46019A41469BF80100FEF758
:105160004DFD20B34FF0010A84F807A0504603B06C
:10517000BDE8F08F6169FFF7E5FB0346C1E74FF03B
:10518000020A84F807A0F1E74FF0010A84F807A0AB
:10519000ECE7FEF76FFF0028C6D04FF0010A84F855
:1051A00007A0E3E74FF0020A84F807A0DEE72068D3
:1051B00000F58053D96A019BC91AA94201D32D0376
:1051C0002DE04FF4805208EB0131FEF72FFD2368EC
:1051D00003F5805300221A71F1E7A268E3689A424E
:1051E00042D2019BA361A568C5F30B05C5F58055A7
:1051F000AE4200D23546A1692068FEF76AFF00285A
:1052000041D12768A368C3F30B002A4641463844BE
:10521000FEF70CFD236803F5805301221A71A844A0
:10522000A3682B44A360D9F800302B44C9F80030A0
:10523000761B6EB3A168C1F30B03002BD3D120689A
:1052400000F580539F78013FFFB217EA11377FF4D2
:1052500064AF00297FF44EAF2369002B7FF451AF78
:10526000FFF770FB03464CE75846FEF703FF28B9EB
:10527000236803F58053019ADA62B2E74FF0010A1E
:1052800084F807A072E74FF0010A84F807A06DE7E1
:10529000A368E268934200D9E360A37943F0200356
:1052A000A37163E74FF0070A60E738B50446FEF7DD
:1052B00079FF18B9A37913F0200F00D138BDE16947
:1052C0002068FEF706FF0028F8D1256AEB7A43F044
:1052D0002003EB72237B2B77A3891B0A6B77A37BBD
:1052E000AB77E37BEB7721692846FEF7EAFDFEF713
:1052F000F5FBA875C0F30723EB75C0F307432B76C6
:10530000000E68760023AB74EB74A37923F02003BE
:10531000A371236803F5805301221A712068FFF7F7
:105320003BF9CBE710B50446FFF7BFFF00B110BD56
:105330002046FEF737FF0028F9D1A06AFEF756FD98
:105340000028F4D12060F2E72DE9F04F89B00590F4
:10535000012900F2D8820D46174605A8FEF762FE25
:105360000028C0F2D482984B53F82060002E00F041
:10537000D08206F5805300221A70C4B22046FEF790
:105380001DFC10F0010F40F0C68210F0040F40F039
:10539000C48206AA01212046FEF73CFC002840F00A
:1053A000BE8206987F2840F2BC82A5B100230093FC
:1053B000009BC01A06907B1E1F4200D18FB9834903
:1053C000A1FB003109090023814A32F813209142E0
:1053D00004D20133F8E73F230093E9E77D4A32F82E
:1053E0001370B7F5805F00D33F0B1FB1802F02D938
:1053F000802700E00127B0FBF7F340F6F5729342F7
:1054000018D84FF001094FF6F572934215D8B9F14B
:10541000030F14D0B9F1010F62D003F102084FEA73
:10542000480808F6FF784FEA1838042301934FF034
:10543000010B10E04FF00209E5E74FF0030903F21A
:1054400002484FEA880808F1FF384FEA183800236D
:1054500001934FF0200B009A0BEB0203029308EB31
:10546000030A019B9A4407EB0A039B1A9842C0F077
:105470005A8207AA03212046FEF7CCFB20B9079BDE
:1054800013B1B3F5004F01D901230793079A02EB3B
:105490000A03013B524213400793A3EB0A0307930D
:1054A000B9F1030F25D09844069AA2EB0B03A3EBA6
:1054B000080301995B1AB3FBF7F30393B9F1020FE9
:1054C0001CD0B9F1030F20D0B9F1030F29D0B9F1E5
:1054D000010F21D0B2F5803F72D24FF0040A22E0D2
:1054E00003EB430303F101084FEA580808F10308EE
:1054F00097E79B44029A1A440292D5E740F6F57367
:1055000003999942DDD80E20FEE14FF6F573039919
:105510009942D9D80E20F7E1B2F5803FDAD2CA46D7
:1055200001E04FF00C0A002D58D14FF480520021B9
:105530003046FEF785FB012386F8BF3186F8C0317F
:10554000002286F8C12186F8C2A1FE2186F8C31187
:10555000069800990D182049A1FB05C16D1A01EBB1
:1055600055014D0B0795C90B41F03F0186F8C41159
:1055700086F8C5513F2186F8C61186F8C72186F8FE
:10558000C82186F8C92186F8CA01C0F3072186F828
:10559000CB11C0F3074186F8CC11000E86F8CD017F
:1055A000552186F8FE11AA2186F8FF1131462046C2
:1055B000FEF724FB002840F0B8814FF0F80A0FE016
:1055C0004FF0060AAFE700BF800D0020D34D6210F8
:1055D000C8BF0008B0BF00085B5615054FF0F00AC1
:1055E0004FF4805200213046FEF72AFB0B22D449AB
:1055F0003046FEF71BFB0023F372102333737773DF
:1056000086F80EB0CBF3072B86F80FB00123337466
:10561000B9F1030F00F0A4804FF40073DAB2727492
:105620001B0AB374069BB3F5803F80F09B80F37434
:10563000C3F30723337586F815A03F233376002381
:105640007376FF22B276F376009B3377002373776D
:10565000B377F377FEF742FA0790B9F1030F00F042
:105660008F8086F82700C0F3072386F82830C0F320
:10567000074386F82930000E86F82A0086F816803F
:10568000C8F30723F375802386F82430292386F88E
:1056900026301322AB4906F12B00FEF7C7FA55233B
:1056A00086F8FE31AA2386F8FF310123009A31469D
:1056B0002046FEF7A3FA002840F03981B9F1030F24
:1056C00000F09A800023DDF808B004971F46002FF1
:1056D00040F0B8804FF4805200213046FEF7B0FA17
:1056E0005246CDF81CA0B9F1030F00F08F80B9F13C
:1056F000010F00F089806FF0FF03134307933370AD
:10570000BDF81C301B0A73709DF81E30B3709DF8F5
:105710001F30F3700BF1010501235A463146204634
:10572000FEF76CFA002840F004814FF4805200210B
:105730003046FEF785FA012307932A46079B9845D2
:105740007DD902F1010B012331462046FEF756FABE
:10575000002840F0F080079B013307935A46EDE79D
:1057600000235BE786F82030C3F3072286F8212068
:10577000C3F3074286F822201B0E86F823305AE72F
:1057800086F84300C0F3072386F84430C0F307438C
:1057900086F84530000E86F8460086F82480C8F367
:1057A000072386F82530C8F3074386F826304FEAEA
:1057B000186386F82730022386F82C30002386F8F9
:1057C0002D3086F82E3086F82F30012286F83020D2
:1057D00086F83130062286F8322086F8333080236E
:1057E00086F84030292386F842301322564906F1C4
:1057F0004700FEF71BFA52E70123009A06323146B2
:105800002046FEF7FBF95DE7504B76E76AF0FF03B1
:1058100007933370BDF81C301B0A73709DF81E305F
:10582000B3709DF81F30F370FF2333717371B37140
:10583000F37133727372B3720F23F3726AE7013735
:10584000934644E7CDF808B0049FB9F1030F18D090
:10585000019F029D2A4601231D4431462046FEF742
:10586000CDF9002869D1013FF4D1B9F1030F0AD075
:10587000002211462046FEF7CDF9003818BF01205E
:1058800042E05D46E6E75223337073706123B370E4
:105890004122F270722186F8E41186F8E51186F84B
:1058A000E62186F8E731039A531E86F8E831C3F300
:1058B000072386F8E931531EC3F3074286F8EA212D
:1058C0001B0E86F8EB31022386F8EC31002386F8B4
:1058D000ED3186F8EE3186F8EF31552386F8FE314A
:1058E000AA2386F8FF310123009D2A461A44314637
:1058F0002046FEF783F901232A4607323146204627
:10590000FEF77CF9B4E7132009B0BDE8F08F0B2057
:10591000FAE70C20F8E70320F6E70A20F4E7012075
:10592000F2E70120F0E70E20EEE70120ECE701208E
:10593000EAE70120E8E70120E6E70120E4E700BF0D
:105940007CBF00089CBF000888BF000800FFFF0064
:10595000134B9B7BDBB2022B1FD810B40446104BB9
:1059600093F80EC05FFA8CFC002003F80C0093F84B
:105970000EC003EB8C0CCCF804409C7B1C442273BF
:105980009A7B541CE4B29C7330320A703A234B70F9
:105990002F238B70C87010BC70470120704700BF68
:1059A000A40D002008B50022FFF7D2FF08BD0000BB
:1059B000014B1868704700BF2400002070B50D4EE1
:1059C0000D4D761BB61006D0002455F8043B01346B
:1059D0009847A642F9D1094E094D06F0A7F8761B63
:1059E000B61006D0002455F8043B01349847A6426F
:1059F000F9D170BDA0C30008A0C30008A8C3000867
:105A0000A0C30008830730B548D0541E002A3FD0F9
:105A10000346CAB201E0013C3AD303F8012B9D07CB
:105A2000F9D1032C2DD9CDB245EA05250F2C45EA35
:105A3000054536D9A4F1100222F00F0C03F1200E17
:105A4000E6444FEA121C03F1100242E9045542E910
:105A5000025510327245F8D10CF1010214F00C0F0E
:105A600003EB021204F00F0C13D0ACF1040323F08B
:105A700003030433134442F8045B9342FBD10CF05C
:105A800003042CB1CAB21C4403F8012B9C42FBD185
:105A900030BD64461346002CF4D1F9E703461446A2
:105AA000BFE71A46A446E0E70FB400B5074A83B043
:105AB00004AB106853F8042B8168019300F094F84C
:105AC00003B05DF804EB04B0704700BF2400002071
:105AD000024B01461868826804F0E2BA24000020F4
