:020000040800F2
:100000000050002091180008251700082717000845
:10001000291700082B1700082D1700080000000002
:100020000000000000000000000000002F17000882
:1000300031170008000000003317000835170008CA
:10004000D9180008D9180008D9180008D9180008CC
:10005000D9180008D9180008D9180008D9180008BC
:10006000D9180008D9180008D9180008D9180008AC
:10007000D9180008D9180008D9180008D91800089C
:10008000D9180008D9180008D9180008D91800088C
:100090003D170008D9180008D9180008D918000819
:1000A000D9180008D9180008D9180008D91800086C
:1000B000D9180008D9180008D9180008D91800085C
:1000C000D9180008D9180008D9180008D91800084C
:1000D000D91800084D170008D9180008D9180008C9
:1000E000C5170008D9180008D9180008000000003A
:1000F0000000000000000000000000000000000000
:0C01000000000000000000005FF808F1A3
:1001100010B5054C237833B9044B13B10448AFF341
:1001200000800123237010BDD009002000000000D2
:10013000449B000808B5034B1BB103490348AFF3C8
:10014000008008BD00000000D4090020449B000886
:10015000844641EA000313F0030349D1403A23D314
:100160000B6803604B6843608B688360CB68C36037
:100170000B6903614B6943618B698361CB69C3611F
:100180000B6A03624B6A43628B6A8362CB6AC36207
:100190000B6B03634B6B43638B6B8363CB6BC363EF
:1001A00040304031403ADBD230320BD30B68036031
:1001B0004B6843608B688360CB68C360103010313C
:1001C000103AF3D20C3205D351F8043B40F8043B0B
:1001D000043AF9D2043208D0D2071CBF11F8013B0F
:1001E00000F8013B01D30B8803806046704700BFD5
:1001F000082A13D38B07B1D010F00303AED0C3F19C
:100200000403D21ADB071CBF11F8013B00F8013BC5
:10021000A4D331F8023B20F8023B9FE7043AD9D33C
:10022000013A11F8013B00F8013BF9D20B78037059
:100230004B7843708B7883706046704781F0004143
:1002400002E000BF83F0004330B54FEA41044FEABB
:10025000430594EA050F08BF90EA020F1FBF54EA56
:10026000000C55EA020C7FEA645C7FEA655C00F0F2
:10027000E2804FEA5454D4EB5555B8BF6D420CDDC3
:100280002C4480EA020281EA030382EA000083EA46
:10029000010180EA020281EA0303362D88BF30BDE6
:1002A00011F0004F4FEA01314FF4801C4CEA11313C
:1002B00002D0404261EB410113F0004F4FEA03339B
:1002C0004CEA133302D0524263EB430394EA050F26
:1002D00000F0A780A4F10104D5F1200E0DDB02FA95
:1002E0000EFC22FA05F2801841F1000103FA0EF229
:1002F000801843FA05F359410EE0A5F120050EF1EF
:10030000200E012A03FA0EFC28BF4CF0020C43FA1F
:1003100005F3C01851EBE37101F0004507D54FF02C
:10032000000EDCF1000C7EEB00006EEB0101B1F57C
:10033000801F1BD3B1F5001F0CD349085FEA3000C2
:100340004FEA3C0C04F101044FEA445212F5800FCD
:1003500080F09A80BCF1004F08BF5FEA500C50F16A
:10036000000041EB045141EA050130BD5FEA4C0C4D
:10037000404141EB0101013C28BFB1F5801FE9D2AA
:1003800091F0000F04BF01460020B1FA81F308BFCD
:100390002033A3F10B03B3F120020CDA0C3208DD99
:1003A00002F1140CC2F10C0201FA0CF021FA02F174
:1003B0000CE002F11402D8BFC2F1200C01FA02F1E4
:1003C00020FA0CFCDCBF41EA0C019040E41AA2BF09
:1003D00001EB0451294330BD6FEA04041F3C1CDAD1
:1003E0000C340EDC04F11404C4F1200220FA04F0F1
:1003F00001FA02F340EA030021FA04F345EA03019B
:1004000030BDC4F10C04C4F1200220FA02F001FA5C
:1004100004F340EA0300294630BD21FA04F02946DE
:1004200030BD94F0000F83F4801306BF81F4801177
:100430000134013D4EE77FEA645C18BF7FEA655CEA
:1004400029D094EA050F08BF90EA020F05D054EABC
:10045000000C04BF1946104630BD91EA030F1EBFC1
:100460000021002030BD5FEA545C05D140004941C5
:1004700028BF41F0004130BD14F580043CBF01F5B8
:10048000801130BD01F0004545F0FE4141F470019E
:100490004FF0000030BD7FEA645C1ABF1946104679
:1004A0007FEA655C1CBF0B46024650EA013406BF7A
:1004B00052EA033591EA030F41F4002130BD00BF39
:1004C00090F0000F04BF0021704730B54FF48064F6
:1004D00004F132044FF000054FF0000150E700BF77
:1004E00090F0000F04BF0021704730B54FF48064D6
:1004F00004F1320410F0004548BF40424FF00001C3
:100500003EE700BF42004FEAE2014FEA31014FEA05
:1005100002701FBF12F07F4393F07F4F81F0605154
:10052000704732F07F4208BF704793F07F4F04BF9F
:1005300041F40021704730B54FF4607401F000457C
:1005400021F000411CE700BF50EA010208BF7047DC
:1005500030B54FF000050AE050EA010208BF7047CD
:1005600030B511F0004502D5404261EB41014FF436
:10057000806404F132045FEA915C3FF4D8AE4FF03E
:1005800003025FEADC0C18BF03325FEADC0C18BF21
:10059000033202EBDC02C2F1200300FA03FC20FA72
:1005A00002F001FA03FE40EA0E0021FA02F11444BF
:1005B000BDE600BF70B54FF0FF0C4CF4E06C1CEAD8
:1005C00011541DBF1CEA135594EA0C0F95EA0C0F49
:1005D00000F0DEF82C4481EA030621EA4C5123EABC
:1005E0004C5350EA013518BF52EA033541F48011EB
:1005F00043F4801338D0A0FB02CE4FF00005E1FB9E
:1006000002E506F00042E0FB03E54FF00006E1FBE7
:1006100003569CF0000F18BF4EF0010EA4F1FF042A
:10062000B6F5007F64F5407404D25FEA4E0E6D416A
:1006300046EB060642EAC62141EA55514FEAC5207B
:1006400040EA5E504FEACE2EB4F1FD0C88BFBCF5F7
:10065000E06F1ED8BEF1004F08BF5FEA500E50F1A8
:10066000000041EB045170BD06F0004646EA01016E
:1006700040EA020081EA0301B4EB5C04C2BFD4EBA0
:100680000C0541EA045170BD41F480114FF0000E99
:10069000013C00F3AB8014F1360FDEBF002001F007
:1006A000004170BDC4F10004203C35DA0C341BDC81
:1006B00004F11404C4F1200500FA05F320FA04F053
:1006C00001FA05F240EA020001F0004221F0004187
:1006D00010EBD37021FA04F642EB06015EEA430EFA
:1006E00008BF20EAD37070BDC4F10C04C4F120052A
:1006F00000FA04F320FA05F001FA04F240EA0200DD
:1007000001F0004110EBD37041F100015EEA430EAD
:1007100008BF20EAD37070BDC4F1200500FA05F2CD
:100720004EEA020E20FA04F301FA05F243EA02034C
:1007300021FA04F001F0004121FA04F220EA02005B
:1007400000EBD3705EEA430E08BF20EAD37070BDA1
:1007500094F0000F0FD101F00046400041EB010181
:1007600011F4801F08BF013CF7D041EA060195F063
:10077000000F18BF704703F00046520043EB03031D
:1007800013F4801F08BF013DF7D043EA060370470A
:1007900094EA0C0F0CEA135518BF95EA0C0F0CD015
:1007A00050EA410618BF52EA4306D1D181EA03015B
:1007B00001F000414FF0000070BD50EA410606BF55
:1007C0001046194652EA430619D094EA0C0F02D19A
:1007D00050EA013613D195EA0C0F05D152EA0336DF
:1007E0001CBF104619460AD181EA030101F00041FD
:1007F00041F0FE4141F470014FF0000070BD41F046
:10080000FE4141F4780170BD70B54FF0FF0C4CF41F
:10081000E06C1CEA11541DBF1CEA135594EA0C0F3E
:1008200095EA0C0F00F0A7F8A4EB050481EA030E8B
:1008300052EA03354FEA013100F088804FEA033372
:100840004FF0805545EA131343EA12634FEA022240
:1008500045EA111545EA10654FEA00260EF0004101
:100860009D4208BF964244F1FD0404F5407402D253
:100870005B084FEA3202B61A65EB03055B084FEAE4
:1008800032024FF480104FF4002CB6EB020E75EBE1
:10089000030E22BFB61A754640EA0C005B084FEA09
:1008A0003202B6EB020E75EB030E22BFB61A754686
:1008B00040EA5C005B084FEA3202B6EB020E75EBD1
:1008C000030E22BFB61A754640EA9C005B084FEA49
:1008D0003202B6EB020E75EB030E22BFB61A754656
:1008E00040EADC0055EA060E18D04FEA051545EA45
:1008F00016754FEA06164FEAC30343EA52734FEAEE
:10090000C2025FEA1C1CC0D111F4801F0BD141EA66
:1009100000014FF000004FF0004CB6E711F4801FCB
:1009200004BF01430020B4F1FD0C88BFBCF5E06FAB
:100930003FF6AFAEB5EB030C04BFB6EB020C5FEABB
:10094000500C50F1000041EB045170BD0EF0004E10
:100950004EEA113114EB5C04C2BFD4EB0C0541EA42
:10096000045170BD41F480114FF0000E013C90E63F
:1009700045EA060E8DE60CEA135594EA0C0F08BF03
:1009800095EA0C0F3FF43BAF94EA0C0F0AD150EA02
:1009900001347FF434AF95EA0C0F7FF425AF104695
:1009A00019462CE795EA0C0F06D152EA03353FF4BD
:1009B000FDAE1046194622E750EA410618BF52EA3A
:1009C00043067FF4C5AE50EA41047FF40DAF52EA0E
:1009D00043057FF4EBAE12E74FF0FF3C06E000BFAB
:1009E0004FF0010C02E000BF4FF0010C4DF804CDB8
:1009F0004FEA410C7FEA6C5C4FEA430C18BF7FEA78
:100A00006C5C1BD001B050EA410C0CBF52EA430CA5
:100A100091EA030F02BF90EA020F0020704710F125
:100A2000000F91EA030F58BF994208BF90422CBFB4
:100A3000D8176FEAE37040F0010070474FEA410CAD
:100A40007FEA6C5C02D150EA013C07D14FEA430CCB
:100A50007FEA6C5CD6D152EA033CD3D05DF8040B3C
:100A6000704700BF8446104662468C46194663466E
:100A700000E000BF01B5FFF7B7FF002848BF10F145
:100A8000000F01BD4DF808EDFFF7F4FF0CBF01208A
:100A900000205DF808FB00BF4DF808EDFFF7EAFF06
:100AA00034BF012000205DF808FB00BF4DF808EDC1
:100AB000FFF7E0FF94BF012000205DF808FB00BFB6
:100AC0004DF808EDFFF7CEFF94BF012000205DF840
:100AD00008FB00BF4DF808EDFFF7C4FF34BF01204D
:100AE00000205DF808FB00BF4FEA410C7FEA6C5C18
:100AF00002D150EA013C0AD14FEA430C7FEA6C5C18
:100B000002D152EA033C02D14FF0000070474FF08F
:100B1000010070474FEA410212F5001215D211D5BB
:100B20006FF47873B3EB625212D94FEAC12343F0EA
:100B3000004343EA505311F0004F23FA02F018BF6C
:100B4000404270474FF00000704750EA013005D135
:100B500011F0004008BF6FF0004070474FF00000F8
:100B6000704700BF53B94AB9002908BF00281CBF0D
:100B70004FF0FF314FF0FF3000F076B9ADF1080CC7
:100B80006DE904CE00F006F8DDF804E0DDE90223AB
:100B900004B070472DE9F047089E0D46044688468C
:100BA000002B4DD18A42944668D9B2FA82F252B1F2
:100BB00001FA02F3C2F1200120FA01F10CFA02FC61
:100BC00041EA030894404FEA1C41B8FBF1F71FFAD1
:100BD0008CFE01FB178807FB0EF0230C43EA084349
:100BE00098420AD91CEB030307F1FF3580F01E8100
:100BF000984240F21B81023F63441B1AB3FBF1F0A1
:100C000001FB103300FB0EFEA4B244EA0344A645E8
:100C10000AD91CEB040400F1FF3380F00981A645DA
:100C200040F20681644402380021A4EB0E0440EA3D
:100C300007401EB10023D440C6E90043BDE8F08759
:100C40008B4208D9002E00F0EE800021C6E9000595
:100C50000846BDE8F087B3FA83F100294AD1AB42D8
:100C600002D3824200F2FC80841A65EB0303012068
:100C70009846002EE2D0C6E90048DFE702B9FFDE61
:100C8000B2FA82F2002A40F09180A1EB0C0001211F
:100C90004FEA1C471FFA8CFEB0FBF7F307FB13006B
:100CA000250C45EA00450EFB03F0A84208D91CEBD1
:100CB000050503F1FF3802D2A84200F2CE80434678
:100CC0002D1AB5FBF7F007FB10550EFB00FEA4B282
:100CD00044EA0544A64508D91CEB040400F1FF359D
:100CE00002D2A64500F2B6802846A4EB0E0440EAE4
:100CF00003409EE7C1F120078B4022FA07FC4CEA33
:100D0000030C25FA07FA4FEA1C49BAFBF9F820FA56
:100D100007F309FB18AA8D401FFA8CFE1D4300FA49
:100D200001F308FB0EF02C0C44EA0A44A04202FA3C
:100D300001F20BD91CEB040408F1FF3A80F0888023
:100D4000A04240F28580A8F102086444241AB4FB52
:100D5000F9F009FB104400FB0EFEADB245EA044475
:100D6000A64508D91CEB040400F1FF356CD2A6455A
:100D70006AD90238644440EA0840A0FB0295A4EB1B
:100D80000E04AC42C846AE4656D353D0002E69D0AE
:100D9000B3EB080264EB0E0422FA01F304FA07F73E
:100DA0001F43CC40C6E90074002147E70CFA02FC5F
:100DB000C2F1200125FA01F34FEA1C4720FA01F1A4
:100DC00095400D43B3FBF7F107FB11331FFA8CFE7F
:100DD000280C40EA034001FB0EF3834204FA02F4BC
:100DE00008D91CEB000001F1FF382FD283422DD926
:100DF00002396044C01AB0FBF7F307FB1300ADB231
:100E000045EA004503FB0EF0A84208D91CEB050596
:100E100003F1FF3816D2A84214D9023B6544281AC0
:100E200043EA014138E73146304607E72F46E4E61A
:100E30001846F9E64B45A9D2B9EB020865EB0C0E52
:100E40000138A3E74346EAE7284694E74146D1E75D
:100E5000D0467BE76444023847E7023B65442FE70E
:100E6000084606E73146E9E6704700BF00B587B09F
:100E70008DF80F004FF47A73009301230DF11702E0
:100E80000DF10F01034802F08AF89DF8170007B032
:100E90005DF804FBEC09002010B5074C002202218C
:100EA000204601F077FB0620FFF7E0FF0122022138
:100EB000204601F06FFB10BD0008014070B50646EA
:100EC0000C46154600220221104801F063FB032066
:100ED000FFF7CCFFC4F30740FFF7C8FFC4F30720B8
:100EE000FFF7C4FFE0B2FFF7C1FF05E0FF20FFF707
:100EF000BDFF06F8010B25466B1E9CB2002DF5D1F7
:100F000001220221014801F045FB70BD00080140AB
:100F100008B500220221094801F03CFB0520FFF73B
:100F2000A5FFFF20FFF7A2FF10F0010FF9D101226A
:100F30000221024801F02EFB08BD00BF000801405D
:100F400038B50446FFF7A8FFFFF7E2FF0D4D00227A
:100F50000221284601F01EFB2020FFF787FFC4F383
:100F60000740FFF783FFC4F30720FFF77FFFE0B2DE
:100F7000FFF77CFF01220221284601F00BFBFFF75F
:100F8000C7FF38BD0008014070B506460C4615463F
:100F9000FFF782FF00220221134801F0FBFA022032
:100FA000FFF764FFC4F30740FFF760FFC4F30720B7
:100FB000FFF75CFFE0B2FFF759FFB5F5807F07D977
:100FC0004FF4807504E016F8010BFFF74FFF25463C
:100FD0006B1E9CB2002DF6D101220221024801F0C5
:100FE000D9FAFFF795FF70BD000801402DE9F843DD
:100FF00005460C461746CBB2110AD3B971B9214642
:10100000FFF7C2FF13E04FF4807221462846FFF736
:10101000BBFF04F5807405F5807531464B1EDEB2CA
:101020000029F0D1FAB221462846FFF7ADFFBDE80E
:10103000F883C3F100085FFA88F8D6B299B9B045D1
:101040000DD23344DEB242462146FFF79DFF3246C1
:1010500008EB040105EB0800FFF796FFE7E72146E0
:10106000FFF792FFE3E7A2EB08071FFA87F9C7F340
:101070000726FFB242462146FFF786FF4444454417
:101080000AE04FF4807221462846FFF77DFF04F501
:10109000807405F580754646731E5FFA83F8002E4E
:1010A000EFD1002FC3D05FFA89F221462846FFF71F
:1010B0006BFFBCE72DE9F04788B000250495059546
:1010C00006950795384B9A6942F010029A619A6921
:1010D00002F010020192019A9A6942F004029A61A8
:1010E0009A6902F004020292029A9A6942F0080296
:1010F0009A619B6903F008030393039BDFF8AC80BC
:1011000001220421404601F045FADFF8A4A00122A3
:101110000221504601F03EFADFF8989001220321A7
:10112000484601F037FA4FF400530493224B0593DD
:101130000226069604A9404601F01AF901240494F7
:101140000595069604A9404601F012F9042304937C
:10115000059406960327079704A9404601F008F96D
:10116000049605940694079704A9504601F000F9E7
:10117000049405940694079704A9484601F0F8F8EA
:10118000049605940696079704A9484601F0F0F8DE
:101190002A462946282000F0BFFE282000F0F4FE51
:1011A00008B0BDE8F08700BF001002400010014009
:1011B00000080140000C01400000111030B587B05C
:1011C00004460D46002305930193039001230493E5
:1011D00000F0B0FF05A901A801F078F848B92A4647
:1011E00000232146022000F0FDFF00F0BDFF07B004
:1011F00030BD024802F0D0FCF1E700BF609B000860
:1012000010B5044600F096FF246800F0ADFF2046BC
:1012100010BD000038B50B4802F0BEFC0A4D0B4C67
:101220002A4621460A4802F04DFC29462046FFF78F
:10123000C5FF2046FFF7E4FF02462146054802F0BD
:1012400041FC38BD7C9B0008674523010000010874
:10125000C09B0008E09B000808B50268074B9A4253
:1012600000D008BD064B074A002100F055FC0028BD
:10127000F7D1054B01221A70F3E700BF006400406C
:10128000480A0020500A0020440A002008B5012125
:10129000034801F085F9034802F07EFC08BD00BF59
:1012A000000C01405C9C000800B583B001904FF633
:1012B000FF73012201A9034802F085F8019803B0E9
:1012C0005DF804FB940A002072B6FEE708B50D48ED
:1012D0000D4B03604FF4E133436000238360C36030
:1012E00003610C2242618361C36102F03DF830B9B1
:1012F000044B1A68D36843F03003D36008BDFFF78E
:10130000E3FF00BF940A00200038014008B50A48F6
:101310000A4B03600A4B436000238360C3604FF4B1
:101320008042026143618361C361036201F050F94D
:1013300000B908BDFFF7C8FF400B00200054004073
:10134000A086010008B50D480D4B03604FF4827371
:10135000436000238360C360036143614FF4007204
:1013600082611822C2610362436283620A23C362FC
:1013700001F0BAFD00B908BDFFF7A6FFEC09002097
:101380000030014008B51448144B03600923436042
:101390004FF0804383600023C3604FF480220261DA
:1013A0004FF480124261037643768376C3760377E7
:1013B000437700F0DDFA40B9074800F07FFB30B911
:1013C0000221054800F053FC08BDFFF77DFF0448EB
:1013D00002F0E2FBF4E700BF6C0A0020006400406A
:1013E000709C000800B591B02822002106A802F0E8
:1013F00017FB0023019302930393049305930122A7
:1014000006924FF4803307930A9202220D920E93B4
:101410004FF4E0130F9306A801F0CEF980B90F2323
:10142000019302210291002303934FF480620492FE
:10143000059301A801F000FC20B911B05DF804FB90
:10144000FFF742FFFFF740FF10B500F06DFAFFF71E
:10145000C9FFFFF72FFEFFF739FFFFF757FFFFF731
:1014600071FF02F013FAFFF78DFFFFF7D3FE0EE0D6
:10147000194B195D194802F025FB0134072CF7DDE3
:10148000174802F089FB174B1B78012B0AD0164B2B
:101490001B78002BF7D00024134B1C70134802F06C
:1014A0007BFBEBE700240F4B1C70114B19781148A4
:1014B00002F008FB0E4B1B78A34206DC084802F042
:1014C0006BFB0B4B00221A70E1E70B4B185D02F02F
:1014D0000DFB0134EEE700BF480A0020509C0008D5
:1014E000589C00083D0B0020440A0020849C000802
:1014F0003C0B0020989C0008D80A002082B00E4BBC
:101500009A6942F001029A619A6902F0010200921E
:10151000009ADA6942F08052DA61DB6903F08053A5
:101520000193019B054A536823F0E06343F0007385
:10153000536002B0704700BF00100240000001403D
:1015400010B586B0002302930393049305930268B9
:101550001A4B9A4201D006B010BD03F5D633DA69B2
:1015600042F00072DA61DA6902F000720092009AC9
:101570009A6942F004029A619B6903F004030193A3
:10158000019B4FF4006302930D4C02A9204600F02A
:10159000EFFE4FF48053029302230393032305933A
:1015A00002A9204600F0E4FE00221146142000F0BB
:1015B000B3FC142000F0E8FCCDE700BF006400405D
:1015C0000008014010B586B00023029303930493F2
:1015D00005930268114B9A4201D006B010BD104C21
:1015E000A36943F00803A361A36903F00803009310
:1015F000009BC0230293122303930323059302A9A4
:10160000084800F0B5FEE36943F40013E361E369C1
:1016100003F400130193019BDFE700BF0054004077
:1016200000100240000C014010B586B00023029368
:101630000393049305930268164B9A4201D006B0B7
:1016400010BD03F560439A6942F480529A619A6929
:1016500002F480520092009A9A6942F004029A6160
:101660009B6903F004030193019BA02302930223CF
:10167000039303230593084C02A9204600F078FE4B
:101680004023029300230393049302A9204600F011
:101690006FFED4E7003001400008014030B587B04C
:1016A0000023029303930493059302681B4B9A4211
:1016B00001D007B030BD03F558439A6942F4804227
:1016C0009A619A6902F480420092009A9A6942F003
:1016D00004029A619B6903F004030193019B4FF498
:1016E0000073029302230393032305930C4D02A975
:1016F000284600F03DFE4FF48063029300240394DB
:10170000049402A9284600F033FE224621462520F3
:1017100000F002FC252000F037FCCAE70038014049
:1017200000080140FEE7FEE7FEE7FEE7FEE7704740
:101730007047704708B500F009F908BD08B50248C0
:1017400000F0B3FA08BD00BF6C0A002010B582B0EB
:10175000184B1B681B6813F0200F14D1154B1B6826
:101760001A6812F0100F09D0002201921A68019233
:101770005B680193019B104B01221A700D4801F028
:1017800083FF02B010BD0D4C21784B1C2370002349
:1017900001220B480144074801F081FE2378632BA6
:1017A00001D900222270034B1B686FF020021A60DF
:1017B000D4E700BF940A00203D0B00203C0B002022
:1017C000D80A002008B54FF4005000F0F3FE08BD21
:1017D0000120704708B502F0F9F8162303604FF0B6
:1017E000FF3008BD08B54FF0FF31FFF7F3FFFEE70C
:1017F00070B50C461646002506E0AFF30080214682
:1018000001F8010B01350C46B542F6DB304670BDE0
:1018100070B50C461646002504E014F8010BFFF7DE
:1018200043FD0135B542F8DB304670BD4FF0FF3067
:1018300070474FF400534B60002070470120704701
:101840000020704710B503460C4A0D490D4800684A
:1018500040B10C4800680344521A934206D8094A22
:10186000136010BD0748084C0460F2E702F0AEF8C0
:101870000C2303604FF0FF30F3E700BF005000205F
:1018800000100000940B0020200C00207047000086
:101890000C480D490D4A002302E0D458C4500433CB
:1018A000C4188C42F9D30A4A0A4C002301E01360A1
:1018B0000432A242FBD3FFF7E9FF02F08DF8FFF7F5
:1018C000C3FD704700000020D0090020ACA0000834
:1018D000D0090020200C0020FEE7000010B50446CF
:1018E0000E4B18784FF47A73B3FBF0F30C4A106880
:1018F000B0FBF3F000F056FB68B90F2C01D90120C2
:101900000AE0002221464FF0FF3000F005FB054BB6
:101910001C60002000E0012010BD00BF040000207A
:10192000000000200800002008B5074A136843F0B3
:1019300010031360032000F0DDFA0F20FFF7CEFF45
:10194000FFF7DCFD002008BD00200240034A1168BB
:10195000034B1B780B441360704700BF980B0020AB
:1019600004000020014B1868704700BF980B00204E
:10197000002800F0A18038B5044690F82030D3B19B
:101980002268136843F001031360FFF7EBFF05467D
:1019900023685A6812F0010F10D1FFF7E3FF401BD4
:1019A0000A28F5D9636A43F400336362052384F897
:1019B0002030012038BDFFF7C3FDE1E71A6822F0AF
:1019C00002021A60FFF7CEFF054623685A6812F03C
:1019D000020F0DD0FFF7C6FF401B0A28F5D9636A36
:1019E00043F400336362052384F820300120E1E7EB
:1019F000227E012A3DD01A6822F080021A60637E9E
:101A0000012B3BD02268136823F040031360A37EB0
:101A1000012B39D02268136823F020031360E37E82
:101A2000012B37D02268136843F010031360237F23
:101A3000012B35D02268136823F008031360637FFD
:101A4000012B33D02268136823F004031360A368CA
:101A5000E268134322691343626913436268013ADF
:101A600021681343CB6100206062012384F8203099
:101A7000A0E71A6842F080021A60C0E72268136883
:101A800043F040031360C2E72268136843F0200369
:101A90001360C4E72268136823F010031360C6E7DD
:101AA0002268136843F008031360C8E722681368CC
:101AB00043F004031360CAE70120704770B5044681
:101AC00090F82050EDB2012D06D0436A43F4002374
:101AD00043620125284670BD022380F82030026849
:101AE000136823F001031360FFF73CFF06462368E9
:101AF0005B6813F0010F0CD0FFF734FF831B0A2B38
:101B0000F5D9636A43F400336362052384F8203017
:101B1000E0E700256562DDE790F820C00CF1FF3CAE
:101B20005FFA8CFCBCF1010F00F29B8010B451B93C
:101B30000468E46814F0030F10D1436A43F40013FF
:101B4000436201207BE00468246914F0030F05D18F
:101B5000436A43F400134362012070E001F11B0467
:101B60002401D0F800C05CF8044004F00404946040
:101B7000002C66D101F11B042401D0F800C05CF8F0
:101B80000440640D1460046801F11B0C4FEA0C1C46
:101B900054F80C4004F00204D4600468644464689F
:101BA00004F00F041461046864446468C4F30724F7
:101BB0009461046864446468240C5461026802EB14
:101BC0000112D2F8B8211A70026802EB0112D2F8A1
:101BD000B821C2F307225A70026802EB0112D2F850
:101BE000B821C2F307429A70026802EB0112D2F8E0
:101BF000B821120EDA70026802EB0112D2F8BC2191
:101C00001A71026802EB0112D2F8BC21C2F307225A
:101C10005A71026802EB0112D2F8BC21C2F30742EA
:101C20009A71026802EB0112D2F8BC21120EDA712D
:101C300089B90268D36843F02003D360002010BC48
:101C4000704701F11B042401D0F800C05CF8044087
:101C5000E408546097E70268136943F020031361B6
:101C6000ECE7436A43F4802343620120704790F815
:101C70002030013BDBB2012B05D9436A43F48023BA
:101C80004362012070470268536919435161002083
:101C9000704770477047704770477047704770478C
:101CA000704770477047704770472DE9F84F0546F9
:101CB00003685C69D3F804809F68D3F80CB0D3F84C
:101CC00010A0D3F8189014F001063BD017F00106CD
:101CD00016D001229A6017F0020F08D117F0040FF6
:101CE0000CD117F0080606D04FF4805608E0FFF735
:101CF000D0FF002604E0FFF7CFFF01E04FF40066BD
:101D000017F4807F0DD02B684FF480729A6017F41F
:101D1000007F40F0868017F4806F00F0868046F4E4
:101D2000005617F4803F0DD02B684FF480329A6034
:101D300017F4003F40F0838017F4802F00F0838079
:101D400046F4004614F0080F07D01BF0100F04D023
:101D500046F400762B681022DA6014F0040F02D0EB
:101D60001BF0080F79D114F0020F04D02B68DB6848
:101D700013F0030F78D114F0400F07D01AF0100FB2
:101D800004D046F480662B6810221A6114F0200FEC
:101D900002D01AF0080F6BD114F0100F04D02B688A
:101DA0001B6913F0030F6AD114F4003F02D018F03E
:101DB000100F68D114F4803F02D018F0080F69D1D9
:101DC00014F4004F7AD018F0040F74D014F4807F0C
:101DD00004D019F0010F01D046F0010614F4007F81
:101DE00004D019F0020F01D046F0020614F4806FFF
:101DF00004D019F0040F01D046F0040614F4006F6B
:101E000059D019F0700956D0B9F1400F65D058D8A3
:101E1000B9F1200F5ED0B9F1300F42D146F0200663
:101E200044E02846FFF736FF7BE717F4006F02D047
:101E300046F4804675E72846FFF72FFF71E72846EE
:101E4000FFF729FF7EE717F4002F02D046F4803613
:101E500078E72846FFF722FF74E72B680822DA604C
:101E60002846FFF71CFF7EE72846FFF7F5F982E7D3
:101E70002B6808221A612846FFF713FF8CE72846D3
:101E8000FFF70EFF90E72B6810225A602846FFF7F5
:101E900009FF8FE72B6808225A602846FFF703FFE7
:101EA0008EE7B9F1100F01D146F008062A68936950
:101EB00023F0700393612B6804225A609EB9BDE839
:101EC000F88FB9F1500F0BD0B9F1600FEED146F495
:101ED0008076EBE746F01006E8E746F04006E5E7D7
:101EE00046F08006E2E76B6A1E436E622846FFF703
:101EF000DBFEE4E7074AD36823F4E0631B041B0C12
:101F0000000200F4E060034343F0BF6343F4003396
:101F1000D360704700ED00E000B5194BDB68C3F3F8
:101F20000223C3F1070CBCF1040F28BF4FF0040CCF
:101F300003F1040EBEF1060F18D9033B4FF0FF3E2C
:101F40000EFA0CFC21EA0C0199400EFA03F322EA86
:101F50000303194300280BDB0901C9B200F16040FB
:101F600000F5614080F800135DF804FB0023E5E70D
:101F700000F00F000901C9B2024B1954F4E700BF89
:101F800000ED00E014ED00E0002807DB00F01F0288
:101F9000400901239340024A42F82030704700BFB5
:101FA00000E100E00138B0F1807F0BD24FF0E02378
:101FB0005861054AF02182F8231000209861072219
:101FC0001A6170470120704700ED00E090F8213061
:101FD000022B06D004238363002380F820300120E5
:101FE00070470268136823F00E03136002681368D9
:101FF00023F001031360036CC16B012202FA03F3A7
:102000004B6080F82120002380F82030184670476C
:1020100008B590F82130022B03D0042383630120FC
:1020200008BD0268136823F00E031360026813688A
:1020300023F0010313600368194A934214D0143249
:1020400093421FD0143293421ED0143293421ED0BA
:10205000143293421ED01432934202D04FF0807259
:1020600003E04FF4801200E001220E4B5A6001237E
:1020700080F82130002380F82030436B6BB1984703
:102080000020CDE71022F0E74FF48072EDE74FF427
:102090008052EAE74FF48032E7E70020C0E700BF54
:1020A0000800024000000240044B0022DA61044AAA
:1020B000136943F00103136101807047A00B0020F6
:1020C00000200240194BDB6813F0100305D0184ABA
:1020D000D36943F00203D3611023144AD26812F08B
:1020E000040F06D01249CA6942F00102CA6143F0E6
:1020F00004030E4AD26912F0010F09D00C49CA69D3
:1021000042F00402CA610949CA6922F00102CA61A7
:1021100040F20112934202D0044AD3607047034A4E
:10212000D36923F00103D361704700BF0020024050
:10213000A00B00200A4B1B6913F0800F0BD0084B3B
:10214000084A5A6002F188325A601B6913F0800F06
:1021500003D100207047002070470120704700BF66
:102160000020024023016745034A136943F08003BE
:1021700013610020704700BF0020024038B50446BC
:10218000FFF7F0FB0546164BDB6813F0010F0AD092
:10219000B4F1FF3FF7D024B1FFF7E4FB401BA042AE
:1021A000F1D903201BE00E4BDB6813F0200F02D0A7
:1021B0000B4B2022DA600A4BDB6813F0100F0BD1B7
:1021C000074BDB6913F0010F06D1054BDB6813F0F9
:1021D000040F01D1002002E0FFF774FF012038BD99
:1021E000002002402DE9F8431E46244B1B7E012BA4
:1021F00041D004460F469046204B01221A764CF2FD
:102200005030FFF7BBFF034678BB012C08D0022CEF
:1022100003D04FF004091C4607E04FF00209FAE72B
:102220004FF00109F7E70134E4B24C451DD221011A
:10223000C1F12002A1F1200328FA01F106FA02F20D
:10224000114326FA03F3194389B207EB4400FFF761
:102250002BFF4CF25030FFF791FF094B1D6925F021
:1022600001051D6103460028DDD0044A00211176D6
:102270001846BDE8F8830223FAE700BFA00B002050
:1022800000200240064B0022DA61064B1A6942F038
:1022900004021A611A6942F040021A61704700BFD5
:1022A000A00B002000200240064B0022DA61064B02
:1022B0001A6942F002021A6158611A6942F040023A
:1022C0001A617047A00B002000200240264B1B7EA5
:1022D000012B46D070B505460E46234B01221A76D7
:1022E0000368022B20D04CF25030FFF747FF90BB21
:1022F0004FF0FF333360AC680121EA68AB6803EB51
:102300008223A34228D92046FFF7CEFF4CF250305B
:10231000FFF734FF154A136923F0020313610146E6
:10232000B8B904F58064E8E74CF25030FFF726FFB7
:1023300008B1012110E00120FFF7A4FF4CF250305A
:10234000FFF71CFF0146094A136923F004031361D8
:1023500002E0346000E00121034B00221A760846B7
:1023600070BD022108467047A00B002000200240EB
:1023700070B582B00024A446A6E0804DAA4210D0D9
:1023800007D97F4DAA420CD005F58035AA4208D066
:1023900013E0A5F58015AA4203D005F57025AA42E1
:1023A00007D18A68002A58D0012A51D043610824F5
:1023B00003E0A5F58015AA42F3D0BEF1FF0F4ED879
:1023C0000646BEF1FF0F4CD84FEA8C0233680F254A
:1023D000954023EA050304FA02F2134333604B6885
:1023E00013F0805F6ED0674B9A6942F001029A61E8
:1023F0009B6903F001030193019B4FEA9C02951C2A
:10240000614B53F825600CF003039D000F23AB4094
:1024100026EA03065D4B984229D003F58063984273
:1024200000F08E8003F58063984200F08B8003F506
:102430008063984219D004231AE0CC68BDE7CC68C9
:102440000434BAE7CC680834B7E7CC680C34B4E796
:1024500003610824B1E70024AFE70424ADE7061DBB
:10246000AFE7ACF108029200B0E7032300E00023DD
:10247000AB4033430232444D45F822304B6813F4ED
:10248000803F61D0424A136843EA0E0313604B68F1
:1024900013F4003F5ED03E4A536843EA0E03536094
:1024A0004B6813F4801F5BD0394A936843EA0E03EC
:1024B00093604B6813F4001F58D0354AD36843EA41
:1024C0000E03D3600CF1010C0A6832FA0CF353D0FE
:1024D000012303FA0CF302EA030E33EA0202F1D1FC
:1024E0004A68122A3FF649AF122A3FF666AF01A5A5
:1024F00055F822F0A32300083B24000845240008D7
:1025000057240008BB230008BB230008BB23000896
:10251000BB230008BB230008BB230008BB23000823
:10252000BB230008BB230008BB230008BB23000813
:10253000BB230008BB2300083F2400084B240008ED
:10254000012395E7022393E7114A136823EA0E0358
:1025500013609CE70E4A536823EA0E0353609FE71B
:102560000B4A936823EA0E039360A2E7084AD368F4
:1025700023EA0E03D360A5E702B070BD000022106D
:10258000000031100010024000000140000801402E
:10259000000401400AB101617047090401617047FC
:1025A000C36801EA030221EA030141EA0241016131
:1025B0007047000008B5054B5B69034200D108BDB8
:1025C000024B5861FEF762FEF9E700BF00040140CC
:1025D000002800F0CC8070B5044690F83D30002B08
:1025E00077D0242384F83D302268136823F0010358
:1025F00013602268136843F4004313602268136871
:1026000023F40043136000F0D3FB62685A4B9A42F4
:1026100064D85A4B98428CBF00230123002B40F012
:10262000A8805749A1FB00318B0C25686A6822F00D
:102630003F0242EA91426A6021680A6A22F03F0240
:1026400066684D4DAE424FD8013313430B6221688B
:10265000CA6922F44F4222F0FF026668464B9E424E
:102660004CD8431E7600B3FBF6F3013340F6FC7002
:10267000034278D0C3F30B031343CB6121680B688B
:1026800023F0C003E269206A024313430B60216810
:102690008B6823F4034323F0FF032269E0680243BD
:1026A00013438B602168CB6823F0FF036269A06944
:1026B00002431343CB602268136843F001031360A5
:1026C00000202064202384F83D30206384F83E00FD
:1026D00070BD80F83C30FEF775FF82E7294B9842C9
:1026E0008CBF0023012399E74FF4967505FB03F394
:1026F000254DA5FB03539B090133A6E7A368BBB98E
:10270000451E06EB460CB5FBFCF50135C5F30B0584
:10271000B5FA85F56D0945BBC3B9013806EB46032B
:10272000B0FBF3F30133C3F30B0343F40043A3E71C
:10273000451E06EB860C0CEB8C0CB5FBFCF501354D
:10274000C5F30B05B5FA85F56D09E4E7013806EB2D
:10275000860303EB8303B0FBF3F30133C3F30B03F3
:1027600043F4404388E7042386E7012384E70120FC
:1027700070470120ACE700BFA08601007F841E00E7
:1027800083DE1B43FF083D00D34D621082B0084B2F
:102790001B68084AA2FB03235B0A00FB03F30193B7
:1027A00000BF019B5A1E0192002BF9D102B0704765
:1027B00000000020D34D6210002800F0F18170B5B8
:1027C00082B00446036813F0010F2CD0994B5B686C
:1027D00003F00C03042B1DD0964B5B6803F00C0335
:1027E000082B12D06368B3F5803F41D0002B55D140
:1027F00003F1804303F504331A6822F480321A602F
:102800001A6822F480221A6037E08A4B5B6813F45E
:10281000803FE7D0874B1B6813F4003F03D0636809
:10282000002B00F0BF81236813F0020F75D0814B9D
:102830005B6813F00C0F5FD07E4B5B6803F00C03FA
:10284000082B54D02369002B00F08A807A4B012298
:102850001A60FFF787F80546764B1B6813F0020FE6
:1028600075D1FFF77FF8401B0228F5D903209EE1C0
:10287000704A136843F480331360636843B3FFF70F
:1028800071F805466B4B1B6813F4003FCBD1FFF783
:1028900069F8401B6428F5D9032088E1B3F5A02F1F
:1028A00009D0644B1A6822F480321A601A6822F444
:1028B00080221A60E1E703F18043A3F53C331A68F4
:1028C00042F480221A601A6842F480321A60D4E717
:1028D000FFF748F80546574B1B6813F4003FA2D09A
:1028E000FFF740F8401B6428F5D903205FE1514B06
:1028F0005B6813F4803FA5D14E4B1B6813F0020FA9
:1029000003D02369012B40F04F814A4A136823F01A
:10291000F803616943EAC1031360236813F0080FE9
:1029200033D0A369002B5CD0434B0122C3F8802431
:10293000FFF718F805463F4B5B6A13F0020F21D1F1
:10294000FFF710F8401B0228F5D903202FE1394A80
:10295000136823F0F803616943EAC1031360DCE7FD
:10296000354B00221A60FEF7FDFF0546314B1B6810
:1029700013F0020FD1D0FEF7F5FF401B0228F5D966
:10298000032014E10120FFF701FF236813F0040F77
:1029900000F09680274BDB6913F0805F34D1254B24
:1029A000DA6942F08052DA61DB6903F08053019307
:1029B000019B0125214B1B6813F4807F26D0E3681F
:1029C000012B3DD0002B53D103F1804303F5043399
:1029D0001A6A22F001021A621A6A22F004021A62CA
:1029E00033E0154B0022C3F88024FEF7BBFF0546F9
:1029F000104B5B6A13F0020FC7D0FEF7B3FF401B0A
:102A00000228F5D90320D2E00025D3E70B4A13684A
:102A100043F480731360FEF7A5FF0646074B1B685F
:102A200013F4807FCBD1FEF79DFF801B6428F5D97E
:102A30000320BCE000100240000042420070004051
:102A40005F4A136A43F001031362E36833B3FEF78E
:102A500089FF06465A4B1B6A13F0020F2FD1FEF76F
:102A600081FF801B41F288339842F3D903209EE016
:102A7000052B09D0524B1A6A22F001021A621A6A17
:102A800022F004021A62E0E74D4B1A6A42F0040297
:102A90001A621A6A42F001021A62D6E7FEF762FF72
:102AA0000646474B1B6A13F0020F08D0FEF75AFF89
:102AB000801B41F288339842F3D9032077E0E5B9CF
:102AC000E369002B72D03E4A526802F00C02082AD9
:102AD00056D0022B17D03B4B00221A66FEF742FF5E
:102AE0000446374B1B6813F0007F47D0FEF73AFFD0
:102AF000001B0228F5D9032059E0314AD36923F09D
:102B00008053D361DCE72F4B00221A66FEF72AFFC1
:102B100005462B4B1B6813F0007F06D0FEF722FF03
:102B2000401B0228F5D9032041E0236AB3F5803F1A
:102B30001AD023494B6823F47413226A606A024353
:102B400013434B601F4B01221A66FEF70BFF04462E
:102B50001B4B1B6813F0007F0ED1FEF703FF001B19
:102B60000228F5D9032022E0154A536823F40033E4
:102B7000A1680B435360DCE7002018E0002016E05A
:102B8000012B16D00E4B5B6803F48031226A914210
:102B900011D103F47013626A93420ED1002006E053
:102BA00001207047012002E0012000E0002002B077
:102BB00070BD0120FBE70120F9E70120F7E700BF26
:102BC000001002400000424286B0174B0FCB0DF1BF
:102BD000180C0CE90F0040F20123ADF80430134B40
:102BE0005B6803F00C02082A02D0114806B0704757
:102BF000C3F3834218326A4412F8100C13F4803F76
:102C00000DD00A4B5B68C3F3404318336B4413F891
:102C1000143C074A02FB00F0B0FBF3F0E6E7054B7B
:102C200003FB00F0E2E700BFCC9C0008001002406C
:102C300000127A0000093D00002800F0A08070B565
:102C40000D460446524B1B6803F007038B420BD220
:102C50004F4A136823F007030B431360136803F014
:102C600007038B4240F08D80236813F0020F17D0CA
:102C700013F0040F04D0474A536843F4E0635360F1
:102C8000236813F0080F04D0424A536843F460539A
:102C90005360404A536823F0F003A1680B4353602C
:102CA000236813F0010F31D06368012B20D0022B71
:102CB00025D0384A126812F0020F64D035494A68AC
:102CC00022F0030213434B60FEF74CFE0646314BE5
:102CD0005B6803F00C036268B3EB820F16D0FEF75B
:102CE00041FE801B41F288339842F0D9032045E031
:102CF000284A126812F4003FE0D101203EE0254A44
:102D0000126812F0007FD9D1012037E0204B1B68F8
:102D100003F00703AB420AD91D4A136823F00703E7
:102D20002B431360136803F00703AB422DD12368D4
:102D300013F0040F06D0174A536823F4E063E168E8
:102D40000B435360236813F0080F07D0114A5368F0
:102D500023F46053216943EAC1035360FFF734FF52
:102D60000C4B5B68C3F303130B4AD35CD8400B4B8B
:102D700018600B4B1868FEF7B1FD002070BD0120F4
:102D800070470120FAE70120F8E70120F6E700BFCD
:102D90000020024000100240B49C00080000002007
:102DA00008000020014B1868704700BF0000002099
:102DB00008B5FFF7F7FF044B5B68C3F30223034A30
:102DC000D35CD84008BD00BF00100240C49C00087E
:102DD00008B5FFF7E7FF044B5B68C3F3C223034A60
:102DE000D35CD84008BD00BF00100240C49C00085E
:102DF0002DE9F04782B00546884617461E46FEF785
:102E0000B1FD0A9B1B1A03EB0609FEF7ABFD8246D8
:102E10002B4B1B68C3F3CB3309FB03F301932B68E4
:102E20009C6838EA04030CBF4FF0010C4FF0000C13
:102E3000BC4540D0B6F1FF3FF1D0FEF793FDA0EBCB
:102E40000A0048450AD2B9F1000F07D0019A02B131
:102E50004A46019B013B01939146E0E72A6853688B
:102E600023F0E00353606B68B3F5827F0BD0AB6A4D
:102E7000B3F5005F14D0012385F85130002385F8A5
:102E80005030032018E0AB68B3F5004F02D0B3F523
:102E9000806FECD12A68136823F040031360E6E7E3
:102EA0002A68136823F4005313602A68136843F4F4
:102EB00000531360DFE7002002B0BDE8F08700BFD9
:102EC0000000002010B582B004460B46009200229C
:102ED0008021FFF78DFF08B902B010BD636D43F08C
:102EE000200363650320F7E7002856D010B5044699
:102EF000436A33B94368B3F5827F05D00023C361C9
:102F000002E00023036143610023A36294F851307F
:102F1000002B3CD0022384F851302268136823F040
:102F200040031360636803F48273A26802F40442EE
:102F30001343E26802F400621343226902F00202C2
:102F40001343626902F001021343A26902F40072A2
:102F50001343E26902F038021343226A02F080024E
:102F60001343A26A02F40052216813430B60638B7F
:102F7000226803F0040353602268D36923F40063DA
:102F8000D36100206065012384F8513010BD84F8BE
:102F900050302046FEF748FBBCE7012070472DE982
:102FA000F04383B01F460A9D90F85030012B00F08B
:102FB0001081044688469146012380F85030FEF780
:102FC000D1FC064694F85130DBB26268012B0AD07E
:102FD000B2F5827F40F0E380A268002A40F0E980E9
:102FE000042B40F0E880B8F1000F00F0E680B9F162
:102FF000000F00F0E480002F00F0E38094F85130DF
:10300000DBB2042B02D0052384F851300023636522
:10301000C4F83890E787A787C4F83080E786A7868A
:103020002364636423681A6812F0400F03D11A689E
:1030300042F040021A60E368B3F5006F11D0636894
:103040000BB1012F0BD1226B236812781A73236BFB
:1030500001332363E38E9BB2013B9BB2E3860127DE
:103060006BE063680BB1012F0BD1226B23681288D0
:10307000DA60236B02332363E38E9BB2013B9BB286
:10308000E38601271CE023689A6812F0010F0ED036
:10309000E28F92B25AB1DA68A36B1A80A36B023343
:1030A000A363E38F9BB2013B9BB2E3870127FEF74B
:1030B00059FC801BA84203D3B5F1FF3F40F0838049
:1030C000E38E9BB21BB9E38F9BB2002B53D02368D6
:1030D0009A6812F0020FD6D0E28E92B2002AD2D0B5
:1030E000002FD0D0226B1288DA60236B0233236367
:1030F000E38E9BB2013B9BB2E3860027C3E72368C4
:103100009A6812F0010F0ED0E28F92B25AB1DA68CB
:10311000A36B1A70A36B0133A363E38F9BB2013BD4
:103120009BB2E3870127FEF71DFC831BAB4202D352
:10313000B5F1FF3F49D1002D49D0E38E9BB213B9C1
:10314000E38F9BB2BBB123689A6812F0020FD6D00E
:10315000E28E92B2002AD2D0002FD0D0226B127809
:103160001A73236B01332363E38E9BB2013B9BB243
:10317000E3860027C3E7324629462046FFF7A2FE32
:1031800048B9A36863B901932368DA6801929B6820
:103190000193019B04E020236365012000E00220ED
:1031A000012384F85130002384F8503003B0BDE887
:1031B000F0830220F4E70220F2E70120F0E701208B
:1031C000EEE70120ECE70320EAE70320E8E703202D
:1031D000E6E70220EAE70268D36823F49073D3603D
:1031E0000268536923F001035361036B012B05D07F
:1031F000202380F83E300023036370470268D368C1
:1032000023F01003D360F3E790F83D30DBB2212BBD
:1032100001D0022070478368B3F5805F17D0036A3E
:103220005A1C02621A7803685A60C38C9BB2013B35
:103230009BB2C3844BB90268D36823F08003D36088
:103240000268D36843F04003D360002070470369ED
:10325000002BE4D1036A1B880268C3F308035360A0
:10326000036A02330362E0E710B50446026813699B
:1032700023F44053C1680B4313618368026913430D
:1032800042691A430168CB6823F4B05323F00C035E
:103290001343CB600268536923F4407381690B4385
:1032A00053610268134B9A4220D0FFF781FD02461A
:1032B00002EB820202EB820263689B00B2FBF3F234
:1032C0000D48A0FB02314909642303FB11231B01B4
:1032D0003233A0FB03235B0903F0F00202EB01127F
:1032E00003F00F03216813448B6010BDFFF770FDDE
:1032F0000246DDE7003801401F85EB512DE9F84318
:1033000005460F4616469946DDF820802C6824684D
:1033100037EA04030CBF4FF0010C4FF0000CB4452A
:103320001FD1B8F1FF3FF1D0B8F1000F05D0FEF783
:1033300019FBA0EB09004045E8D92A68D36823F4BB
:10334000D073D3602A68536923F0010353612023AB
:1033500085F83D3085F83E30002385F83C30032069
:1033600000E00020BDE8F88358B310B5044690F89B
:103370003D300BB3242384F83D302268D36823F416
:103380000053D3602046FFF76FFF2268136923F4D0
:10339000904313612268536923F02A035361226822
:1033A000D36843F40053D36000202064202384F8C2
:1033B0003D3084F83E3010BD80F83C30FEF76EF9A9
:1033C000D8E7012070472DE9F04182B01E4690F801
:1033D0003D30DBB2202B54D104460D4690460029E7
:1033E00053D0002A53D090F83C30012B51D0012308
:1033F00080F83C3000230364212380F83D30FEF741
:10340000B1FA0746A4F82480A4F82680A368B3F58F
:10341000805F05D04FF00008002384F83C3012E0B4
:10342000236913B14FF00008F6E7A8460025F3E73B
:1034300038F8023B2268C3F308035360E28C92B26F
:10344000013A92B2E284E38C9BB273B100963B46A0
:10345000002280212046FFF751FFE0B9002DE7D080
:1034600015F8012B23685A60E8E700963B460022D6
:1034700040212046FFF742FF78B9202384F83D30F1
:1034800000E0022002B0BDE8F0810120FAE701204F
:10349000F8E70220F6E70320F4E70320F2E72DE93E
:1034A000F04182B01E4690F83E30DBB2202B5CD15A
:1034B00004460D46904600295BD0002A5BD090F868
:1034C0003C30012B59D0012380F83C3000230364A9
:1034D000222280F83E200363FEF744FA0746A4F850
:1034E0002C80A4F82E80A368B3F5805F05D04FF040
:1034F0000008002384F83C3017E0236913B14FF033
:103500000008F6E7A8460025F3E723685B68C3F3E5
:10351000080328F8023B03E023685B682B70013541
:10352000E28D92B2013A92B2E285E38D9BB2BBB1D9
:1035300000963B46002220212046FFF7DFFEF0B92F
:10354000002DE2D0A368B3F5805FE5D013B92369FD
:10355000002BE1D023685B6803F07F032B70DEE76C
:10356000202384F83E30002000E0022002B0BDE8B5
:10357000F0810120FAE70120F8E70220F6E70320B6
:10358000F4E7704708B50168CA6822F04002CA60D3
:10359000202280F83D20FFF7F4FF002008BD70478F
:1035A000704708B5406A0023C385C384FFF7F8FF5E
:1035B00008BD704790F83E30DBB2222B60D18368A3
:1035C000B3F5805F46D0826AB3F5805F04D0002BEC
:1035D0004DD10369002B4AD103685B681370836A7D
:1035E00001338362C38D9BB2013B9BB2C385002B29
:1035F00048D100B583B00268D36823F02003D360BC
:103600000268D36823F48073D3600268536923F09F
:1036100001035361202380F83E30036B012B2CD132
:10362000002303630268D36823F01003D3600368A8
:103630001A6812F0100F06D0002201921A68019247
:103640005B680193019B818DFFF7B3FF002003B0FE
:103650005DF804FB0269002AB5D1826A03685B68E1
:10366000C3F308031380836A02338362BAE70368F3
:103670005B6803F07F031370B1E7FFF790FFE5E7A6
:10368000022070470020704730B583B004460268BE
:103690001368D068516913F00F0505D113F0200F9E
:1036A00002D010F0200F19D12DB111F0010119D164
:1036B00010F4907F16D1216B012975D013F0800F83
:1036C00003D010F0800F40F0D78013F0400F03D0EC
:1036D00010F0400F40F0D48003B030BD2046FFF71B
:1036E00069FFF9E713F0010F06D010F4807F03D0D3
:1036F000226C42F00102226413F0040F04D019B1CD
:10370000226C42F00202226413F0020F04D019B1BD
:10371000226C42F00402226413F0080F07D010F06C
:10372000200F00D119B1226C42F008022264226CF1
:10373000002AD1D013F0200F02D010F0200F21D199
:1037400023685B6903F04003226C12F0080F00D17C
:1037500023B32046FFF73FFD23685A6912F0400F5C
:1037600018D05A6922F040025A61A36B73B1464ADD
:103770005A63A06BFEF74CFC0028ADD0A06B436BE6
:103780009847A9E72046FFF715FFD9E72046FFF73E
:1037900007FFA1E72046FFF703FF9DE72046FFF75D
:1037A000FFFE0023236497E713F0100F86D010F07C
:1037B000100F83D000230193136801935368019382
:1037C000019B536913F0400F32D0A16B0B685B680B
:1037D0009BB2002B80D0A08D98427FF67DAFE38511
:1037E0008B69202B08D1A18DE38D9BB2C91A89B2B8
:1037F0002046FFF7DEFE6FE7D36823F48073D360C3
:103800002268536923F0010353612268536923F04E
:1038100040035361202384F83E3000232363226851
:10382000D36823F01003D360A06BFEF7CFFBDAE779
:10383000A18DE38D9BB2C91A89B2E38D9BB2002B97
:103840003FF44AAF00293FF447AFD36823F49073A5
:10385000D3602268536923F001035361202384F865
:103860003E30002323632268D36823F01003D36023
:103870002046FFF79EFE2FE72046FFF7C5FC2BE70B
:103880002046FFF77FFE27E7A335000808B5034968
:10389000034800F095F8034B187008BDC00B0020DA
:1038A00010000020C40B0020094B01221A7038B10F
:1038B000904209D1064B04221A70054B18787047C4
:1038C000034B00221A70F8E7014B04221A70F4E748
:1038D0000C000020044B01221A7008B900221A7053
:1038E000014B1878704700BF0C0000200346A8B9B0
:1038F000032915D8DFE801F00209040E08467047D5
:103900004FF480511160184670474FF40061116008
:10391000184670470121116018467047042070470F
:103920000420704708B10420704710B58C4611463A
:1039300004461B0303F4704209036046FDF7BEFA18
:10394000204610BD08B104207047F8B50E461D464C
:10395000074614032046FDF7F3FA2A0302F47042E7
:1039600021463046FDF742FB3846F8BD134B9B7BA2
:10397000DBB2022B1FD810B40446104B93F80EC0D4
:103980005FFA8CFC002003F80C0093F80EC003EBE8
:103990008C0CCCF804409C7B1C4422739A7B541CF6
:1039A000E4B29C7330320A703A234B702F238B7031
:1039B000C87010BC70470120704700BFC80B0020C2
:1039C00008B50022FFF7D2FF08BD0000014B1868C0
:1039D000704700BF2400002070B50D4E0D4D761BC2
:1039E000B61006D0002455F8043B01349847A6428F
:1039F000F9D1094E094D06F0A5F8761BB61006D090
:103A0000002455F8043B01349847A642F9D170BD13
:103A1000A0A00008A0A00008A8A00008A0A000087E
:103A2000830730B548D0541E002A3FD00346CAB29F
:103A300001E0013C3AD303F8012B9D07F9D1032C97
:103A40002DD9CDB245EA05250F2C45EA054536D9D5
:103A5000A4F1100222F00F0C03F1200EE6444FEA0D
:103A6000121C03F1100242E9045542E902551032DA
:103A70007245F8D10CF1010214F00C0F03EB0212A5
:103A800004F00F0C13D0ACF1040323F00303043350
:103A9000134442F8045B9342FBD10CF003042CB1B5
:103AA000CAB21C4403F8012B9C42FBD130BD6446D2
:103AB0001346002CF4D1F9E703461446BFE71A4633
:103AC000A446E0E70FB400B5074A83B004AB106822
:103AD00053F8042B8168019300F094F803B05DF86B
:103AE00004EB04B0704700BF24000020024B0146E5
:103AF0001868826804F0E0BA2400002030B505465A
:103B000089B008460C4600F04FF801210223214AF3
:103B100004940692AA6B04AC0590084401940791A2
:103B2000AC680293039022B3636E13F0010FB4F9F3
:103B30000C309AB201D1980525D5910406D4626E55
:103B400043F4005322F40052A3816266284601AA7E
:103B5000214603F079F9636E002814BF4FF0FF355A
:103B60000A25DA0702D4A3899B0506D5284609B0A1
:103B700030BD284602F070FFD6E7A06D03F00AFBC7
:103B8000284609B030BDA06D03F002FBB4F90C303B
:103B90009AB2D2E7E49C0008024B01461868FFF78E
:103BA000ADBF00BF2400002020F0030110F003008F
:103BB000C0F1000051F8043B00F1040C4FEACC0CBA
:103BC0006FF000021CBF22FA0CF213434FF0010CFD
:103BD0004CEA0C2C4CEA0C4CA3EB0C0222EA03023C
:103BE00012EACC1204BF51F8043B0430F4D0C2F105
:103BF000000102EA0102B2FA82F2C2F11F0200EBF6
:103C0000D20070472DE9F04FD5B01C469146079180
:103C10000546099003F0B4FA02680E941046179214
:103C2000FFF7C2FF16901DB1AB6B002B00F01D8299
:103C3000079A536EDD0740F12D81B2F90C2091B245
:103C40008F0409D4079B42F400529A8191B21A461C
:103C50005B6E23F4005353660E0740F1C080079B50
:103C60001B69002B00F0BB8001F01A030A2B00F047
:103C7000C48000242BAB224698464D46CDE929440A
:103C80002893129400230024CDE914342B78CDE935
:103C90001922CDE91B2218920B92002B00F08F8184
:103CA000AA4604E01AF8013F002B00F0BB80252B48
:103CB000F8D1BAEB050640F0B9809AF80030002B35
:103CC00000F07D8100234FF0FF324FF02B092024BC
:103CD0001F469AF8016008920AF1010A8DF88330B4
:103CE0000A930AF1010AA6F120035A2B00F2E1809F
:103CF000DFE813F00503DF00DF000003DF00DF0073
:103D0000DF00DE02DF00DF006A006E02DF00550226
:103D10007802DF0073025B005B005B005B005B000E
:103D20005B005B005B005B00DF00DF00DF00DF00AB
:103D3000DF00DF00DF006C01DF00EA01C4016C017D
:103D40006C016C01DF00DF00DF00DF00D002DF006C
:103D5000DF002302DF00DF00DF00F801DF00920256
:103D6000DF00DF008707DF00DF00DF00DF00DF00AC
:103D7000DF00DF00DF006C01DF00EA01C6016C013B
:103D80006C016C01B602C601BF01DF00C302DF0097
:103D90005A022502A402BF01DF00F8017200840765
:103DA000DF00DF006507DF0072000022A6F13003AC
:103DB0001AF8016B02EB820203EB4202A6F1300318
:103DC000092BF5D90A928EE70E9B53F8042B002A93
:103DD0000A920E93C0F2E0819AF8006081E7079D95
:103DE0000998294601F0FCFC002841F04D83A9897F
:103DF00001F01A030A2B7FF43CAF079AB2F90E3098
:103E0000002BFFF636AF536ED80702D4890541F177
:103E1000488123464A460799099855B0BDE8F04FB6
:103E200001F09CBCBAEB050600F0C9802A9BC8E9EA
:103E3000005633442A93299B0133072B299305DC31
:103E400008F108080B9B33440B9336E70799099850
:103E500028AA04F059FC80B90DF1AC08F2E70799E3
:103E6000099828AA04F050FC002800F099800D9BC6
:103E70001BB11946099802F0E7FE079A536ED9075D
:103E800040F1E88093895B0601F10A830B9855B0F5
:103E9000BDE8F08F079BB3F90C20900591B23FF578
:103EA000CFAE1D46986D03F073F9B5F90C2091B2B1
:103EB000C6E6002E00F08380012300228DF8EC601E
:103EC00006933BAD8DF883200C930D9208920F92D0
:103ED0001392109217F0020302D006990231069154
:103EE00017F0840B07D10A990698A1EB0009B9F1E4
:103EF000000F00F390832A9C82B10122C8F80420AD
:103F0000299A013401320DF18301072A2A9429925A
:103F1000C8F8001000F3D88308F108087BB1022329
:103F2000C8F80430299B0234013321AA072B2A94B4
:103F30002993C8F8002000F3D58308F10808BBF1E5
:103F4000800F00F08882089B0C9AA3EB020BBBF158
:103F5000000F00F3CB82FB0500F11F820C9BC8F819
:103F600000501C44C8F80430299B2A940133072BC5
:103F7000299300F3448308F10808780705D50A9BC4
:103F8000069A9D1A002D00F3B983DDE90A230699EC
:103F90008A42ACBF9B185B180B93002C7FF45FAF79
:103FA000002329930D9B1BB10D99099802F04CFE3B
:103FB00055460DF1AC082B78002B7FF471AE2A9B8F
:103FC000002B41F010820023299356E70E9B073304
:103FD00023F00702F2E80234CDE91434DDE91434A9
:103FE00024F00044994618460E9221464FF0FF32C5
:103FF000AB4BFCF779FD002840F018854846214678
:104000004FF0FF32A64BFCF751FD002840F00E8523
:10401000DDE9140100220023FCF73EFD002840F0FA
:1040200065879DF88320002103209E4D9E4B27F03D
:1040300080070D910690472EC8BF1D4608910C9031
:104040000F9113911091002A3FF444AF069B013366
:1040500006933FE7079B9B899A053FF514AF079CA2
:10406000A06D03F097F8A3890DE7099802F0F4FC1E
:10407000DEE59AF8006047F0200732E647F01007C7
:10408000BA060E9B40F16E84073323F007031A46ED
:104090005B6852F8084B99460E92002BC0F26F8471
:1040A000089B013300F0FB8254EA090327F0800BE0
:1040B00040F0F682089B002B40F0F7825F46002319
:1040C00054AD08930C933DE1012000220E9B069015
:1040D00053F8041B3BAD8DF883208DF8EC100E9344
:1040E0000C90F2E64FF000090E9C089B54F8045B1C
:1040F0008DF88390002D00F0A1855A1C00F0A58654
:104100001A464946284603F063FB0D90002801F04B
:1041100050810D9B9DF883205B1B0C9323EAE37376
:10412000CDF820900E940693CDF83490CDF83C90C5
:10413000CDF84C90CDF8409085E747F0100717F088
:10414000200900F0F2830E9B073323F00703D3F816
:10415000049053F8084B0E93002327F4806B002241
:104160008DF88320089A511C00F0D48054EA09018C
:104170002BF0800740F0CD80002A40F00486002B11
:104180009DD11BF001030C9300F0308430230DF21D
:104190004F158DF84F31D5E00A9B5B420A939AF890
:1041A000006047F004079CE5BD0600F1FD84FC06B5
:1041B00000F1EE85780600F1B286B90540F1E88598
:1041C0000E9B0B9953F8042B554611700E93F2E693
:1041D0009AF800608DF8839083E59AF8006047F0C4
:1041E00080077EE5524612F8016B2A2E01F08D827F
:1041F000A6F13003092B924698BF002201F2E58018
:104200001AF8016B02EB820203EB4202A6F13003C3
:10421000092BF5D9089266E547F0100B1BF0200931
:1042200000F091830E9B073323F007031A4652F8E0
:10423000084BD3F804900E92012390E730227826A1
:104240000E9B8DF8842053F8044B184A0E934FF0C0
:104250000009022347F0020B8DF8856018927EE773
:104260009AF80060682E03BF9AF8016047F400775F
:104270000AF1010A47F0400733E59AF800606C2E16
:1042800003BF9AF8016047F020070AF1010A47F0DE
:10429000100726E59AF8006047F0080721E500BFFF
:1042A000FFFFEF7FE89C0008EC9C0008F89C0008EA
:1042B000099E304602F064FF436818461B93FFF7DF
:1042C00073FC034630461C931E4602F059FF836878
:1042D0001993002E3FF480AD199B002B3FF47CAD69
:1042E000199B1B78002B3FF477AD9AF8006047F4D8
:1042F0008067F6E49AF8006047F00107F1E49DF862
:104300008330002B7FF468AD9AF800608DF883400D
:10431000E7E4BB46012B00F0C381022B54AD1FD153
:10432000189A04F00F03D35C240944EA09744FEA95
:10433000191905F8013D54EA0903F2D15F4654AB5F
:104340005B1B0C93089A0C9900238A42B8BF0A465B
:104350000D9306920F939DF883201393109372E6AA
:1043600004F00703E40844EA49744FEAD9093033FA
:1043700054EA09012A4605F8013DF1D11BF0010F6D
:10438000DCD0302BDAD03023023A05F8013C54ABB4
:104390009B1A5F4615460C93D4E7652E40F3E980DF
:1043A000DDE9140100220023FCF76CFB002800F07B
:1043B000E1810123C8F80430299BC04A013301344C
:1043C000072B2A942993C8F8002000F3BF8408F132
:1043D0000808229B129A934280F2DC82169B179A5D
:1043E0001C44C8E90023299B2A940133072B2993F5
:1043F00000F3178408F10808129B5D1E002D7FF75B
:10440000BCAD102D41F35D81DFF8B49222464946E0
:104410001026B946299B0F46DDF824B0079C05E01D
:1044200008F10808103D102D40F39D84013310322F
:10443000072BC8E90076CDE92932F1DD214658463F
:1044400028AA04F061F900287FF411ADDDE92932D2
:104450000DF1AC08E6E70A9B069AA3EB020BBBF151
:10446000000F7FF770ADBBF1100F41F35280DFF802
:10447000509241462046A8464C461023299A079D53
:10448000DDF8249006E0ABF1100BBBF1100F01F149
:10449000080119DD01321030072AC1E90043CDE9D6
:1044A0002920F0DD2946484628AA04F02DF90028E5
:1044B0007FF4DDACDDE92920ABF1100BBBF1100F6F
:1044C0004FF010032BA9E5DC4546A146884604467B
:1044D00001325C44072ACDE92924C8F80090C8F8C5
:1044E00004B000F3918308F108082CE5BBF1100F2C
:1044F00040F3E384DFF8C89141462046A8464C4685
:104500001023299A079DDDF8249006E0ABF1100BEB
:10451000BBF1100F01F1080119DD01321030072A3B
:10452000C1E90043CDE92920F0DD2946484628AA03
:1045300004F0EAF800287FF49AACDDE92920ABF119
:10454000100BBBF1100F4FF010032BA9E5DC454613
:10455000A1468846044601325C44072ACDE9292455
:10456000C8F80090C8F804B000F3D28108F1080838
:10457000F1E4129B012B40F382810123299E013437
:104580001E44072EC8F800502A94C8F80430299613
:1045900000F36C8308F10808169B0136179A1C4437
:1045A000072EC8E90023CDE9296400F36C8308F1E4
:1045B00008080022DDE914010023FCF763FA002853
:1045C00040F07A81129B0136013B01351C44072ED5
:1045D000C8F800502996C8F804302A9400F35F8187
:1045E00008F108081A9B01361C44C8F80430072E4D
:1045F00024ABCDE92964C8F800307FF7BCAC07993B
:10460000099828AA04F080F800287FF430AC2A9C8E
:104610000DF1AC08B1E4B9F1100F40F3C686DDE945
:1046200029214046CDE91D36B84610244F46079E45
:10463000A946099D04E0103F102F00F1080016DD87
:104640000132204B1031072AC0E90034CDE929217D
:10465000F1DD3146284628AA04F056F800287FF4F8
:1046600006ACDDE92921103F102F2BA8E8DC4D46D0
:10467000DDE91D36B9464746804609EB01040132A3
:104680001049072ACDE92924C8F80490C8F8001079
:1046900000F340839DF8832008F108082CE4BB4612
:1046A0000A2C79F1000380F0FB82012330345F464D
:1046B0008DF84F410C930DF24F1543E6289D0008ED
:1046C0003C9D00082C9D00080799099828AA1D9375
:1046D00004F01AF800287FF4CAAB2A9C1D9B0DF148
:1046E000AC081BE40799099828AA04F00DF80028E3
:1046F0007FF4BDAB2A9C0DF1AC0820E4102D40F3F3
:10470000BE861026299B099FDDF81C9004E0103D11
:10471000102D08F1080817DD0133BA4A1034072BB1
:10472000C8E90026CDE92934F1DD4946384628AAF2
:1047300003F0EAFF00287FF49AABDDE92934103D4D
:10474000102D0DF1AC08E7DC0133AE4A2C44072BE9
:10475000CDE92934C8F80450C8F800207FF715AC1B
:104760000799099828AA03F0CFFF00287FF47FABB0
:104770002A9C0AE42299002940F31081DDF8409038
:10478000129B9945A8BF9946B9F1000F0BDD299BF3
:104790004C440133072BC8E900592A94299300F3AC
:1047A000818508F10808109EB9F1000FA8BFA6EB9B
:1047B0000906002E00F3F582DDF840B07905AB4420
:1047C00000F1AC84229B129A934202DBFA0740F17B
:1047D0009283169A17991444C8E90012299A2A94C8
:1047E0000132072A299200F3A88508F10808129AD5
:1047F000AE18A6EB0B06D51AAE42A8BF2E46002E69
:104800000DDD299B34440133072BC8F800B0C8F8EC
:1048100004602A94299300F3FC8508F10808002E0F
:10482000A8BFAD1B002D7FF7A8AB102D40F3498723
:10483000DFF8D491224649461026B946299B0F46F7
:10484000DDF824B0079C05E008F10808103D102DA4
:1048500040F3898201331032072BC8E90076CDE995
:104860002932F1DD2146584628AA03F04DFF0028E1
:104870007FF4FDAADDE929320DF1AC08E6E7FE0779
:104880003FF57BAE0123299E01341E44072EC8F854
:1048900000502A94C8F8043029967FF7A1AE0799F2
:1048A000099828AA03F030FF00287FF4E0AADDE988
:1048B00029640DF1AC0895E6129B5D1E002D7FF773
:1048C00091AE102D40F31987224608974FF0100B38
:1048D000DFF83491099C079F05E008F10808103DB6
:1048E000102D40F3C78201361032072EC8E9009B15
:1048F000CDE92962F1DD3946204628AA03F004FFFC
:1049000000287FF4B4AADDE929620DF1AC08E6E7DE
:104910000799099828AA03F0F7FE00287FF4A7AAB0
:104920002A9C0DF1AC08FFF716BB17F0100377D1E6
:1049300017F0400200F0AC820E9A994652F8044BF0
:104940000E92A4B208E41BF010030E9A54D11BF08F
:1049500040014DD052F8044B99460E920123A4B267
:10496000FFF7FDBB53F8044B0E93FB0653D47D06B3
:104970004ED544F3C0394B4624B2FFF78EBB2D23EE
:1049800064428DF88330BB464FF0010369EB49095F
:10499000FFF7E8BBF8077FF5F0AA1FE50123C8F889
:1049A0000430299B194A01330134072B2A94299397
:1049B000C8F8002000F3688408F10808002940F0D6
:1049C0002582129A07F0010313433FF4D6AA169BDF
:1049D0001799E218C8E90013299B2A920133072B83
:1049E000299300F3508308F1080820E254ADA9E4AC
:1049F0001BF4007940F0A08252F8044B01230E9280
:104A0000FFF7ADBB2C9D00083C9D0008289D0008C9
:104A1000B80500F179824FEAE4794B46FFF73DBBD8
:104A20000E9B53F8044B0E93FFF796BBDDE9140180
:104A300002460B46FCF758F8002840F0F785612E37
:104A400000F06C85412E00F07F82089B013300F05E
:104A5000948526F02003472B069300F07B85DDE943
:104A6000141247F480730F931346002BC0F2F485A1
:104A70000C9300238B461D930D93069B462B00F051
:104A80002B84452B00F0148508990C9B0191022181
:104A9000009126A9049123A9039122A95A460998B5
:104AA000029100F0ADFF069B0546472B40F044867F
:104AB00017F0010FB9460F9F40F0F784269B5B1B50
:104AC0001293069B472B00F0F182069B462B00F0C9
:104AD0004284229B1093109B069A013B412A229309
:104AE00000F08A850021F2B2002B8DF89020B6BF2D
:104AF0002D222B22109B8DF89120B8BFC3F101030A
:104B0000092B40F381850DF19F0C6246BA4F1C467C
:104B1000104687FB0312D917C1EBA20101EB8102FA
:104B2000A3EB42023032632C00F8012C0B4600F15B
:104B3000FF32ECDC3033811EDBB28C4502F8013CE5
:104B400040F2FF850DF1920101E012F8013B94451E
:104B500001F8013BF9D10DF1A1030DF192021B1AED
:104B6000134424AA9B1A1A93129B1A9A012B1A44D3
:104B70000C9240F39E850C9B169A13440C930023D1
:104B80000C9A29F4806722EAE27247F480770F9347
:104B90000692139310931D9B002B40F0B0829DF85A
:104BA00083200893FFF74FBA0E9B0B9853F8041B12
:104BB000C2175546C1E900020E93FFF7FCB98F4BAF
:104BC000189317F0200949D00E9B073323F00703F1
:104BD000D3F8049053F8084B0E93F80709D554EA1C
:104BE000090306D030238DF8856047F002078DF861
:104BF0008430022327F4806BFFF7B1BABB46FFF77E
:104C00000DBB7F4B1893DCE70799099828AA03F09E
:104C10007BFD00287FF42BA92A9C0DF1AC08FFF73F
:104C200092B90799099828AA03F06EFD00287FF42D
:104C30001EA92A9C0DF1AC08FFF7DEBB062B294606
:104C400028BF06232A4608950D9506936D4D0E94B0
:104C50000C930F9113911091FFF7F5B917F0100312
:104C600069D00E9B53F8044B0E93B6E70799099849
:104C700028AA03F049FD00287FF4F9A8DDE929649A
:104C80000DF1AC0888E40799099828AA03F03CFDC7
:104C900000287FF4ECA8DDE929640DF1AC0888E474
:104CA00000230BF48062CDE90CA8069692461E46BE
:104CB000DDF8648054AF0CE00023204649460A2208
:104CC000FBF750FF0A2C79F100031BD304468946F9
:104CD0002F4620460A2200234946FBF743FF303285
:104CE0007D1E013607F8012CBAF1000FE4D098F8C8
:104CF00000309E42E0D1FF2EDED00A2C79F1000375
:104D000080F0E080CDF864801296DDE90CA8069E64
:104D1000FFF714BB0799099828AA1D9303F0F4FC28
:104D200000287FF4A4A89DF883202A9C1D9B0DF1E8
:104D3000AC08FFF7E1B817F0400200F0B4800E9A1B
:104D4000994652F8044B0E92A4B246E70799099887
:104D500028AA03F0D9FC00287FF489A82A9C0DF129
:104D6000AC08FFF736BB14463A464F46914601332E
:104D70002C44072BC8F80090C8F80450CDE929341A
:104D80007FF7F9A83BE4012BBB467FF4C6AA8CE46D
:104D90000E9B0B9953F8042B554611600E93FFF7A9
:104DA0000AB9102E40F3AD84DFF85C9042464846C5
:104DB0002146A846B9464FF0100B0746299B099C8F
:104DC000079D04E00832103E102E40F34882013364
:104DD0001031072BC2E9007BCDE92931F2DD2946EC
:104DE000204628AA03F090FC00287FF440A8DDE9C3
:104DF00029312BAAE7E700BF67666666F89C0008C2
:104E00000C9D0008209D00083C9D0008169B1798EB
:104E1000E218C8E90003299B2A920133072B299342
:104E200000F3318108F108080029C0F202831299C9
:104E300001338C18072BCDE92934C8F80050C8F885
:104E400004107FF798A8FFF7DABB2846CDF820902A
:104E50000E94FEF7A9FE20EAE073CDE90C099DF857
:104E60008320CDF83C90CDF84C90CDF8409006933F
:104E7000FFF7E9B81446089F01362C44072ECDE908
:104E80002964C8F80090C8F804507FF7A9AB06E57C
:104E900017F400790E9B3DD053F8044B91460E93C6
:104EA000E4B2FFF759B917F400790E9B40D053F8DC
:104EB000044B91460E93E4B28FE6299ADFF84C92A8
:104EC000FFF749BB1C9B1B99ED1A1A46284603F0B5
:104ED000ABFB98F801300BB108F1010820464946B8
:104EE0000A2200230026FBF73DFEEFE62D228DF877
:104EF0008320FFF798B8129AAE18A6EB0B06D51AC6
:104F0000AE42A8BF2E468AE444F3C0194B4664B2B1
:104F1000FFF7C3B853F8044B0E93FFF71DB90E9B70
:104F20000B9953F8042B554611800E93FFF743B8A5
:104F300053F8044B0E9350E652F8044B8946012374
:104F40000E92E4B2FFF70BB930238DF8843058236A
:104F50008DF88530089B47F00204632B00F3E38251
:104F600000233BAD0D9347F481730F93DDE91412D9
:104F70001346002B2746C0F240820C9300238B4639
:104F80001D9326F020030693612E00F01783412E17
:104F90007FF473AD22AA58460C9903F0B5FA0022AB
:104FA0004FF07F53FBF706FB02460B46CDE910237B
:104FB00000220023FBF766FD08B101232293544B26
:104FC0000C93089BCDE912A6CDE91E78DDE91067A8
:104FD000AB46DDF830A003F1FF39109506E0002262
:104FE000002309F1FF39FBF74DFDE8B90022494BD9
:104FF00030463946FBF7DEFA0F460646FBF78AFDD8
:105000000446FBF76DFA0B46024639463046FBF77D
:1050100019F91AF80430B9F1FF3FD8464D46064653
:105020000F460BF8013BDAD13046394600223A4BA5
:10503000A946DDF848A0109DCDF84880CDE91001C3
:10504000DDF87C80139E1E9FFBF744FD002840F096
:105050004482DDE9100100222F4BFBF713FD10B154
:10506000E10700F13A824B46002B06DB3022013388
:105070005B440BF8012B5B45FBD1ABEB0503B94659
:1050800012930F9F1DE50799099828AA03F03CFB8E
:1050900000287EF4ECAEDDE9293222990DF1AC084E
:1050A000C2E6906D02F076F8FEF7B3BE229BDA1CE2
:1050B000109302DB089A934204DD023E26F020039F
:1050C000069308E5109B129A9342C0F2828119F070
:1050D000010F00F0A882169A13440C9319F4806F04
:1050E00000F09082109B6726002B00F346810C9BFA
:1050F00023EAE373069300230F9313934BE52D22CA
:1051000000238DF883200893FEF7A0BF3C9D000884
:105110000C9D0008000030400000E03F129B42461A
:10512000DDF84C80EB185E460893CDF830A0109760
:105130002146199FDDF87090DDF824A0DDF81CB041
:105140000F9B1395B8F1000F2ED0002B6CD1013FAF
:1051500008F1FF381B9B4944C2E90039299B2A9179
:105160000133072B299363DC0832089B38789B1B9B
:105170008342A8BF0346002B1C460ADD2998194428
:1051800001300728C2E900632A9129905BDC387856
:105190000832002CB4BF0546051B002D15DC064463
:1051A0000F9BB8F1000FD0D1002B3DD1DDE91235B6
:1051B000EB189E42B346199790460C4628BF9B4673
:1051C000DDF830A0109FFFF7FDBA102D40F36F827D
:1051D0001024299804E0103D102D02F1080216DD7C
:1051E0000130A84B10310728C2E90034CDE929016C
:1051F000F1DD5946504628AA03F086FA00287EF4CD
:1052000036AEDDE92901103D102D2BAAE8DC013076
:105210009C4B29440728CDE92901556013604EDCD9
:10522000387808320644BBE70F9B013B0F9391E7A8
:105230005946504628AA03F067FA00287EF417AEB4
:105240002A992BAA91E75946504628AA03F05CFAFE
:1052500000287EF40CAE38782A992BAA99E74546A7
:1052600090463A460C464F46914601333444072B4C
:10527000CDE92934C8F80090C8F8046000F35D81D6
:1052800008F10808FFF798BA0799099828AA03F0C7
:105290003BFA00287EF4EBAD22992A9C0DF1AC0874
:1052A000FFF78CBB0799099828AA03F02DFA00286C
:1052B0007EF4DDAD2A9C0DF1AC08FFF774BA5946B7
:1052C000504628AA03F020FA00287EF4D0AD3878A2
:1052D0002A992BAA064463E708990C9B01910321A4
:1052E000009126A9049123A9039122A95A4609985D
:1052F000029100F085FB03780546302B00F0C08159
:10530000229B089AB94613440F9FEC185846002276
:1053100000230C99FBF7B6FB10B12346FFF7CFBB78
:10532000269BA342BFF4CBAB30215A1C26921970A6
:10533000269B9C42F9D8FFF7C2BB0799099828AA77
:1053400003F0E2F900287EF492AD229B2A9C0DF135
:10535000AC08FFF74CBA229A002A109240F3B981A8
:10536000089909F001030B4340F040816626109B29
:105370000C9319F4806F3FF4BAAE19990B78FF2B98
:1053800000F0D6810024109A204604E0013001315B
:10539000FF2B00F06481934280F26181D21A4B7836
:1053A000002BF3D10B780134F2E7DDE92921FFF777
:1053B00064B9089B9DF883200E9406930C93089083
:1053C0000F9013901090FEF73EBE00230893FEF757
:1053D0008ABC129B169A9A18109B0C92002B40F3D1
:1053E0005D816726C5E70799099828AA03F08CF91B
:1053F00000283EF4E8ADFEF740BD26F020030693FA
:105400002D22DDE914349B4604F100431D920C93D8
:10541000BAE50799099828AA03F076F900287EF4DE
:1054200026AD229D129B2A9C0DF1AC085D1BFFF757
:10543000F6B94E42103180F2818141461024A846CF
:10544000DFF84090DDF824B0079D04E00831103EFD
:10545000102E40F3998001331032072BC1E90094DC
:10546000CDE92932F2DD2946584628AA03F04CF945
:1054700000287EF4FCACDDE929322BA9E7E7299B63
:10548000FFF762B93C9D0008079B5B6EDD0707D400
:10549000079B9B899C0503D4079B986D01F07AFEBE
:1054A0004FF0FF330B93FEF7F1BC089BEC182DE790
:1054B0000221009108995A464C1C26A9049123A95F
:1054C000039122A90C9B09980194029100F098FA8B
:1054D0000546B9462C440F9F18E7129B26930C9B58
:1054E0001BF8012CD97B5B468A4209D1302003F896
:1054F000010C269B5A1E269213F8012C9142F6D0DD
:10550000392A0BBF0C9A0132927AD2B203F8012CDD
:10551000B3E5299ADFF83492FEF7DABF30238DF82D
:105520008430782314E50998591C01F0A5FE05463E
:10553000002800F0F6800D9015E50799099828AA33
:1055400003F0E2F800287EF492AC2A9C0DF1AC083E
:10555000FFF732B9089B002B08BF0123089347F4DB
:1055600080730F93159B002BC0F2A980DDF850B01B
:105570001D900C930D90FFF787BA0623089326F031
:1055800020030693FFF76BBA454688460133324441
:10559000072BCDE92932C8F80090C8F804607FF7DE
:1055A00022AA0799099828AA03F0AEF800287EF4E9
:1055B0005EACDDE929320DF1AC0838E422AA584688
:1055C0000C9902F0A1FF00224FF07F53FAF7F2FF8F
:1055D00002460B46CDE9102300220023FBF752FAC6
:1055E00008B1012322935A4B0C93EAE4169B6626DA
:1055F000D31819440C91BCE606F10F020121D2B276
:10560000FFF772BA672672E500295FD130228DF864
:1056100092200DF19302303302F8013B24ABD31AF0
:105620001A93FFF7A1BA109B0C9357E5159B032023
:10563000002BB8BF2D224FF00003A8BF9DF8832098
:1056400019460D93434D444BB8BF8DF8832027F086
:1056500080070690FEF7EFBC00230D93D0E619916A
:10566000109213900F940F9A139B1C9913440C9A49
:1056700001FB03230C9323EAE3730693FFF78BBA32
:105680005846002200230C99FBF7FCF900287FF410
:1056900037AE089BC3F10103229332E6C3F1010345
:1056A0001A4422EAE27367260C92069323E52998AE
:1056B000ADE519F0010F3FF462AAFFF75CBA0D9057
:1056C0009EE6299BDFF88490FFF751BB0DF1920213
:1056D000A1E7089A09F0010959EA020304D101235C
:1056E000662606930C9306E5169B662601331A443C
:1056F00022EAE2730C920693FDE4DFF85090FFF784
:10570000BBBB299BDFF84490AFE50E9B9AF8016084
:10571000924653F8042B0E9342EAE2730893FEF785
:10572000E0BA079A938943F040039381FEF7A5BB43
:1057300000230F93139396E7089CCAE6DFF80C90BA
:1057400024E702231A93FFF70FBA00BF3C9D00081D
:10575000F89C0008F09C0008F49C0008F0B54FF499
:10576000806C1546002406461F46ADF26C4D1AAB00
:10577000009304938B8916A823F00203ADF80C3034
:105780004B6E06941993CB890C46ADF80E30CB695D
:10579000CDF808C007934B6ACDF814C0099301F007
:1057A000F3FC2A463B4669463046FEF72BFA051EB7
:1057B00007DB6946304601F01BF9002818BF4FF09F
:1057C000FF35BDF80C305B0603D5A38943F04003D9
:1057D000A381169801F0DAFC28460DF26C4DF0BD5D
:1057E00038B5334B05461B680C460BB19A6B12B3A8
:1057F000B4F90C3018079AB225D5216900292DD0AB
:1058000012F0010007D000256069A5604042A06148
:1058100039B1002038BD950758BF6069A0600029E4
:10582000F7D1120658BF0846F4D543F040034FF0B5
:10583000FF30A38138BD184601F00EF9B4F90C30E1
:1058400018079AB2D9D4D1062AD5520714D421699F
:1058500043F00803A3819AB20029D1D102F4207049
:10586000B0F5007FCCD02146284601F095FCB4F974
:105870000C3021699AB2C3E7216B51B104F14002A7
:10588000914204D0284601F0DFF9B4F90C3000222F
:1058900022630022216923F02403C4E90012D7E720
:1058A000092243F040032A604FF0FF30A38138BD46
:1058B00024000020024B13B1024800F005B87047E5
:1058C000000000007D6B0008002301461A461846C0
:1058D00003F0A0BE2DE9F04F03690C6985B0A34227
:1058E000C0F28980013C01F11405A30000F1140805
:1058F000019355F8243058F8242001338A469A42FF
:1059000008EB84018146B2FBF3F605EB84070291B4
:105910003AD30021AE4640460A46A34603955EF8B8
:10592000045B0468ABB206FB03132D0C190C06FBD9
:1059300005119BB2D21A1FFA84FC94448AB2C2EBBE
:10594000144202EB2C421FFA8CFC4CEA02437745CE
:1059500040F8043B4FEA11414FEA2242DFD2019B5B
:105960005C4658F80330039D73B9029B043B98458D
:1059700004D307E0984504F1FF3403D253F8042917
:10598000002AF7D0C9F810405146484602F06CFA98
:1059900000282CDB40460023013655F8041BD0F8C4
:1059A00000C08AB29A1A1FFA8CFE0B0C7244C3EB29
:1059B0001C4303EB224392B242EA0342AF4240F857
:1059C000042B4FEA2343E8D258F8242008EB840341
:1059D0006AB9043B984504D307E0984504F1FF34C5
:1059E00003D253F80429002AF7D0C9F810403046F2
:1059F00005B0BDE8F08F002005B0BDE8F08F00BF16
:105A00002DE9F04F90469946016C99B00446CDE9D6
:105A10000489259D41B10123426C93408B604A600B
:105A200001F0CCFF00232364B9F1000AB4BF0123C5
:105A300000232B60764BBCBF2AF0004ACDF814A09F
:105A400033EA0A0300F0AA80DDE904231046194670
:105A500000220023CDE90A01FBF714F8074670B1D4
:105A60000123249A1360269B002B00F0E6826948EC
:105A70001860431E0393039819B0BDE8F08F16AB6E
:105A8000019317AB00932046DDE90A2302F0B2FA36
:105A90005FEA1A56054640F09780DDE916763E44E7
:105AA00006F23240202840F3B783C0F140000AFAE2
:105AB00000FA06F2124028FA00F04AEA0000FAF76B
:105AC000FFFC0123013E0F93A1F1F8710022524B1C
:105AD000FAF7B8FB48A3D3E90023FAF76BFD48A314
